:100000000C945D000C9485000C9485000C94850084
:100010000C9485000C9485000C9485000C9485004C
:100020000C9485000C9485000C9485000C94B50408
:100030000C9485000C9485000C9485000C9485002C
:100040000C9413040C9485000C9483040C945D04AC
:100050000C9485000C9485000C9485000C9485000C
:100060000C9485000C94850000000008000201003B
:100070000003040700000000000000000000000072
:10008000250028002B0000000000240027002A0083
:10009000040404040404040402020202020203032E
:1000A0000303030301020408102040800102040836
:1000B0001020010204081020710511241FBECFEF8B
:1000C000D8E0DEBFCDBF11E0A0E0B1E0E0E0F7E1B5
:1000D00002C005900D92AC38B107D9F722E0ACE828
:1000E000B1E001C01D92A538B207E1F710E0CDE5FF
:1000F000D0E004C02197FE010E94710BCC35D107DE
:10010000C9F70E94E8050C947E0B0C94000090E067
:10011000FC01EC55FF4F249180579F4FFC018491C7
:10012000882399F090E0880F991FFC01EA57FF4F50
:10013000A591B491FC01E458FF4F859194918FB73C
:10014000F894EC91E22BEC938FBF089590E0FC01C2
:10015000E859FF4F2491FC01EC55FF4F3491FC010D
:10016000E057FF4FE491EE23C9F0222339F023300A
:1001700001F1A8F4213019F1223029F1F0E0EE0F5D
:10018000FF1FE458FF4FA591B4918FB7F894EC91FD
:10019000611126C030953E233C938FBF08952730D0
:1001A000A9F02830C9F0243049F7809180008F7D74
:1001B00003C0809180008F7780938000DFCF84B56B
:1001C0008F7784BDDBCF84B58F7DFBCF8091B0006E
:1001D0008F778093B000D2CF8091B0008F7DF9CF20
:1001E0003E2BDACFCF93DF93EC0183E00E948700B0
:1001F000209731F460E083E0DF91CF910C94A6006A
:10020000CF3FD10511F461E0F6CFEBE6F0E0E491E9
:10021000E33029F140F4E130B1F0E230D9F0C038F8
:10022000D1058CF7E7CFE73021F1E83051F1E43028
:10023000B1F780918000806280938000D0938B0022
:10024000C0938A0004C084B5806884BDC7BDDF91B7
:10025000CF91089584B5806284BDC8BDF8CF8091E8
:100260008000806880938000D0938900C0938800CC
:10027000EECF8091B00080688093B000C093B3004F
:10028000E6CF8091B00080628093B000C093B4004C
:10029000DECF3FB7F8948091B9019091BA01A09157
:1002A000BB01B091BC0126B5A89B05C02F3F19F03A
:1002B0000196A11DB11D3FBFBA2FA92F982F8827E6
:1002C000BC01CD01620F711D811D911D42E0660FC1
:1002D000771F881F991F4A95D1F70895AF92BF9253
:1002E000CF92DF92EF92FF920F931F93CF93DF9302
:1002F0006C017B018B01040F151FEB015E01AE1831
:10030000BF08C017D10759F06991D601ED91FC9152
:100310000190F081E02DC6010995892B79F7C5017F
:10032000DF91CF911F910F91FF90EF90DF90CF90D1
:10033000BF90AF900895FC01538D448D252F30E080
:10034000842F90E0821B930B541710F0CF960895E2
:1003500001970895FC01918D828D981761F0A28D0F
:10036000AE0FBF2FB11D5D968C91928D9F5F9F73D5
:10037000928F90E008958FEF9FEF0895FC01918D8B
:10038000828D981731F0828DE80FF11D858D90E0F8
:1003900008958FEF9FEF0895FC01918D228D892F95
:1003A00090E0805C9F4F821B91098F73992708957D
:1003B0008DEB91E00E94CC0121E0892B09F420E033
:1003C000822F089580E090E0892B29F00E94D801C7
:1003D00081110C9400000895FC01A48DA80FB92F81
:1003E000B11DA35ABF4F2C91848D90E001968F735D
:1003F0009927848FA689B7892C93A089B1898C917C
:10040000837080648C93938D848D981306C00288CA
:10041000F389E02D80818F7D80830895EF92FF9294
:100420000F931F93CF93DF93EC0181E0888F9B8D17
:100430008C8D98131AC0E889F989808185FF15C0D1
:100440009FB7F894EE89FF896083E889F9898081F4
:100450008370806480839FBF81E090E0DF91CF91C3
:100460001F910F91FF90EF900895F62E0B8D10E0E5
:100470000F5F1F4F0F731127E02E8C8D8E110CC054
:100480000FB607FCFACFE889F989808185FFF5CF9F
:10049000CE010E94EC01F1CFEB8DEC0FFD2FF11D91
:1004A000E35AFF4FF0829FB7F8940B8FEA89FB89DC
:1004B00080818062CFCFCF93DF93EC01888D88233A
:1004C000B9F0AA89BB89E889F9898C9185FD03C0B7
:1004D000808186FD0DC00FB607FCF7CF8C9185FF9C
:1004E000F2CF808185FFEDCFCE010E94EC01E9CFF4
:1004F000DF91CF910895DC01EC91EC3090F51196ED
:100500008C91119728E830E0281B310987FD33953D
:10051000220F331F220F331F6217730784F01296C6
:100520008C9128E532E0281B310987FD3395220F95
:10053000331F220F331F621773070CF49B012250E5
:100540003109220F331F4FB7F8948E2F90E0FC0132
:10055000EE0FFF1FE80FF91FE65AFD4F328321838C
:100560004FBF08951F93CF93DF93EC01162F88811F
:100570008C3008F04DC0862F0E9487008881282F7C
:1005800030E0F901EE0FFF1FE20FF31FE65AFD4FB7
:100590001F736081607C612B608319821A822CE05A
:1005A000622F0E94650B829FB001112430E020E091
:1005B000AB01420F531FFA01EE0FFF1FE40FF51FAF
:1005C000E65AFD4F908196FD16C02F5F3F4F2C30AD
:1005D000310571F781110FC01092800082E0809385
:1005E00081001092850010928400B19A80916F0072
:1005F000826080936F00E8818E2F90E0FC01EE0F07
:10060000FF1FE80FF91FE65AFD4F80818064808349
:100610008881DF91CF911F910895FC010190002006
:10062000E9F73197AF01481B590BBC018DEB91E005
:100630000C946E01CF93DF930E940D03EC018AE1CD
:1006400091E00E940D038C0F9D1FDF91CF910895C3
:1006500081E08093040188EB9BE0A0E0B0E0809310
:10066000990190939A01A0939B01B0939C018DE115
:1006700091E00C941A030C940D038F929F92AF9209
:10068000BF92CF92DF92EF92FF920F931F93CF937F
:10069000DF93CDB7DEB7A1970FB6F894DEBF0FBEDC
:1006A000CDBF6C01990FEE08FF08F7FE41C06DE267
:1006B0008DEB91E00E940E028C0122273327A901C5
:1006C0002C193D094E095F0919A2CE0181967C01C2
:1006D0009AE0892E912CA12CB12CCA01B901A50157
:1006E00094010E94CE0A605DF70162937F0121159B
:1006F00031054105510589F790E080E0309719F008
:10070000CF010E940D03800F911FA1960FB6F894A0
:10071000DEBF0FBECDBFDF91CF911F910F91FF9034
:10072000EF90DF90CF90BF90AF909F908F90089503
:10073000A701960119A28E010F5D1F4F8AE0C82EF6
:10074000D12CE12CF12CCA01B901A70196010E941C
:10075000CE0A605DF80162938F01211531054105D4
:10076000510589F790E080E0309779F2CF010E943F
:100770000D03CBCFCF93DF93EB010E94990A8883BF
:10078000CE01DF91CF9108950F931F93CF93DF9305
:100790008C01EB010E94990A8883C80101960E948E
:1007A000990A8983CE01DF91CF911F910F9108950E
:1007B000FF920F931F93CF93DF938C01EB01F8808F
:1007C0000E94990AF81621F06F2DC8010E94A10A13
:1007D000CE01DF91CF911F910F91FF900895FF926D
:1007E0000F931F93CF93DF93EC018B01FB01F080FC
:1007F0000E94990AF81621F06F2DCE010E94A10ADD
:10080000F801F1802196CE010E94990AF81621F094
:100810006F2DCE010E94A10AC801DF91CF911F91D7
:100820000F91FF9008951F920F920FB60F9211240F
:100830002F933F938F939F93AF93BF938091B50175
:100840009091B601A091B701B091B8013091B40177
:1008500023E0230F2D3758F50196A11DB11D2093DC
:10086000B4018093B5019093B601A093B701B09302
:10087000B8018091B9019091BA01A091BB01B091EA
:10088000BC010196A11DB11D8093B9019093BA01DD
:10089000A093BB01B093BC01BF91AF919F918F9189
:1008A0003F912F910F900FBE0F901F90189526E843
:1008B000230F0296A11DB11DD2CF1F920F920FB62A
:1008C0000F9211242F933F934F935F936F937F93D6
:1008D0008F939F93AF93BF93EF93FF938DEB91E033
:1008E0000E94EC01FF91EF91BF91AF919F918F9189
:1008F0007F916F915F914F913F912F910F900FBE1C
:100900000F901F9018951F920F920FB60F921124FF
:100910002F938F939F93EF93FF93E091CD01F091ED
:10092000CE018081E091D301F091D40182FD1BC002
:1009300090818091D6018F5F8F732091D7018217AC
:1009400041F0E091D601F0E0E354FE4F958F8093A3
:10095000D601FF91EF919F918F912F910F900FBE34
:100960000F901F9018958081F4CF1F920F920FB6B1
:100970000F9211242F933F934F935F936F937F9325
:100980008F939F93AF93BF93CF93DF93EF93FF9397
:1009900080918C01C0917E02D0E087FF24C010922C
:1009A00085001092840080918C018F5F80938C0170
:1009B00080918C01082E000C990B8C179D0724F454
:1009C00080918C018C30C4F18091840090918500DD
:1009D000049680349C4908F47AC0809184009091F8
:1009E0008500049676C080918C01082E000C990B2E
:1009F0008C179D07C4F6E0918C018E2FEE0F990B9A
:100A0000FC01EE0FFF1FE80FF91FE65AFD4F808132
:100A100086FFC9CFE0918C018E2FEE0F990BFC0160
:100A2000EE0FFF1FE80FF91FE65AFD4F808160E0CF
:100A30008F730E94A600B7CF20918400309185006B
:100A4000E0918C018E2FEE0F990BFC01EE0FFF1F32
:100A5000E80FF91FE65AFD4F81819281820F931FA3
:100A60009093890080938800E0918C018E2FEE0F87
:100A7000990BFC01EE0FFF1FE80FF91FE65AFD4F1F
:100A8000808186FF11C0E0918C018E2FEE0F990BB3
:100A9000FC01EE0FFF1FE80FF91FE65AFD4F8081A2
:100AA00061E08F730E94A600FF91EF91DF91CF91DB
:100AB000BF91AF919F918F917F916F915F914F9176
:100AC0003F912F910F900FBE0F901F90189580E4CB
:100AD0009CE990938900809388008FEF80938C012C
:100AE000E3CF1092C0011092BF0188EE93E0A0E026
:100AF000B0E08093C1019093C201A093C301B09371
:100B0000C4018CE091E09093BE018093BD0185EC1F
:100B100090E09093CA018093C90184EC90E0909397
:100B2000CC018093CB0180EC90E09093CE01809338
:100B3000CD0181EC90E09093D0018093CF0182ECC5
:100B400090E09093D2018093D10186EC90E0909355
:100B5000D4018093D3011092D6011092D701109244
:100B6000D8011092D90180917E028C3048F591E035
:100B7000980F90937E028093820290E0FC01EE0F2A
:100B8000FF1FE80FF91FE65AFD4F88EB9BE09283A9
:100B9000818380917E028C30B8F491E0980F90931D
:100BA0007E0280937F0290E0FC01EE0FFF1FE80FB2
:100BB000F91FE65AFD4F88EB9BE0928381830895ED
:100BC0008FEF80938202E5CF8FEF80937F020895AD
:100BD000789484B5826084BD84B5816084BD85B518
:100BE000826085BD85B5816085BD80916E00816024
:100BF00080936E00109281008091810082608093CA
:100C000081008091810081608093810080918000CB
:100C10008160809380008091B10084608093B100F6
:100C20008091B00081608093B00080917A008460F0
:100C300080937A0080917A00826080937A0080911C
:100C40007A00816080937A0080917A008068809336
:100C50007A001092C100E091CD01F091CE0182E0C6
:100C60008083E091C901F091CA011082E091CB012B
:100C7000F091CC018FEC80831092D501E091D101ED
:100C8000F091D20186E08083E091CF01F091D00114
:100C9000808180618083E091CF01F091D0018081DB
:100CA00088608083E091CF01F091D00180818068DD
:100CB0008083E091CF01F091D00180818F7D80838E
:100CC00083E00E9487008091980190E00E94F200EA
:100CD00061E971E088EC90E00E94C40362E071E099
:100CE0008AEC90E00E94C4036FE871E08CEC90E025
:100CF0000E94C40360E071E08EEC90E00E94C403A7
:100D000064E971E080ED90E00E94BA0363E971E06C
:100D100081ED90E00E94BA036EE871E082ED90E010
:100D20000E94BA030E9428038FE291E00E941A03F6
:100D300094EBC92ED12CE12CF12C8091B201909131
:100D4000B3019093B1018093B0018091AE01909175
:100D5000AF019093AD018093AC012FB7F8948091CF
:100D6000B5019091B601A091B701B091B8012FBF24
:100D70004091A8015091A9016091AA017091AB0125
:100D80002C013D01441A550A660A770A8093A8018E
:100D90009093A901A093AA01B093AB018091A40103
:100DA0009091A501A091A601B091A701840D951D78
:100DB000A61DB71D8093A4019093A501A093A60141
:100DC000B093A7018091A301811106C28DEB91E040
:100DD0000E94CC0103970CF4D7C18DEB91E00E94E7
:100DE000BE018111D1C18DEB91E00E94AA018DEB72
:100DF00091E00E94AA018DEB91E00E94AA0121E0FE
:100E00002093A3016AE070E082E892E00E94B202BF
:100E100069E070E08FE792E00E94B2021092070151
:100E2000A0919101B0919201B093B301A093B2014E
:100E3000C0918F01D0919001D093AF01C093AE01CA
:100E4000B093B101A093B001D093AD01C093AC01B8
:100E500020ED37E00E94770BA70196010E94AF0AB0
:100E6000CA01B9016C507E4F8F4F9F4F82E892E0CC
:100E70000E947B0280918E01882399F020ED37E05B
:100E8000DE010E94770BA70196010E94AF0ACA01FA
:100E9000B9016C507E4F8F4F9F4F8FE792E00E94B9
:100EA0007B028FE591E00E941A0331E03093A201AA
:100EB0001092A1012FB7F8948091B5019091B601DD
:100EC000A091B701B091B8012FBF80939D0190937D
:100ED0009E01A0939F01B093A0018091A30188235C
:100EE00009F452C18091A201882309F44DC1809177
:100EF000A101811138C02FB7F8948091B50190916C
:100F0000B601A091B701B091B8012FBF40919D01EA
:100F100050919E0160919F017091A001841B950BDF
:100F2000A60BB70B89389341A105B105B8F031E0A4
:100F30003093A1010E94280388E893E1A0E0B0E08B
:100F40008093990190939A01A0939B01B0939C0187
:100F50001092980190E080E00E94F2008091A1013F
:100F6000882309F49DC2109207018091910190910C
:100F700092019093B3018093B20180918F0190917F
:100F800090019093AF018093AE0110E000E0D0E0BB
:100F9000C0E080910401882309F47FC08091990109
:100FA00090919A01A0919B01B0919C01841995099F
:100FB000A609B7098093990190939A01A0939B0188
:100FC000B0939C01181619061A061B06B4F010926D
:100FD00004011092990110929A0110929B011092B3
:100FE0009C018AE791E00E941A038091A101882365
:100FF00021F01092A2011092A1016091B0017091B4
:10100000B1012091B2013091B301261B370B409101
:10101000AC015091AD018091AE019091AF01841B64
:10102000950BF90137FF04C0EE27FF27E21BF30BF6
:1010300032977CF0E1E0F0E01216130614F0F0E0D5
:10104000E0E0232F221F2227221FDF01A21BB1096C
:101050009D01FC0197FF04C0EE27FF27E81BF90B59
:1010600032977CF0E1E0F0E01816190614F0F0E099
:10107000E0E0892F881F8827881FDF01A81BB1099E
:10108000CD01260F371F3093B3012093B201840F97
:10109000951F9093AF018093AE018091B201909122
:1010A000B301C80FD91F8091AE019091AF01080F15
:1010B000191FA0919101B0919201CA17DB0744F06A
:1010C000A0910201B0910301CA17DB070CF4DE0105
:1010D000C0918F01D09190010C171D0744F0C09171
:1010E0000001D09101010C171D070CF4E80120ED5F
:1010F00037E00E94770BA70196010E94AF0ACA0150
:10110000B9016C507E4F8F4F9F4F82E892E00E9452
:101110007B0280918E01882399F020ED37E0DE017B
:101120000E94770BA70196010E94AF0ACA01B9017C
:101130006C507E4F8F4F9F4F8FE792E00E947B0253
:101140000E9449012B013C0184E0882E912CA12CA6
:10115000B12C0E9449016419750986099709683EF6
:10116000734081059105A8F3B1E08B1A9108A1089D
:10117000B10828EE420E23E0521E611C711C81143E
:101180009104A104B10429F780E090E0892B09F4CF
:10119000D4CD0E94D801882309F4CFCD0E9400004D
:1011A000CCCD409191015091920184179507A4F004
:1011B0002091020130910301281739076CF06091EA
:1011C0009401662309F450C0281B390B420F531FAA
:1011D0005093B3014093B2018DEB91E00E94CC019A
:1011E00003970CF47ACE8DEB91E00E94AA01C82FF0
:1011F0008DEB91E00E94AA01D82F8DEB91E00E9427
:10120000AA01382E212CC1018D2B2FB7F8944091C3
:10121000B5015091B6016091B7017091B8012FBF2F
:1012200040939D0150939E0160939F017093A00194
:10123000AC2FA150BB0BFD01529770F6EE5DF64F3F
:101240000C94710BD10839095B096A097409770993
:10125000EC08EC08EC08EC08EC08EC08EC08EC08EE
:10126000EC087A098B09D3099093B3018093B201FA
:10127000B3CF40918F0150919001841795070CF4E2
:10128000ABCF2091000130910101281739070CF4F0
:10129000A3CF60919301662349F0281B390B420FBD
:1012A000531F5093AF014093AE0196CF9093AF017F
:1012B0008093AE0191CF8F3F910519F014F08FEF1D
:1012C00090E097FF02C090E080E0809398010E9438
:1012D000F20082CF9093060180930501B1E0B093B4
:1012E00007011092970178CF0E94280375CF1092C2
:1012F000040172CF85E691E00E943B038AE691E00B
:101300000E943B038EE691E00E943B0380E791E060
:101310000E941A0361CF86E791E00E943B0380910F
:101320009101909192010E943D0388E791E00E9413
:101330003B0380910201909103010E943D0388E7E5
:1013400091E00E943B0380918F01909190010E9457
:101350003D0388E791E00E943B038091000190915A
:1013600001010E943D0388E791E00E943B038091C8
:10137000940190E00E943D0388E791E00E943B03C6
:101380008091930190E00E943D0388E791E00E94E4
:101390003B0380918E0190E00E943D038AE191E041
:1013A0000E940D0319CF20918D01273088F4E22F80
:1013B000F0E0E352F64F0C94710BE409EE09F309E7
:1013C000F809FD09040A0B0A909392018093910198
:1013D0002F5F273038F520938D01FECE90930301C7
:1013E00080930201F5CF9093900180938F01F0CF0D
:1013F0009093010180930001EBCF31E0892B09F438
:1014000030E030939401E4CF31E0892B09F430E0EF
:1014100030939301DDCF31E0892B09F430E0309334
:101420008E01D6CF10928D0161E971E088EC90E0D9
:101430000E94EF0362E071E08AEC90E00E94EF030B
:101440006FE871E08CEC90E00E94EF0360E071E0E7
:101450008EEC90E00E94EF0364E971E080ED90E093
:101460000E94D80363E971E081ED90E00E94D80307
:101470006EE871E082ED90E00E94D803ADCE8091DD
:101480009301002711270C1B1D0B811101C08E0138
:10149000D0E0C0E033C0109296011092950179CD52
:1014A0008091070110E000E0882391F3809197017B
:1014B0008F5F80939701843010F010920701C091E4
:1014C0000501D09106016091950170919601072E5A
:1014D000000C880B990B0E94010B20E030E040E0EB
:1014E00050E40E943C0B181654F680919401882316
:1014F00019F0D195C195D10910E000E0A0909501B7
:10150000B09096019FEFA91AB90AB5010B2C000CF7
:10151000880B990B0E94010B20E030E040E850E47A
:101520000E943C0B87FFB7CFB0929601A092950125
:1015300030CDF999FECF92BD81BDF89A992780B53B
:101540000895262FF999FECF1FBA92BD81BD20BD07
:101550000FB6F894FA9AF99A0FBE01960895052EDF
:1015600097FB1EF400940E94C60A57FD07D00E9404
:10157000CE0A07FC03D04EF40C94C60A5095409551
:10158000309521953F4F4F4F5F4F0895909580952F
:10159000709561957F4F8F4F9F4F0895A1E21A2E4E
:1015A000AA1BBB1BFD010DC0AA1FBB1FEE1FFF1F07
:1015B000A217B307E407F50720F0A21BB30BE40B57
:1015C000F50B661F771F881F991F1A9469F760959E
:1015D0007095809590959B01AC01BD01CF01089558
:1015E000A29FB001B39FC001A39F700D811D112464
:1015F000911DB29F700D811D1124911D0895E894D5
:1016000009C097FB3EF490958095709561957F4F4A
:101610008F4F9F4F9923A9F0F92F96E9BB279395F8
:10162000F695879577956795B795F111F8CFFAF408
:10163000BB0F11F460FF1BC06F5F7F4F8F4F9F4F39
:1016400016C0882311F096E911C0772321F09EE897
:10165000872F762F05C0662371F096E8862F70E0FD
:1016600060E02AF09A95660F771F881FDAF7880FD7
:101670009695879597F908950E94410B08F48FEF8E
:101680000895990F0008550FAA0BE0E8FEEF161613
:101690001706E807F907C0F012161306E407F50766
:1016A00098F0621B730B840B950B39F40A2661F0DA
:1016B000232B242B252B21F408950A2609F4A1407D
:1016C000A6958FEF811D811D0895991B79E004C0B7
:1016D000991F961708F0961B881F7A95C9F7809571
:1016E0000895EE0FFF1F0590F491E02D09940E94DC
:1016F000F00AB7FF0895821B930B0895F894FFCF6B
:10170000B400B40001140001000000000E026E01DC
:101710009B015B02CC01AA01BE010D0A00536C6F54
:1017200077204D6F6465205374617274656400574F
:10173000616974696E6720666F722068616E647398
:1017400068616B652E2E2E2053656E6420274845F8
:101750004C4C4F2720746F20626567696E2E0052D3
:1017600045414459005645523A00424254002D002A
:10177000312E302E300053000900536C6F77204D0E
:0C1780006F64652053746F706565640031
:00000001FF
