:100000000C947B000C94A3000C94A3000C94A3000C
:100010000C94A3000C94A3000C94A3000C94A300D4
:100020000C94A3000C94A3000C94A3000C94270739
:100030000C94A3000C94A3000C94A3000C94A300B4
:100040000C9485060C94A3000C94F5060C94CF0632
:100050000C94A3000C94A3000C94A3000C94A30094
:100060000C94A3000C94A3004E414E494E495459A0
:10007000494E46CDCCCC3D0AD7233C17B7D1387773
:10008000CC2B329595E6241FB14F0A000020410089
:1000900000C84200401C4620BCBE4CCA1B0E5AAED3
:1000A000C59D740000000800020100000304070061
:1000B0000000000000000000000000250028002BC8
:1000C0000000000000240027002A000404040404A7
:1000D00004040402020202020203030303030301F5
:1000E00002040810204080010204081020010204CC
:1000F00008102000E30711241FBECFEFD8E0DEBFB9
:10010000CDBF11E0A0E0B1E0E2E5FEE202C0059063
:100110000D92A23AB107D9F722E0A2EAB1E001C0FC
:100120001D92A23BB207E1F710E0CBE7D0E004C09C
:100130002197FE010E94EB14CA37D107C9F70E942C
:100140005A080C9427170C94000090E0FC01E1522F
:10015000FF4F249185539F4FFC018491882399F090
:1001600090E0880F991FFC01EF53FF4FA591B491C8
:10017000FC01E954FF4F859194918FB7F894EC916D
:10018000E22BEC938FBF089590E0FC01ED55FF4FFB
:100190002491FC01E152FF4F3491FC01E553FF4FE4
:1001A000E491EE23C9F0222339F0233001F1A8F4C1
:1001B000213019F1223029F1F0E0EE0FFF1FE95450
:1001C000FF4FA591B4918FB7F894EC91611126C0BF
:1001D00030953E233C938FBF08952730A9F02830F7
:1001E000C9F0243049F7809180008F7D03C0809151
:1001F00080008F7780938000DFCF84B58F7784BDB8
:10020000DBCF84B58F7DFBCF8091B0008F7780935B
:10021000B000D2CF8091B0008F7DF9CF3E2BDACFE6
:10022000CF93DF93EC0183E00E94A500209731F487
:1002300060E083E0DF91CF910C94C400CF3FD10503
:1002400011F461E0F6CFE6EAF0E0E491E33029F161
:1002500040F4E130B1F0E230D9F0C038D1058CF78C
:10026000E7CFE73021F1E83051F1E430B1F7809188
:100270008000806280938000D0938B00C0938A00BE
:1002800004C084B5806884BDC7BDDF91CF91089557
:1002900084B5806284BDC8BDF8CF8091800080683D
:1002A00080938000D0938900C0938800EECF809126
:1002B000B00080688093B000C093B300E6CF809117
:1002C000B00080628093B000C093B400DECF3FB72F
:1002D000F8948091E0019091E101A091E201B09148
:1002E000E30126B5A89B05C02F3F19F00196A11D7B
:1002F000B11D3FBFBA2FA92F982F8827BC01CD0170
:10030000620F711D811D911D42E0660F771F881FCE
:10031000991F4A95D1F708952FB7F8946091DC01A1
:100320007091DD018091DE019091DF012FBF089572
:100330000895AF92BF92CF92DF92EF92FF920F9308
:100340001F93CF93DF936C017B018B01040F151F6B
:10035000EB015E01AE18BF08C017D10759F06991D3
:10036000D601ED91FC910190F081E02DC601099537
:10037000892B79F7C501DF91CF911F910F91FF90E4
:10038000EF90DF90CF90BF90AF900895FC01538D18
:10039000448D252F30E0842F90E0821B930B54175F
:1003A00010F0CF96089501970895FC01918D828DEC
:1003B000981761F0A28DAE0FBF2FB11D5D968C9185
:1003C000928D9F5F9F73928F90E008958FEF9FEFC4
:1003D00008950F931F930E948C016093EC0170931A
:1003E000ED018093EE019093EF0184EE91E00E9485
:1003F000D50197FF1DC00E948C010091EC01109166
:10040000ED012091EE013091EF01601B710B820B29
:10041000930B0091E8011091E9012091EA013091DC
:10042000EB016017710782079307F8F28FEF9FEFD8
:100430001F910F910895FC01918D828D981731F0D5
:10044000828DE80FF11D858D90E008958FEF9FEF6D
:100450000895FC01918D228D892F90E0805C9F4F43
:10046000821B91098F739927089584EE91E00E9471
:10047000290221E0892B09F420E0822F089580E0F1
:1004800090E0892B29F00E94350281110C94000024
:100490000895FC01A48DA80FB92FB11DA35ABF4F19
:1004A0002C91848D90E001968F739927848FA68973
:1004B000B7892C93A089B1898C91837080648C93C7
:1004C000938D848D981306C00288F389E02D808176
:1004D0008F7D80830895EF92FF920F931F93CF93A8
:1004E000DF93EC0181E0888F9B8D8C8D98131AC06F
:1004F000E889F989808185FF15C09FB7F894EE8956
:10050000FF896083E889F9898081837080648083B2
:100510009FBF81E090E0DF91CF911F910F91FF90FD
:10052000EF900895F62E0B8D10E00F5F1F4F0F73A5
:100530001127E02E8C8D8E110CC00FB607FCFACF60
:10054000E889F989808185FFF5CFCE010E944902B3
:10055000F1CFEB8DEC0FFD2FF11DE35AFF4FF08231
:100560009FB7F8940B8FEA89FB8980818062CFCF97
:10057000CF93DF93EC01888D8823B9F0AA89BB89DA
:10058000E889F9898C9185FD03C0808186FD0DC0C5
:100590000FB607FCF7CF8C9185FFF2CF808185FFE6
:1005A000EDCFCE010E944902E9CFDF91CF910895AE
:1005B000DC01EC91EC3090F511968C91119728E8C4
:1005C00030E0281B310987FD3395220F331F220F9E
:1005D000331F6217730784F012968C9128E532E07E
:1005E000281B310987FD3395220F331F220F331F3C
:1005F000621773070CF49B0122503109220F331F3D
:100600004FB7F8948E2F90E0FC01EE0FFF1FE80F1C
:10061000F91FEF57FD4F328321834FBF08951F937A
:10062000CF93DF93EC01162F88818C3008F04DC0FA
:10063000862F0E94A5008881282F30E0F901EE0F57
:10064000FF1FE20FF31FEF57FD4F1F736081607CA8
:10065000612B608319821A822CE0622F0E94D814C9
:10066000829FB001112430E020E0AB01420F531F04
:10067000FA01EE0FFF1FE40FF51FEF57FD4F9081BA
:1006800096FD16C02F5F3F4F2C30310571F7811159
:100690000FC01092800082E080938100109285004C
:1006A00010928400B19A80916F00826080936F00F5
:1006B000E8818E2F90E0FC01EE0FFF1FE80FF91F7D
:1006C000EF57FD4F8081806480838881DF91CF91D7
:1006D0001F910895109206018091B101609102016D
:1006E00070910301811104C06091A6017091A7016E
:1006F000072E000C880B990B0E94F6116093AC0139
:100700007093AD018093AE019093AF018091B001E1
:100710006091000170910101811104C06091A401F8
:100720007091A501072E000C880B990B0E94F61101
:100730006093A8017093A9018093AA019093AB01E3
:100740000895FC0101900020E9F73197AF01481BA3
:10075000590BBC0184EE91E00C9499018F929F9209
:10076000AF92BF920F931F93CF93DF93CDB7DEB7B6
:10077000A1970FB6F894DEBF0FBECDBF19A24230CD
:1007800008F44AE08E010F5D1F4F842E912CB12C8E
:10079000A12CA50194010E948D13E62FB901CA0175
:1007A000EA30F4F4E05DD801EE938D01232B242B85
:1007B000252B79F790E080E0109719F0CD010E9489
:1007C000A103A1960FB6F894DEBF0FBECDBFDF9197
:1007D000CF911F910F91BF90AF909F908F900895F0
:1007E000E95CE1CFCF93DF930E94A103EC0180E2AB
:1007F00091E00E94A1038C0F9D1FDF91CF9108957E
:100800000C94A103CF93DF93FC0124813581232B2A
:1008100071F0C081D1816AE370E0CE010E94E416DC
:10082000009729F08C1B9D0BDF91CF9108958FEFDE
:100830009FEFFACFCF92DF92EF92FF92CF93DF93A9
:100840006C01990FEE08FF08F7FE19C06DE284EE07
:1008500091E00E946B02EC0166277727CB016C19AF
:100860007D098E099F094AE00E94AE038C0F9D1FEF
:10087000DF91CF91FF90EF90DF90CF9008954AE005
:10088000C701B601DF91CF91FF90EF90DF90CF903D
:100890000C94AE03FC0180819181009711F00C94BF
:1008A000421060E070E0CB010895AF92BF92CF920A
:1008B000DF92EF92FF920F931F93CF93DF93DC01B0
:1008C000CD90DC901197C114D10439F01496CD91DC
:1008D000DC918C017601209761F4DF91CF911F911B
:1008E0000F91FF90EF90DF90CF90BF90AF90089561
:1008F00075015701BFEFAB1ABB0AF7018081082EC3
:10090000000C990B0E94CE11892B91F72197CC0DE9
:10091000DD1D8881082E000C990B0E94CE11892BB9
:1009200029F0CE15DF0510F02197F3CFAE014F5F10
:100930005F4F4E195F09D80115965C934E9314973B
:10094000CE14DF0420F4B701C6010E94DB16D801E3
:10095000ED91FC91119714968D919C91E80FF91FE0
:100960001082BBCFFB0144815581FC01248135817C
:100970002417350778F080819181009759F0FB01A9
:10098000608171816115710529F00E94FF1621E0D7
:10099000892B09F020E0822F0895EF92FF920F93A8
:1009A0001F93CF93DF938617970769F1FC0124818A
:1009B0003581FB014481558124173507E1F4232B50
:1009C00011F1FC0100811181FB01C081D181F8018D
:1009D00081918F018823B9F0082E000C990B0E9499
:1009E000D3167C018991082E000C990B0E94D31616
:1009F000E816F90661F380E0DF91CF911F910F9126
:100A0000FF90EF90089581E0F7CFFC0124813581BC
:100A1000232B39F421E0FB018081882349F020E079
:100A200007C0808191810E94EF1621E0892BB9F7E0
:100A3000822F08950F931F93CF93DF938C01EB01C7
:100A400086179707D1F0FC01808191810097E9F02A
:100A50006881798161157105B1F0428153812C81E2
:100A60003D814217530778F00E94F8168C819D81D2
:100A7000F801958384831D821C82C801DF91CF9188
:100A80001F910F9108950E948D1588819981F80119
:100A9000918380838A819B81938382838C819D81D2
:100AA00095838483198218821B821A82E4CFCF93A4
:100AB000DF93EC0188819981009711F00E948D15D8
:100AC000198218821D821C821B821A82DF91CF91AB
:100AD0000895FC0180819181009711F00C948D158F
:100AE00008950F931F93CF93DF93EC018881998131
:100AF000009759F02A813B812617370730F081E0B3
:100B0000DF91CF911F910F9108958B016F5F7F4F00
:100B10000E941616009759F0998388831B830A83D5
:100B20002C813D81232B59F7FC011082E8CF80E016
:100B3000E7CFEF92FF920F931F93CF93DF93EC01D8
:100B40007B01198218821B821A821D821C82FB0182
:100B500001900020E9F731978F01061B170BB801B0
:100B60000E947105811109C0CE01DF91CF911F91C3
:100B70000F91FF90EF900C9457051D830C83B701E4
:100B800088819981DF91CF911F910F91FF90EF9014
:100B90000C94F8169F92AF92BF92CF92DF92EF9291
:100BA000FF920F931F93CF93DF937C016B015A0148
:100BB00089012417350720F48B2D5901042F182F94
:100BC00069E671E0C7010E949905D6011496CD919E
:100BD000DC91AC16BD0650F50C171D0708F4E801B2
:100BE000D601ED91FC911197EC0FFD1F90801082C2
:100BF0000D911C910A0D1B1D0115110571F0F801D5
:100C000001900020E9F731975F01A01AB10AB50100
:100C1000C7010E947105811116C0C7010E945705C6
:100C2000D6018D919C91C80FD91F9882C701DF9181
:100C3000CF911F910F91FF90EF90DF90CF90BF90D9
:100C4000AF909F900895F701B582A482B80180818A
:100C500091810E94F816E4CFCF93DF93EB010E94BD
:100C600016138883CE01DF91CF9108950F931F93C0
:100C7000CF93DF938C01EB010E9416138883C80188
:100C800001960E9416138983CE01DF91CF911F91A7
:100C90000F910895FF920F931F93CF93DF938C01D1
:100CA000EB01F8800E941613F81621F06F2DC80191
:100CB0000E941E13CE01DF91CF911F910F91FF90E3
:100CC0000895FF920F931F93CF93DF93EC018B0155
:100CD000FB01F0800E941613F81621F06F2DCE0153
:100CE0000E941E13F801F1802196CE010E94161376
:100CF000F81621F06F2DCE010E941E13C801DF915E
:100D0000CF911F910F91FF9008951F920F920FB6F0
:100D10000F9211242F933F938F939F93AF93BF9381
:100D20008091DC019091DD01A091DE01B091DF01A5
:100D30003091DB0123E0230F2D3758F50196A11DDB
:100D4000B11D2093DB018093DC019093DD01A09322
:100D5000DE01B093DF018091E0019091E101A0916B
:100D6000E201B091E3010196A11DB11D8093E00164
:100D70009093E101A093E201B093E301BF91AF91A1
:100D80009F918F913F912F910F900FBE0F901F90C9
:100D9000189526E8230F0296A11DB11DD2CF1F92F0
:100DA0000F920FB60F9211242F933F934F935F939F
:100DB0006F937F938F939F93AF93BF93EF93FF9323
:100DC00084EE91E00E944902FF91EF91BF91AF91B3
:100DD0009F918F917F916F915F914F913F912F9153
:100DE0000F900FBE0F901F9018951F920F920FB685
:100DF0000F9211242F938F939F93EF93FF93E09182
:100E0000F401F091F5018081E091FA01F091FB018C
:100E100082FD1BC090818091FD018F5F8F732091B7
:100E2000FE01821741F0E091FD01F0E0EC51FE4F30
:100E3000958F8093FD01FF91EF919F918F912F915D
:100E40000F900FBE0F901F9018958081F4CF1F92C6
:100E50000F920FB60F9211242F933F934F935F93EE
:100E60006F937F938F939F93AF93BF93CF93DF93B2
:100E7000EF93FF938091A201C091A502D0E087FF7C
:100E800024C010928500109284008091A2018F5F8F
:100E90008093A2018091A201082E000C990B8C175F
:100EA0009D0724F48091A2018C30C4F180918400CC
:100EB00090918500049680349C4908F47AC0809112
:100EC000840090918500049676C08091A201082E3E
:100ED000000C990B8C179D07C4F6E091A2018E2F90
:100EE000EE0F990BFC01EE0FFF1FE80FF91FEF57F4
:100EF000FD4F808186FFC9CFE091A2018E2FEE0FBA
:100F0000990BFC01EE0FFF1FE80FF91FEF57FD4F84
:100F1000808160E08F730E94C400B7CF209184006D
:100F200030918500E091A2018E2FEE0F990BFC010C
:100F3000EE0FFF1FE80FF91FEF57FD4F81819281E0
:100F4000820F931F9093890080938800E091A20103
:100F50008E2FEE0F990BFC01EE0FFF1FE80FF91F0C
:100F6000EF57FD4F808186FF11C0E091A2018E2FC7
:100F7000EE0F990BFC01EE0FFF1FE80FF91FEF5763
:100F8000FD4F808161E08F730E94C400FF91EF915B
:100F9000DF91CF91BF91AF919F918F917F916F9191
:100FA0005F914F913F912F910F900FBE0F901F9027
:100FB000189580E49CE990938900809388008FEFD6
:100FC0008093A201E3CF1092E7011092E60188EE30
:100FD00093E0A0E0B0E08093E8019093E901A09352
:100FE000EA01B093EB0182E191E09093E5018093F7
:100FF000E40185EC90E09093F1018093F00184ECA2
:1010000090E09093F3018093F20180EC90E0909354
:10101000F5018093F40181EC90E09093F7018093C7
:10102000F60182EC90E09093F9018093F80186EC50
:1010300090E09093FB018093FA011092FD011092D1
:10104000FE011092FF01109200028091A5028C30E7
:1010500048F591E0980F9093A5028093A90290E043
:10106000FC01EE0FFF1FE80FF91FEF57FD4F88EB54
:101070009BE0928381838091A5028C30B8F491E04B
:10108000980F9093A5028093A60290E0FC01EE0FCA
:10109000FF1FE80FF91FEF57FD4F88EB9BE092838E
:1010A000818308958FEF8093A902E5CF8FEF80931E
:1010B000A6020895CF93DF93CDB7DEB7C454D1090C
:1010C0000FB6F894DEBF0FBECDBF789484B58260B2
:1010D00084BD84B5816084BD85B5826085BD85B5DC
:1010E000816085BD80916E00816080936E0010925A
:1010F00081008091810082608093810080918100D5
:101100008160809381008091800081608093800065
:101110008091B10084608093B1008091B0008160C3
:101120008093B00080917A00846080937A008091EF
:101130007A00826080937A0080917A008160809347
:101140007A0080917A00806880937A001092C100C2
:10115000E091F401F091F50182E08083E091F001EB
:10116000F091F1011082E091F201F091F3018FEC26
:1011700080831092FC01E091F801F091F90186E082
:101180008083E091F601F091F70180818061808396
:10119000E091F601F091F701808188608083E09111
:1011A000F601F091F701808180688083E091F6017B
:1011B000F091F70180818F7D808383E00E94A500FC
:1011C0008091B70190E00E94100160E08AE00E94E7
:1011D000C40060E089E00E94C40066EA71E088EC27
:1011E00090E00E94360662E071E08AEC90E00E9496
:1011F000360664EA71E08CEC90E00E94360660E00E
:1012000071E08EEC90E00E94360661EB71E080EDBB
:1012100090E00E942C0660EB71E081ED90E00E946E
:101220002C0663EA71E082ED90E00E942C060E9499
:101230006A0383E291E00E94F203CE0101961C0151
:101240003E019BE2690E711C0E948C010091D70146
:101250001091D8012091D9013091DA016B017C0104
:10126000C01AD10AE20AF30A970186016093D701F6
:101270007093D8018093D9019093DA018091D301C2
:101280009091D401A091D501B091D601800F911F0A
:10129000A21FB31F8093D3019093D401A093D501D3
:1012A000B093D60180910701882359F18091CF0135
:1012B0009091D001A091D101B091D201801B910BEE
:1012C000A20BB30B8093CF019093D001A093D101D7
:1012D000B093D201181619061A061B0694F0109244
:1012E00007011092CF011092D0011092D1011092FB
:1012F000D2018091CE01882321F01092CE0110926C
:10130000CD0184EE91E00E942902181619060CF016
:10131000FCC369E671E0CE01C7960E9499050E9460
:10132000E90197FD1CC08A309105C9F089831A82B2
:101330000BAD1CAD0F5F1F4FB801CE01C7960E94C9
:101340007105882361F32FA938AD8BAD9CADB10138
:10135000820F931F0E94F8161CAF0BAFE0CFCE0197
:10136000C7960E9455048BAD9CAD892B29F4CE0104
:10137000C7960E946905C5CF63E571E0C1010E946F
:101380009905B101CE01C7960E94CD04182FC10165
:101390000E946905112309F435C18091CC018111A6
:1013A00090C081E08093CC016AE070E089EA92E02D
:1013B0000E940F0369E070E086EA92E00E940F034A
:1013C0008091B1016091020170910301811104C00B
:1013D0006091A6017091A701072E000C880B990B54
:1013E0000E94F6116093AC017093AD018093AE0141
:1013F0009093AF018091B001609100017091010163
:10140000811104C06091A4017091A501072E000C08
:10141000880B990B0E94F6116093A8017093A901A3
:101420008093AA019093AB01C090A801D090A9012C
:10143000E090AA01F090AB016091AC017091AD0118
:101440008091AE019091AF010E949D14DB0120EDCF
:1014500037E00E94E41424EB30E040E050E00E94CA
:101460002C13CA01B9016C507E4F8F4F9F4F89EAF0
:1014700092E00E94D8028091A3018823C9F0C7019D
:10148000B6010E949D14DB0120ED37E00E94E414B8
:1014900024EB30E040E050E00E942C13CA01B90177
:1014A0006C507E4F8F4F9F4F86EA92E00E94D80289
:1014B00089E591E00E94F20381E08093CD011092D2
:1014C000CE0168E771E0C1010E949905B101CE012A
:1014D000C7960E94CD0411E0811111C06CE771E044
:1014E000C3010E949905B301CE01C7960E94CD04A5
:1014F00011E0811101C010E0C3010E946905C10122
:101500000E946905112381F084E891E00E940004A3
:1015100089E891E00E9400048EE691E00E940004B8
:101520008DE891E00E94F20363E971E0C1010E943D
:101530009905B101CE01C7960E94B20411E0811154
:1015400011C067E971E0C3010E949905B301CE01A2
:10155000C7960E94B20411E0811101C010E0C301DE
:101560000E946905C1010E946905112309F4FFCE9B
:10157000CE01C7960E9402042BAD3CADAC014F5F7B
:101580005F4F97FF02C042E050E0BE01695C7F4FB1
:10159000C1010E94CA05C1010E9455048D819E812E
:1015A000892B61F1C1010E944A046F3F710519F056
:1015B00014F06FEF70E0CB0177FF02C090E080E0A5
:1015C0008093B7010E9410010E948C016093C801B2
:1015D0007093C9018093CA019093CB018AE991E08D
:1015E0000E9400046091B70170E090E080E04AE062
:1015F0000E94AE0380E291E00E94A103C1010E941B
:101600006905B5CE6FE571E0C1010E949905B10190
:10161000CE01C7960E94CD04182FC1010E94690512
:10162000112309F44BC081E08093CC0182E791E063
:101630000E9400048091A6019091A7010E941A04C3
:1016400088E691E00E9400048091020190910301DC
:101650000E941A0488E691E00E9400048091A4018F
:101660009091A5010E941A0488E691E00E9400046E
:1016700080910001909101010E941A0488E691E096
:101680000E9400048091B10190E00E941A0488E653
:1016900091E00E9400048091B00190E00E941A0441
:1016A00088E691E00E9400048091A30190E00E94EE
:1016B0001A0480E291E00E94A10303CF6AE671E080
:1016C000C1010E949905B101CE01C7960E94B204E2
:1016D000182FC1010E946905112309F405C12BAD22
:1016E0003CAD43E050E0BE01695C7F4FCE01C19646
:1016F0000E94CA055101810169E671E0C8010E949A
:1017000099050A5F1F4F60167106B1F76EE671E02A
:10171000C3010E9499058DA99EA9892B61F0E9A8B2
:10172000FAA86BA57CA5C7010E940D178C010E19A4
:101730001F09892B11F40FEF1FEFC3010E946905E8
:10174000F12CE12CD12CC12C0F3F1007D9F186E0F0
:10175000C816D104B9F19801A701BE016F5C7F4F93
:10176000C3010E94CA059FEFC91AD90AB301C50176
:101770000E941A05C3010E9469057801AFEFEA1AB9
:10178000FA0A6EE671E0C3010E9499058DA99EA92F
:10179000E816F90670F489A89AA86BA57CA5C4017F
:1017A0008E0D9F1D0E940D178C0108191909892B98
:1017B00011F40FEF1FEFC3010E946905B6E0AB0EF5
:1017C000B11CC2CF2DA93EA9A701BE016F5C7F4FFE
:1017D000C3010E94CA0526E02C9DC0012D9D900DDD
:1017E0001124B301820D931D0E941A05C3010E94AA
:1017F0006905C1010E944A047093A7016093A60184
:10180000CE0107960E944A0470930301609302017F
:10181000CE010D960E944A047093A5016093A40125
:10182000CE0143960E944A04709301016093000127
:10183000CE0149960E944A0421E0672B682B692B50
:1018400009F420E02093B101CE014F960E944A0492
:1018500021E0672B682B692B09F420E02093B0016D
:10186000CE0185960E944A0421E0672B682B692BE4
:1018700009F420E02093A30166EA71E088EC90E08F
:101880000E94610662E071E08AEC90E00E946106CD
:1018900064EA71E08CEC90E00E94610660E071E027
:1018A0008EEC90E00E94610661EB71E080ED90E0CB
:1018B0000E944A0660EB71E081ED90E00E944A06CA
:1018C00063EA71E082ED90E00E944A0683010650CF
:1018D0001109C8010E94690520163106C1F7CE0121
:1018E000C1960E946905EDCD60E771E0C1010E94DB
:1018F0009905B101CE01C7960E94B204182FC1010B
:101900000E946905112311F12BAD3CAD43E050E07D
:10191000BE01695C7F4FC1010E94CA05C1010E94DE
:101920004A04709305016093040181E080930601ED
:101930000E948C016093C8017093C9018093CA0111
:101940009093CB011092B601C101CBCFCE01C796C7
:101950000E9402048C01181619060CF0B2CD9C01ED
:1019600050E040E0BE01695C7F4FC3010E94CA05A0
:101970002BAD3CADA8014F5F5F4FBE01695C7F4F4F
:10198000C1010E94CA0589819A81C12CD12C76019E
:10199000009721F00E943E106B017C0164E771E02A
:1019A000C3010E940505882391F16091A601709101
:1019B000A701072E000C880B990B0E94F611A701B6
:1019C00096010E94EF11181614F1609102017091B6
:1019D0000301072E000C880B990B0E94F611A7013A
:1019E00096010E94D31487FD12C0C092AC01D09220
:1019F000AD01E092AE01F092AF010E948C016093C4
:101A0000C8017093C9018093CA019093CB016AE722
:101A100071E0C3010E940505882391F16091A40142
:101A20007091A501072E000C880B990B0E94F611EE
:101A3000A70196010E94EF11181614F160910001A0
:101A400070910101072E000C880B990B0E94F61172
:101A5000A70196010E94D31487FD12C0C092A8016D
:101A6000D092A901E092AA01F092AB010E948C01F0
:101A70006093C8017093C9018093CA019093CB0110
:101A800062E771E0C3010E940505882389F181E0C6
:101A9000809307018091C4019091C501A091C60176
:101AA000B091C7018093C0019093C101A093C2017E
:101AB000B093C3018091BC019091BD01A091BE0182
:101AC000B091BF018093B8019093B901A093BA017E
:101AD000B093BB0120EDC22E27E0D22EE12CF12CD9
:101AE000C092CF01D092D001E092D101F092D20108
:101AF00066E771E0C3010E9405058111109207019C
:101B0000C1010E946905C301ECCE8091CC018823FC
:101B100009F44EC28091CD01882309F449C20E9484
:101B20008C010091C8011091C9012091CA01309126
:101B3000CB01601B710B820B930B693873418105DC
:101B40009105E8F18091CE01811139C081E0809347
:101B5000CE018093070180ED97E0A0E0B0E0809394
:101B6000CF019093D001A093D101B093D201809185
:101B7000C4019091C501A091C601B091C7018093A5
:101B8000C0019093C101A093C201B093C3018091A1
:101B9000BC019091BD01A091BE01B091BF018093A5
:101BA000B8019093B901A093BA01B093BB010E9410
:101BB0006A031092B70190E080E00E941001109239
:101BC000C4011092C5011092C6011092C701109273
:101BD000BC011092BD011092BE011092BF01809114
:101BE000CE01811111C1809106018823A9F1809154
:101BF000B6018F5F8093B601843010F01092060119
:101C0000009104011091050120E030E040E050E433
:101C10006091B2017091B3018091B4019091B501CE
:101C20000E94D31418160CF0D5C18091B1018823FD
:101C300009F4CBC166277727601B710B072E000CB8
:101C4000880B990B0E94F6116093C4017093C50133
:101C50008093C6019093C7012091AC013091AD01F2
:101C60004091AE015091AF016091C4017091C501E6
:101C70008091C6019091C7010E94BF1321966CAF5D
:101C80007DAF8EAF9FAF21976093C4017093C50164
:101C90008093C6019093C7012091A8013091A901BA
:101CA0004091AA015091AB016091BC017091BD01BE
:101CB0008091BE019091BF010E94BF136B017C0116
:101CC000C092BC01D092BD01E092BE01F092BF0172
:101CD00020E030E040E85FE36091B2017091B30131
:101CE0008091B4019091B5010E94BF134B015C013A
:101CF00020E030E040E850E40E94D31487FF86C122
:101D00008092B2019092B301A092B401B092B50159
:101D10006091020170910301072E000C880B990B52
:101D20000E94F6114B015C01AC019B0121966CAD48
:101D30007DAD8EAD9FAD21970E94D314181644F44B
:101D40008092C4019092C501A092C601B092C701D1
:101D50006091A6017091A701072E000C880B990BCA
:101D60000E94F6114B015C012091C4013091C50124
:101D70004091C6015091C7010E94D314181644F433
:101D80008092C4019092C501A092C601B092C70191
:101D90006091000170910101072E000C880B990BD6
:101DA0000E94F6114B015C01AC019B01C701B60119
:101DB0000E94D314181644F48092BC019092BD0185
:101DC000A092BE01B092BF016091A4017091A501E3
:101DD000072E000C880B990B0E94F6116B017C01F9
:101DE0002091BC013091BD014091BE015091BF01D5
:101DF0000E94D314181644F4C092BC01D092BD01C5
:101E0000E092BE01F092BF0180910701882309F49E
:101E100011C16091CF017091D0018091D101909159
:101E2000D2010E94F61120E030E04AEF54E40E9413
:101E30002B146B017C018091C0019091C101A09194
:101E4000C201B091C30125968CAF9DAFAEAFBFAFBD
:101E500025978091AC019091AD01A091AE01B09118
:101E6000AF0121968CAF9DAFAEAFBFAF219720E001
:101E700030E0A901C701B6010E94EF1187FDCFC074
:101E800020E030E040E85FE3C701B6010E94D314D0
:101E900018160CF4C8C08090A8019090A901A090D9
:101EA000AA01B090AB0121962CAD3DAD4EAD5FAD1A
:101EB000219725966CAD7DAD8EAD9FAD25970E9487
:101EC000BE13A70196010E94551221962CAD3DAD7F
:101ED0004EAD5FAD21970E94BF130E949D14DB01A0
:101EE00020ED37E00E94E41424EB30E040E050E0C5
:101EF0000E942C1389019A010C501E4F2F4F3F4F07
:101F0000A50194016091B8017091B9018091BA0165
:101F10009091BB010E94BE13A70196010E94551229
:101F2000A50194010E94BF130E949D14DB0120EDC6
:101F300037E00E94E41424EB30E040E050E00E94DF
:101F40002C132C503E4F4F4F5F4F7901B80189EA57
:101F500092E00E94D8028091A301882329F0B70162
:101F600086EA92E00E94D8020E9467016B017C0120
:101F700084E0882E912CA12CB12C0E9467016C1951
:101F80007D098E099F09683E734081059105A8F37C
:101F900091E0891A9108A108B108A8EECA0EA3E041
:101FA000DA1EE11CF11C81149104A104B10429F78B
:101FB00080E090E0892B09F447C90E94350288230C
:101FC00009F43EC90E94000038C9B801110F880BFE
:101FD000990B38CE8091B001882399F06627772736
:101FE000601B710B072E000C880B990B0E94F611D9
:101FF0006093BC017093BD018093BE019093BF01BB
:102000002BCEB801110F880B990BF0CF1092B201B3
:102010001092B3011092B4011092B50179CEC12C87
:10202000D12C760138CFC12CD12C90E8E92E9FE33A
:10203000F92E31CF6091C4017091C5018091C60124
:102040009091C7010E949D14DB0120ED37E00E94B2
:10205000E41424EB30E040E050E00E942C138901AE
:102060009A010C501E4F2F4F3F4F6091BC01709151
:10207000BD018091BE019091BF0156CF66277727A1
:102080000C947E101F93FC0199278827BC01E894CB
:1020900011911032E9F3193010F01E30C8F31B32E1
:1020A00051F01D3249F4689406C00E946910610F16
:1020B000711D811D911D119110531A30B0F33EF422
:1020C00090958095709561957F4F8F4F9F4F1F9191
:1020D0000895592F482F372F262F660F771F881FF7
:1020E000991F660F771F881F991F620F731F841F28
:1020F000951F660F771F881F991F0895B0E0A0E015
:10210000E4E8F0E10C945C135C017B01611571055E
:1021100019F0DB018D939C9385010F5F1F4FF50133
:10212000D0818D2F90E00E94CE116C01892BB9F5E2
:10213000DD32B9F50F5F1F4FD5011196DC91C1E07B
:102140005801F1E0AF1AB10843E050E060E770E0F9
:10215000C5010E94D711892B69F5680182E0C80E7C
:10216000D11C45E050E06BE670E0C6010E94D7113B
:10217000892B21F4680197E0C90ED11CE114F10408
:1021800019F0D701CD92DC9260E070E080E89FEF1B
:10219000C111FFC060E070E080E89FE7FAC058011D
:1021A000BBCFDB3229F485010E5F1F4FF501D181D2
:1021B000C0E0C6CF43E050E068E670E0C5010E9491
:1021C000D711892BE9F0F80110E000E020E030E0C1
:1021D000A9015F01B0ED8B2E8D0E89E08815C8F145
:1021E0009C2E689491F88C2F8870C2FF16C08111C4
:1021F00002C00F5F1F4F3196D501DC91C92DE9CF89
:10220000E114F10429F00E5F1F4FF70111830083E1
:1022100060E070E080EC9FE7BCC0882311F00150C3
:102220001109A5E0B0E00E944B139B01AC01220F05
:10223000331F441F551F280D311D411D511D2839C5
:1022400099E93907490799E15907A8F2C6609C2E18
:10225000D2CFAEEF8A1206C0C3FD3CC09C2E68945C
:1022600093F8C9CFDF7DD534A9F580818D3239F45B
:10227000C061DF011296818162E070E006C0DF017B
:102280008B32C1F3119661E070E080535D01A61AB4
:10229000B70A8A30F8F4E0E8CE16ECE0DE065CF42B
:1022A000B601660F771F660F771FC60ED71ECC0CC0
:1022B000DD1CC80ED11C5D01FFEFAF1ABF0A8C9167
:1022C00080538A30A8F1C4FF03C0D194C194D108CF
:1022D0000C0D1D1DC1FF09C0E114F10431F081E0B6
:1022E000A81AB108D701AD92BC92CA01B9010E94E7
:1022F000F411C370C33009F490584B015C0120E025
:1023000030E0A9010E94EF11882309F440C0CFE911
:10231000D0E017FF05C0119501951109C7E8D0E07D
:102320006E01B8E1CB1AD10880E2E82EF12C0FC083
:10233000D501B1CFFE0125913591459154910E19EA
:102340001F09C501B4010E9455124B015C01D50162
:10235000C4010E151F0574F72497F594E794CC1665
:10236000DD06A9F78A2F880F8B2F881F8F3F49F032
:1023700020E030E0A901C501B4010E94EF118111F4
:1023800006C082E290E09093AD028093AC02C5015A
:10239000B401CDB7DEB7ECE00C94781391110C9436
:1023A000C212803219F089508550C8F70895FB0198
:1023B000DC014150504088F08D9181341CF08B3508
:1023C0000CF4805E659161341CF06B350CF4605E3A
:1023D000861B611171F3990B0895881BFCCF0E9435
:1023E000311208F481E00895E89409C097FB3EF4A7
:1023F00090958095709561957F4F8F4F9F4F992352
:10240000A9F0F92F96E9BB279395F69587957795CF
:102410006795B795F111F8CFFAF4BB0F11F460FF8F
:102420001BC06F5F7F4F8F4F9F4F16C0882311F0E7
:1024300096E911C0772321F09EE8872F762F05C0FB
:10244000662371F096E8862F70E060E02AF09A9596
:10245000660F771F881FDAF7880F9695879597F98B
:102460000895990F0008550FAA0BE0E8FEEF161625
:102470001706E807F907C0F012161306E407F50778
:1024800098F0621B730B840B950B39F40A2661F0EC
:10249000232B242B252B21F408950A2609F4A1408F
:1024A000A6958FEF811D811D08950E9468120C94DE
:1024B000DC120E94CE1238F00E94D51220F0952333
:1024C00011F00C94C5120C94CB1211240C9410131F
:1024D0000E94ED1270F3959FC1F3950F50E0551FC8
:1024E000629FF001729FBB27F00DB11D639FAA2769
:1024F000F00DB11DAA1F649F6627B00DA11D661FB8
:10250000829F2227B00DA11D621F739FB00DA11DD8
:10251000621F839FA00D611D221F749F3327A00D92
:10252000611D231F849F600D211D822F762F6A2F2E
:1025300011249F5750409AF0F1F088234AF0EE0F93
:10254000FF1FBB1F661F771F881F91505040A9F7C0
:102550009E3F510580F00C94C5120C9410135F3F00
:10256000E4F3983ED4F3869577956795B795F795FC
:10257000E7959F5FC1F7FE2B880F911D9695879574
:1025800097F9089599278827089597F99F6780E814
:1025900070E060E008959FEF80EC089500240A94B5
:1025A0001616170618060906089500240A9412162E
:1025B0001306140605060895092E0394000C11F461
:1025C000882352F0BB0F40F4BF2B11F460FF04C00E
:1025D0006F5F7F4F8F4F9F4F089557FD9058440F67
:1025E000551F59F05F3F71F04795880F97FB991F72
:1025F00061F09F3F79F0879508951216130614062F
:10260000551FF2CF4695F1DF08C0161617061806BB
:10261000991FF1CF86957105610508940895E89496
:10262000BB2766277727CB0197F90895F999FECF45
:1026300092BD81BDF89A992780B50895262FF99902
:10264000FECF1FBA92BD81BD20BD0FB6F894FA9A95
:10265000F99A0FBE01960895052E97FB1EF400947B
:102660000E94431357FD07D00E948D1307FC03D02F
:102670004EF40C94431350954095309521953F4F5F
:102680004F4F5F4F089590958095709561957F4F5E
:102690008F4F9F4F08950E94AF13A59F900DB49F39
:1026A000900DA49F800D911D112408952F923F92AB
:1026B0004F925F926F927F928F929F92AF92BF9252
:1026C000CF92DF92EF92FF920F931F93CF93DF93FE
:1026D000CDB7DEB7CA1BDB0B0FB6F894DEBF0FBE5B
:1026E000CDBF09942A88398848885F846E847D84A8
:1026F0008C849B84AA84B984C884DF80EE80FD80AA
:102700000C811B81AA81B981CE0FD11D0FB6F8941F
:10271000DEBF0FBECDBFED010895A1E21A2EAA1BA8
:10272000BB1BFD010DC0AA1FBB1FEE1FFF1FA21781
:10273000B307E407F50720F0A21BB30BE40BF50B7E
:10274000661F771F881F991F1A9469F76095709507
:10275000809590959B01AC01BD01CF010895A29F8A
:10276000B001B39FC001A39F700D811D1124911D65
:10277000B29F700D811D1124911D08955058BB27E3
:10278000AA270E94D6130C94DC120E94CE1238F0B5
:102790000E94D51220F039F49F3F19F426F40C94CE
:1027A000CB120EF4E095E7FB0C94C512E92F0E94C2
:1027B000ED1258F3BA17620773078407950720F0E4
:1027C00079F4A6F50C940F130EF4E0950B2EBA2FA6
:1027D000A02D0B01B90190010C01CA01A001112427
:1027E000FF27591B99F0593F50F4503E68F11A16D3
:1027F000F040A22F232F342F4427585FF3CF469564
:1028000037952795A795F0405395C9F77EF41F1685
:10281000BA0B620B730B840BBAF09150A1F0FF0F4F
:10282000BB1F661F771F881FC2F70EC0BA0F621F3B
:10283000731F841F48F4879577956795B795F7952B
:102840009E3F08F0B0CF9395880F08F09927EE0FC0
:102850009795879508950E943F140C94DC120E946E
:10286000D51258F00E94CE1240F029F45F3F29F0B3
:102870000C94C51251110C9410130C94CB120E949D
:10288000ED1268F39923B1F3552391F3951B550B82
:10289000BB27AA2762177307840738F09F5F5F4F33
:1028A000220F331F441FAA1FA9F335D00E2E3AF072
:1028B000E0E832D091505040E695001CCAF72BD08A
:1028C000FE2F29D0660F771F881FBB1F26173707DB
:1028D0004807AB07B0E809F0BB0B802DBF01FF270D
:1028E00093585F4F3AF09E3F510578F00C94C51213
:1028F0000C9410135F3FE4F3983ED4F386957795DC
:102900006795B795F7959F5FC9F7880F911D9695C5
:10291000879597F90895E1E0660F771F881FBB1F21
:10292000621773078407BA0720F0621B730B840BCE
:10293000BA0BEE1F88F7E09508950E94A4146894DE
:10294000B1110C94101308950E94F51288F09F574E
:1029500098F0B92F9927B751B0F0E1F0660F771FC3
:10296000881F991F1AF0BA95C9F714C0B13091F0B9
:102970000E940F13B1E008950C940F13672F782F66
:102980008827B85F39F0B93FCCF38695779567957E
:10299000B395D9F73EF490958095709561957F4FEA
:1029A0008F4F9F4F08950E94311208F48FEF0895C2
:1029B000991B79E004C0991F961708F0961B881F91
:1029C0007A95C9F7809508950E94AF13B7FF0895CF
:1029D000821B930B0895EE0FFF1F0590F491E02DDD
:1029E00009940F931F93CF93DF938230910510F4D6
:1029F00082E090E0E091B002F091B10230E020E09E
:102A0000B0E0A0E0309799F42115310509F44AC0EF
:102A1000281B390B24303105D8F58A819B8161153B
:102A2000710589F1FB0193838283FE0111C040810E
:102A300051810281138148175907E0F0481759075F
:102A400099F4109761F012960C93129713961C93B9
:102A50003296CF01DF91CF911F910F91089500938E
:102A6000B0021093B102F4CF2115310551F0421795
:102A7000530738F0A901DB019A01BD01DF01F8011C
:102A8000C1CFEF01F9CF9093B1028093B002CDCFC7
:102A9000FE01E20FF31F8193919322503109398394
:102AA0002883D7CF2091AE023091AF02232B41F47F
:102AB00020910A0130910B013093AF022093AE02B6
:102AC00020910801309109012115310541F42DB7FC
:102AD0003EB740910C0150910D01241B350BE09144
:102AE000AE02F091AF02E217F307A0F42E1B3F0BEA
:102AF0002817390778F0AC014E5F5F4F2417350770
:102B000048F04E0F5F1F5093AF024093AE02819387
:102B100091939FCFF0E0E0E09CCFCF93DF930097BD
:102B2000E9F0FC01329713821282A091B002B091B9
:102B3000B102ED0130E020E01097A1F42081318155
:102B4000820F931F2091AE023091AF0228173907F0
:102B500009F061C0F093AF02E093AE02DF91CF9134
:102B60000895EA01CE17DF07E8F54A815B819E01EF
:102B700041155105B1F7E901FB83EA834991599168
:102B8000C40FD51FEC17FD0761F480819181029677
:102B9000840F951FE90199838883828193819B83A8
:102BA0008A83F0E0E0E012968D919C911397009754
:102BB000B9F52D913C911197CD010296820F931F8B
:102BC0002091AE023091AF022817390739F63097BD
:102BD00051F51092B1021092B002B093AF02A093DF
:102BE000AE02BCCFD383C28340815181840F951F35
:102BF000C817D90761F44E5F5F4F88819981480FEC
:102C0000591F518340838A819B819383828321153D
:102C1000310509F0B0CFF093B102E093B0029ECF3E
:102C2000FD01DC01C0CF13821282D7CFB0E0A0E05B
:102C3000ECE1F6E10C9458138C01009751F4CB01B0
:102C40000E94F1148C01C801CDB7DEB7E0E10C940D
:102C50007413FC01E60FF71F9C0122503109E217A3
:102C6000F30708F49DC0D901CD91DC911197C617E7
:102C7000D70798F0C530D10530F3CE0104978617F9
:102C8000970708F3C61BD70B2297C193D1936D9377
:102C90007C93CF010E948D15D6CF5B01AC1ABD0A83
:102CA0004C018C0E9D1EA091B002B091B102512C2E
:102CB000412CF12CE12C109731F58091AE029091CE
:102CC000AF028815990509F05CC04616570608F052
:102CD00058C08091080190910901009741F48DB787
:102CE0009EB740910C0150910D01841B950BE81784
:102CF000F90708F055C0F093AF02E093AE02F90176
:102D000071836083A0CF8D919C91119712966C90E6
:102D1000129713967C901397A815B90559F56C0175
:102D200042E0C40ED11CCA14DB0420F1AC014A19E4
:102D30005B09DA011296159780F0628273825183E3
:102D40004083D9016D937C93E114F10471F0D701B4
:102D50001396FC93EE93129776CF22968C0F9D1FBD
:102D6000F90191838083F301EFCFF093B102E093F7
:102D7000B00269CF4816590608F42C017D01D30131
:102D80009ACFCB010E94F1147C01009749F0AE016B
:102D9000B8010E94DB16C8010E948D15870153CF30
:102DA00010E000E050CF9111089581548A5108F449
:102DB000805E855A0895FB01DC0102C001900D92EE
:102DC00041505040D8F70895FC018191861721F0B9
:102DD0008823D9F7992708953197CF010895FB01EA
:102DE000DC018D91019080190110D9F3990B0895A0
:102DF000FB01DC0101900D920020E1F70895FB0139
:102E0000DC014150504030F08D910190801919F44F
:102E10000020B9F7881B990B0895FB0151915523A8
:102E2000A9F0BF01DC014D9145174111E1F759F4BB
:102E3000CD010190002049F04D9140154111C9F399
:102E4000FB014111EFCF81E090E001970895F894E4
:022E5000FFCFB2
:102E5200B400B400140001010000B20280000000BE
:102E620000006B029901C601B8022902D5011B02BA
:102E72000D0A0057616974696E6720666F72206877
:102E8200616E647368616B652E2E2E2053656E64CD
:102E9200202748454C4C4F2720746F206265676994
:102EA2006E2E0048454C4C4F005245414459005348
:102EB200455454494E4753000900534E3A002D00E1
:102EC200414253004C00460056455200564552536B
:102ED200494F4E005645523A0042425400312E307C
:102EE2002E300057503A0057500057505F53455408
:022EF2003A00A4
:00000001FF
