:100000000C947B000C94A3000C94A3000C94A3000C
:100010000C94A3000C94A3000C94A3000C94A300D4
:100020000C94A3000C94A3000C94A3000C9444061D
:100030000C94A3000C94A3000C94A3000C94A300B4
:100040000C94A2050C94A3000C9412060C94EC05DD
:100050000C94A3000C94A3000C94A3000C94A30094
:100060000C94A3000C94A3004E414E494E495459A0
:10007000494E46CDCCCC3D0AD7233C17B7D1387773
:10008000CC2B329595E6241FB14F0A000020410089
:1000900000C84200401C4620BCBE4CCA1B0E5AAED3
:1000A000C59D7400000000240027002A0000000005
:1000B00000250028002B00040404040404040402A6
:1000C00002020202020303030303030102040810F5
:1000D00020408001020408102001020408102000C2
:1000E00000000800020100000304070000000000F7
:1000F00000000000000711241FBECFEFD8E0DEBFD4
:10010000CDBF11E0A0E0B1E0E8EFFBE202C0059056
:100110000D92AA37B107D9F722E0AAE7B1E001C0F2
:100120001D92A938B207E1F710E0CBE7D0E004C098
:100130002197FE010E94BE13CA37D107C9F70E945A
:1001400077070C94FA150C94000090E0FC01E15242
:10015000FF4F2491FC01E553FF4F3491FC01E9541A
:10016000FF4FE491EE23C9F0222339F0233001F14F
:10017000A8F4213019F1223029F1F0E0EE0FFF1F31
:10018000E355FF4FA591B4918FB7F894EC916111AD
:1001900026C030953E233C938FBF08952730A9F0A9
:1001A0002830C9F0243049F7809180008F7D03C04A
:1001B000809180008F7780938000DFCF84B58F7728
:1001C00084BDDBCF84B58F7DFBCF8091B0008F776E
:1001D0008093B000D2CF8091B0008F7DF9CF3E2BBD
:1001E000DACF3FB7F8948091B7019091B801A09110
:1001F000B901B091BA0126B5A89B05C02F3F19F0EF
:100200000196A11DB11D3FBFBA2FA92F982F882796
:10021000BC01CD01620F711D811D911D42E0660F71
:10022000771F881F991F4A95D1F708952FB7F89423
:100230006091B3017091B4018091B5019091B601C4
:100240002FBF08950895AF92BF92CF92DF92EF92A1
:10025000FF920F931F93CF93DF936C017B018B0170
:10026000040F151FEB015E01AE18BF08C017D107C0
:1002700059F06991D601ED91FC910190F081E02D4A
:10028000C6010995892B79F7C501DF91CF911F919F
:100290000F91FF90EF90DF90CF90BF90AF900895B7
:1002A000FC01538D448D252F30E0842F90E0821B7C
:1002B000930B541710F0CF96089501970895FC0101
:1002C000918D828D981761F0A28DAE0FBF2FB11D59
:1002D0005D968C91928D9F5F9F73928F90E00895B1
:1002E0008FEF9FEF08950F931F930E941601609365
:1002F000C3017093C4018093C5019093C6018BEB39
:1003000091E00E945F0197FF1DC00E9416010091BD
:10031000C3011091C4012091C5013091C601601B39
:10032000710B820B930B0091BF011091C0012091C2
:10033000C1013091C2016017710782079307F8F27B
:100340008FEF9FEF1F910F910895FC01918D828D8A
:10035000981731F0828DE80FF11D858D90E008959A
:100360008FEF9FEF0895FC01918D228D892F90E0F2
:10037000805C9F4F821B91098F73992708958BEBA7
:1003800091E00E94B30121E0892B09F420E0822F43
:10039000089580E090E0892B29F00E94BF0181112F
:1003A0000C9400000895FC01A48DA80FB92FB11D75
:1003B000A35ABF4F2C91848D90E001968F7399279B
:1003C000848FA689B7892C93A089B1898C91837079
:1003D00080648C93938D848D981306C00288F38972
:1003E000E02D80818F7D80830895EF92FF920F939F
:1003F0001F93CF93DF93EC0181E0888F9B8D8C8DD1
:1004000098131AC0E889F989808185FF15C09FB7C4
:10041000F894EE89FF896083E889F9898081837087
:10042000806480839FBF81E090E0DF91CF911F9136
:100430000F91FF90EF900895F62E0B8D10E00F5F57
:100440001F4F0F731127E02E8C8D8E110CC00FB62D
:1004500007FCFACFE889F989808185FFF5CFCE01C5
:100460000E94D301F1CFEB8DEC0FFD2FF11DE35A6C
:10047000FF4FF0829FB7F8940B8FEA89FB89808148
:100480008062CFCFCF93DF93EC01888D8823B9F0C2
:10049000AA89BB89E889F9898C9185FD03C080818F
:1004A00086FD0DC00FB607FCF7CF8C9185FFF2CF0C
:1004B000808185FFEDCFCE010E94D301E9CFDF918E
:1004C000CF910895DC01EC91EC3090F511968C9170
:1004D000119728E830E0281B310987FD3395220F5A
:1004E000331F220F331F6217730784F012968C910B
:1004F00028E532E0281B310987FD3395220F331F91
:10050000220F331F621773070CF49B01225031092D
:10051000220F331F4FB7F8948E2F90E0FC01EE0F9F
:10052000FF1FE80FF91FE85AFD4F328321834FBFA9
:100530000895CF93DF93DC018C918C3008F06DC06F
:10054000CB01FB01E553FF4F249189549F4FFC01E0
:100550008491882399F090E0880F991FFC01ED5554
:10056000FF4FC591D491FC01E355FF4F85919491C4
:100570008FB7F894E881E22BE8838FBF8C91282F06
:1005800030E0F901EE0FFF1FE20FF31FE85AFD4FB5
:10059000962F9F736081607C692B608311961C92FB
:1005A000119712961C9212972CE0622F0E94AB13A7
:1005B000829FB001112430E020E0AB01420F531FB5
:1005C000FA01EE0FFF1FE40FF51FE85AFD4F90816F
:1005D00096FD16C02F5F3F4F2C30310571F781110A
:1005E0000FC01092800082E08093810010928500FD
:1005F00010928400B19A80916F00826080936F00A6
:10060000EC918E2F90E0FC01EE0FFF1FE80FF91F19
:10061000E85AFD4F8081806480838C91DF91CF9177
:1006200008951092060180918901609102017091F4
:100630000301811104C060917E0170917F01072E3A
:10064000000C880B990B0E94C91060938401709371
:100650008501809386019093870180918801609144
:10066000000170910101811104C060917C017091C1
:100670007D01072E000C880B990B0E94C910609316
:10068000800170938101809382019093830108958A
:10069000FC0101900020E9F73197AF01481B590B8D
:1006A000BC018BEB91E00C9423018F929F92AF924F
:1006B000BF92CF92DF92EF92FF920F931F93CF934F
:1006C000DF93CDB7DEB7A1970FB6F894DEBF0FBEAC
:1006D000CDBF6C01990FEE08FF08F7FE41C06DE237
:1006E0008BEB91E00E94F5018C0122273327A901B1
:1006F0002C193D094E095F0919A2CE0181967C0192
:100700009AE0892E912CA12CB12CCA01B901A50126
:1007100094010E946012605DF70162937F012115D0
:1007200031054105510589F790E080E0309719F0D7
:10073000CF010E944803800F911FA1960FB6F89435
:10074000DEBF0FBECDBFDF91CF911F910F91FF9004
:10075000EF90DF90CF90BF90AF909F908F900895D3
:10076000A701960119A28E010F5D1F4F8AE0C82EC6
:10077000D12CE12CF12CCA01B901A70196010E94EC
:100780006012605DF80162938F012115310541050A
:10079000510589F790E080E0309779F2CF010E940F
:1007A0004803CBCFEF92FF920F931F93CF93DF932A
:1007B000FC0100811181FB01C081D181F80181918F
:1007C0008F018823B9F0082E000C990B0E94A61502
:1007D0007C018991082E000C990B0E94A615E81641
:1007E000F90661F380E0DF91CF911F910F91FF90A7
:1007F000EF90089581E0F7CFFC018081918100970F
:1008000011F00C94150F60E070E0CB010895FB012E
:1008100044815581FC01248135812417350778F006
:1008200080819181009759F0FB0160817181611590
:10083000710529F00E94D21521E0892B09F020E0F2
:10084000822F0895FC0124813581232B39F421E086
:10085000FB018081882349F020E007C080819181DD
:100860000E94C21521E0892BB9F7822F08950F93BA
:100870001F93CF93DF938C01EB0186179707D1F07D
:10088000FC01808191810097E9F06881798161158F
:100890007105B1F0428153812C813D81421753078C
:1008A00078F00E94CB158C819D81F801958384831B
:1008B0001D821C82C801DF91CF911F910F91089575
:1008C0000E94601488819981F801918380838A81D4
:1008D0009B81938382838C819D81958384831982FC
:1008E00018821B821A82E4CFCF93DF93EC018881B8
:1008F0009981009711F00E946014198218821D825C
:100900001C821B821A82DF91CF910895FC018081A5
:100910009181009711F00C94601408950F931F9328
:10092000CF93DF93EC0188819981009759F02A8158
:100930003B812617370730F081E0DF91CF911F917F
:100940000F9108958B016F5F7F4F0E94E91400970C
:1009500059F0998388831B830A832C813D81232B43
:1009600059F7FC011082E8CF80E0E7CFEF92FF92C9
:100970000F931F93CF93DF93EC017B0119821882B1
:100980001B821A821D821C82FB0101900020E9F764
:1009900031978F01061B170BB8010E948E0481113D
:1009A00009C0CE01DF91CF911F910F91FF90EF9081
:1009B0000C9474041D830C83B70188819981DF91A5
:1009C000CF911F910F91FF90EF900C94CB159F92B8
:1009D000AF92BF92CF92DF92EF92FF920F931F934D
:1009E000CF93DF937C016B015A01890124173507EE
:1009F00020F48B2D5901042F182F69E671E0C701EF
:100A00000E94B604D6011496CD91DC91AC16BD06B9
:100A100050F50C171D0708F4E801D601ED91FC9183
:100A20001197EC0FFD1F908010820D911C910A0D03
:100A30001B1D0115110571F0F80101900020E9F767
:100A400031975F01A01AB10AB501C7010E948E0457
:100A5000811116C0C7010E947404D6018D919C912A
:100A6000C80FD91F9882C701DF91CF911F910F91B5
:100A7000FF90EF90DF90CF90BF90AF909F90089540
:100A8000F701B582A482B801808191810E94CB15C3
:100A9000E4CFCF93DF93EB010E94E9118883CE016D
:100AA000DF91CF9108950F931F93CF93DF938C0124
:100AB000EB010E94E9118883C80101960E94E911A7
:100AC0008983CE01DF91CF911F910F910895FF92FD
:100AD0000F931F93CF93DF938C01EB01F8800E945B
:100AE000E911F81621F06F2DC8010E94F111CE0115
:100AF000DF91CF911F910F91FF900895FF920F9377
:100B00001F93CF93DF93EC018B01FB01F0800E94D8
:100B1000E911F81621F06F2DCE010E94F111F801B4
:100B2000F1802196CE010E94E911F81621F06F2D77
:100B3000CE010E94F111C801DF91CF911F910F9159
:100B4000FF9008951F920F920FB60F9211242F93CA
:100B50003F938F939F93AF93BF938091B3019091F5
:100B6000B401A091B501B091B6013091B20123E07A
:100B7000230F2D3758F50196A11DB11D2093B20109
:100B80008093B3019093B401A093B501B093B601E3
:100B90008091B7019091B801A091B901B091BA01CB
:100BA0000196A11DB11D8093B7019093B801A09348
:100BB000B901B093BA01BF91AF919F918F913F91CD
:100BC0002F910F900FBE0F901F90189526E8230FBE
:100BD0000296A11DB11DD2CF1F920F920FB60F9298
:100BE00011242F933F934F935F936F937F938F9332
:100BF0009F93AF93BF93EF93FF938BEB91E00E9492
:100C0000D301FF91EF91BF91AF919F918F917F9110
:100C10006F915F914F913F912F910F900FBE0F9069
:100C20001F9018951F920F920FB60F9211242F93B9
:100C30008F939F93EF93FF93E091CB01F091CC01C1
:100C40008081E091D101F091D20182FD1BC09081A1
:100C50008091D4018F5F8F732091D501821741F06D
:100C6000E091D401F0E0E554FE4F958F8093D401DC
:100C7000FF91EF919F918F912F910F900FBE0F9049
:100C80001F9018958081F4CF1F920F920FB60F928C
:100C900011242F933F934F935F936F937F938F9381
:100CA0009F93AF93BF93CF93DF93EF93FF93809185
:100CB0007A01C0917C02D0E087FF24C010928500A9
:100CC0001092840080917A018F5F80937A018091E5
:100CD0007A01082E000C990B8C179D0724F4809143
:100CE0007A018C30C4F18091840090918500049643
:100CF00080349C4908F47AC08091840090918500EA
:100D0000049676C080917A01082E000C990B8C17FE
:100D10009D07C4F6E0917A018E2FEE0F990BFC012E
:100D2000EE0FFF1FE80FF91FE85AFD4F808186FF85
:100D3000C9CFE0917A018E2FEE0F990BFC01EE0FD7
:100D4000FF1FE80FF91FE85AFD4F808160E08F73A5
:100D50000E94A500B7CF2091840030918500E091DA
:100D60007A018E2FEE0F990BFC01EE0FFF1FE80F9B
:100D7000F91FE85AFD4F81819281820F931F909352
:100D8000890080938800E0917A018E2FEE0F990BF5
:100D9000FC01EE0FFF1FE80FF91FE85AFD4F80819D
:100DA00086FF11C0E0917A018E2FEE0F990BFC01A6
:100DB000EE0FFF1FE80FF91FE85AFD4F808161E039
:100DC0008F730E94A500FF91EF91DF91CF91BF91AA
:100DD000AF919F918F917F916F915F914F913F91D3
:100DE0002F910F900FBE0F901F90189580E49CE9F3
:100DF00090938900809388008FEF80937A01E3CFEE
:100E00001092BE011092BD0188EE93E0A0E0B0E028
:100E10008093BF019093C001A093C101B093C20120
:100E200082E191E09093BC018093BB0185EC90E05E
:100E30009093C8018093C70184EC90E09093CA011D
:100E40008093C90180EC90E09093CC018093CB011A
:100E500081EC90E09093CE018093CD0182EC90E004
:100E60009093D0018093CF0186EC90E09093D201D3
:100E70008093D1011092D4011092D5011092D60125
:100E80001092D70180917C028C3048F591E0980F48
:100E900090937C028093800290E0FC01EE0FFF1F94
:100EA000E80FF91FE85AFD4F88EB9BE0928381839E
:100EB00080917C028C30B8F491E0980F90937C0282
:100EC00080937D0290E0FC01EE0FFF1FE80FF91FF9
:100ED000E85AFD4F88EB9BE09283818308958FEF62
:100EE00080938002E5CF8FEF80937D020895CF93AA
:100EF000DF93CDB7DEB7C454D1090FB6F894DEBF87
:100F00000FBECDBF789484B5826084BD84B5816006
:100F100084BD85B5826085BD85B5816085BD8091C4
:100F20006E00816080936E0010928100809181003C
:100F30008260809381008091810081608093810034
:100F4000809180008160809380008091B1008460F6
:100F50008093B1008091B00081608093B000809157
:100F60007A00846080937A0080917A008260809316
:100F70007A0080917A00816080937A0080917A0073
:100F8000806880937A001092C100E091CB01F091CB
:100F9000CC0182E08083E091C701F091C80110820A
:100FA000E091C901F091CA018FEC80831092D301C6
:100FB000E091CF01F091D00186E08083E091CD01F6
:100FC000F091CE01808180618083E091CD01F0912C
:100FD000CE01808188608083E091CD01F091CE01C7
:100FE000808180688083E091CD01F091CE01808185
:100FF0008F7D808360E08AE00E94A50060E089E048
:101000000E94A5006EE771E088EC90E00E94530515
:1010100062E071E08AEC90E00E9453056CE771E0B9
:101020008CEC90E00E94530560E071E08EEC90E063
:101030000E94530569E871E080ED90E00E94490547
:1010400068E871E081ED90E00E9449056BE771E08E
:1010500082ED90E00E9449050E94110380E291E038
:101060000E94480380E591E00E944803CE0101966A
:101070001C013E019BE2690E711C0E941601009149
:10108000AE011091AF012091B0013091B1016B011F
:101090007C01C01AD10AE20AF30A97018601609323
:1010A000AE017093AF018093B0019093B101809134
:1010B000AA019091AB01A091AC01B091AD01800F5C
:1010C000911FA21FB31F8093AA019093AB01A0931D
:1010D000AC01B093AD0180910701882359F1809153
:1010E000A6019091A701A091A801B091A901801B30
:1010F000910BA20BB30B8093A6019093A701A09331
:10110000A801B093A901181619061A061B0694F037
:10111000109207011092A6011092A7011092A80147
:101120001092A9018091A501882321F01092A501B8
:101130001092A4018BEB91E00E94B30118161906DE
:101140000CF0BCC369E671E0CE01C7960E94B604FC
:101150000E9473010BAD1CAD97FD1AC08A3091053A
:10116000B9F089831A820F5F1F4FB801CE01C7966D
:101170000E948E04882361F32FA938AD8BAD9CADFE
:10118000B101820F931F0E94CB151CAF0BAFE0CFB4
:10119000CFA8D8ACC114D10421F0760101151105F6
:1011A00051F48BAD9CAD892BE1F5CE01C7960E9421
:1011B0008604C0CF750157012FEFA21AB20AD701DA
:1011C0008C91082E000C990B0E94A110892B91F78D
:1011D000015011090C0D1D1DF8018081082E000C15
:1011E000990B0E94A110892B31F00E151F0518F0E4
:1011F00001501109F1CF0F5F1F4FA8014E195F0970
:101200005CAF4BAFCE14DF0420F4B701C6010E94DF
:10121000AE15EFA9F8AD8BAD9CADE80FF91F1082AC
:10122000C0CF63E571E0C1010E94B6048BAD9CADF7
:101230002D813E8110E08217930749F411E0892B3C
:1012400031F0B101CE01C7960E94D203182FC1011F
:101250000E948604112309F499C08091A301811191
:10126000A4CF81E08093A3016AE070E080E892E07F
:101270000E94990269E070E08DE792E00E94990275
:10128000809189016091020170910301811104C074
:1012900060917E0170917F01072E000C880B990BE5
:1012A0000E94C91060938401709385018093860128
:1012B00090938701809188016091000170910101F4
:1012C000811104C060917C0170917D01072E000C9A
:1012D000880B990B0E94C910609380017093810163
:1012E0008093820190938301C0908001D09081010E
:1012F000E0908201F09083016091840170918501FA
:1013000080918601909187010E947013DB0120ED8E
:1013100037E00E94B71324EB30E040E050E00E9439
:10132000FF11CA01B9016C507E4F8F4F9F4F80E86B
:1013300092E00E94620280917B018823C9F0C7017C
:10134000B6010E947013DB0120ED37E00E94B71355
:1013500024EB30E040E050E00E94FF11CA01B901E7
:101360006C507E4F8F4F9F4F8DE792E00E9462023C
:1013700089E591E00E94480380E591E00E944803DE
:1013800081E08093A4011092A5010FCF6FE571E079
:10139000C1010E94B6048BAD9CAD2D813E818217A8
:1013A000930749F411E0892B31F0B101CE01C796C2
:1013B0000E94D203182FC1010E948604112309F450
:1013C0004BC081E08093A30182E791E00E94480333
:1013D00080917E0190917F010E94550388E691E003
:1013E0000E94480380910201909103010E945503DD
:1013F00088E691E00E94480380917C0190917D01F4
:101400000E94550388E691E00E9448038091000104
:10141000909101010E94550388E691E00E944803E3
:101420008091890190E00E94550388E691E00E9436
:1014300048038091880190E00E94550388E691E07E
:101440000E94480380917B0190E00E94550380E553
:1014500091E00E944803A9CE6AE671E0C1010E94B2
:10146000B604B101CE01C7960E940704182FC1012E
:101470000E948604112309F405C12BAD3CAD43E065
:1014800050E0BE01695C7F4FCE01C1960E94E70427
:101490005101810169E671E0C8010E94B6040A5F4A
:1014A0001F4F60167106B1F76EE671E0C3010E942E
:1014B000B6048DA99EA9892B61F0E9A8FAA86BA5AD
:1014C0007CA5C7010E94E0158C010E191F09892B0C
:1014D00011F40FEF1FEFC3010E948604F12CE12CE1
:1014E000D12CC12C0F3F1007D9F126E0C216D10430
:1014F000B9F19801A701BE016F5C7F4FC3010E9443
:10150000E7048FEFC81AD80AB301C5010E94370457
:10151000C3010E94860478019FEFE91AF90A6EE67A
:1015200071E0C3010E94B6048DA99EA9E816F906D0
:1015300070F489A89AA86BA57CA5C4018E0D9F1D87
:101540000E94E0158C0108191909892B11F40FEF7D
:101550001FEFC3010E948604A6E0AA0EB11CC2CFF1
:101560002DA93EA9A701BE016F5C7F4FC3010E9458
:10157000E70426E02C9DC0012D9D900D1124B301A0
:10158000820D931D0E943704C3010E948604C1018D
:101590000E94FC0370937F0160937E01CE01079649
:1015A0000E94FC037093030160930201CE010D962B
:1015B0000E94FC0370937D0160937C01CE014396F1
:1015C0000E94FC037093010160930001CE014996D3
:1015D0000E94FC0321E0672B682B692B09F420E0B3
:1015E00020938901CE014F960E94FC0321E0672BD6
:1015F000682B692B09F420E020938801CE018596A1
:101600000E94FC0321E0672B682B692B09F420E082
:1016100020937B016EE771E088EC90E00E947E05EC
:1016200062E071E08AEC90E00E947E056CE771E078
:101630008CEC90E00E947E0560E071E08EEC90E022
:101640000E947E0569E871E080ED90E00E946705E8
:1016500068E871E081ED90E00E9467056BE771E05A
:1016600082ED90E00E946705830106501109C801D0
:101670000E94860420163106C1F7CE01C1960E9451
:10168000860493CD60E771E0C1010E94B604B10108
:10169000CE01C7960E940704182FC1010E9486043C
:1016A0002BAD3CAD112301F143E050E0BE01695C7C
:1016B0007F4FC1010E94E704C1010E94FC037093A7
:1016C00005016093040181E0809306010E941601E8
:1016D00060939F017093A0018093A1019093A20158
:1016E00010928E01C101CBCF232B09F45ECDEFA860
:1016F000F8AC6AE370E0C7010E94B715009709F4DF
:1017000054CD8C010E191F09101611060CF04DCD89
:10171000980150E040E0BE01695C7F4FC3010E9428
:10172000E7042BAD3CADA8014F5F5F4FBE01695C84
:101730007F4FC1010E94E70489819A81C12CD12C7D
:101740007601009721F00E94110F6B017C0164E784
:1017500071E0C3010E942204882391F160917E010F
:1017600070917F01072E000C880B990B0E94C91005
:10177000A70196010E94C210181614F1609102018F
:1017800070910301072E000C880B990B0E94C91061
:10179000A70196010E94A61387FD12C0C092840182
:1017A000D0928501E0928601F09287010E94160195
:1017B00060939F017093A0018093A1019093A20177
:1017C00066E771E0C3010E942204882391F16091D1
:1017D0007C0170917D01072E000C880B990B0E94F3
:1017E000C910A70196010E94C210181614F1609149
:1017F000000170910101072E000C880B990B0E94CB
:10180000C910A70196010E94A61387FD12C0C092BD
:101810008001D0928101E0928201F09283010E94C6
:10182000160160939F017093A0018093A101909392
:10183000A20162E771E0C3010E942204882389F1BA
:1018400081E08093070180919B0190919C01A09180
:101850009D01B0919E018093970190939801A09370
:101860009901B0939A018091930190919401A09174
:101870009501B091960180938F0190939001A09370
:101880009101B093920120EDC22E27E0D22EE12CDF
:10189000F12CC092A601D092A701E092A801F0928B
:1018A000A90168E771E0C3010E942204811110922E
:1018B0000701C1010E948604C301E1CE8091A3010A
:1018C000882309F448C28091A401882309F443C203
:1018D0000E94160100919F011091A0012091A10189
:1018E0003091A201601B710B820B930B693873411D
:1018F00081059105B8F18091A501811133C081E086
:101900008093A5018093070180ED97E0A0E0B0E00F
:101910008093A6019093A701A093A801B093A90179
:1019200080919B0190919C01A0919D01B0919E019D
:101930008093970190939801A0939901B0939A0195
:101940008091930190919401A0919501B09196019D
:1019500080938F0190939001A0939101B093920195
:101960000E94110310929B0110929C0110929D0104
:1019700010929E0110929301109294011092950181
:10198000109296018091A501811111C180910601EB
:101990008823A9F180918E018F5F80938E0184301E
:1019A00010F010920601009104011091050120E051
:1019B00030E040E050E460918A0170918B018091A9
:1019C0008C0190918D010E94A61318160CF0D5C1C0
:1019D00080918901882309F4CBC166277727601B92
:1019E000710B072E000C880B990B0E94C910609395
:1019F0009B0170939C0180939D0190939E01209187
:101A00008401309185014091860150918701609158
:101A10009B0170919C0180919D0190919E010E947B
:101A2000921221966CAF7DAF8EAF9FAF21976093DE
:101A30009B0170939C0180939D0190939E01209146
:101A40008001309181014091820150918301609128
:101A500093017091940180919501909196010E945B
:101A600092126B017C01C0929301D0929401E0929A
:101A70009501F092960120E030E040E85FE360914C
:101A80008A0170918B0180918C0190918D010E944F
:101A900092124B015C0120E030E040E850E40E94EB
:101AA000A61387FF86C180928A0190928B01A09233
:101AB0008C01B0928D016091020170910301072E9B
:101AC000000C880B990B0E94C9104B015C01AC0102
:101AD0009B0121966CAD7DAD8EAD9FAD21970E948F
:101AE000A613181644F480929B0190929C01A09238
:101AF0009D01B0929E0160917E0170917F01072E41
:101B0000000C880B990B0E94C9104B015C012091BD
:101B10009B0130919C0140919D0150919E010E943A
:101B2000A613181644F480929B0190929C01A092F7
:101B30009D01B0929E016091000170910101072EFC
:101B4000000C880B990B0E94C9104B015C01AC0181
:101B50009B01C701B6010E94A613181644F4809297
:101B6000930190929401A0929501B0929601609198
:101B70007C0170917D01072E000C880B990B0E944F
:101B8000C9106B017C012091930130919401409127
:101B90009501509196010E94A613181644F4C09224
:101BA0009301D0929401E0929501F0929601809178
:101BB0000701882309F411C16091A6017091A70162
:101BC0008091A8019091A9010E94C91020E030E005
:101BD0004AEF54E40E94FE126B017C018091970150
:101BE00090919801A0919901B0919A0125968CAF9E
:101BF0009DAFAEAFBFAF25978091840190918501D5
:101C0000A0918601B091870121968CAF9DAFAEAFB8
:101C1000BFAF219720E030E0A901C701B6010E94C3
:101C2000C21087FDCFC020E030E040E85FE3C7018D
:101C3000B6010E94A61318160CF4C8C0809080014B
:101C400090908101A0908201B090830121962CADEB
:101C50003DAD4EAD5FAD219725966CAD7DAD8EADA2
:101C60009FAD25970E949112A70196010E9428110D
:101C700021962CAD3DAD4EAD5FAD21970E949212E5
:101C80000E947013DB0120ED37E00E94B71324EBB4
:101C900030E040E050E00E94FF1189019A010C50B1
:101CA0001E4F2F4F3F4FA501940160918F017091FE
:101CB000900180919101909192010E949112A7014F
:101CC00096010E942811A50194010E9492120E947F
:101CD0007013DB0120ED37E00E94B71324EB30E0F6
:101CE00040E050E00E94FF112C503E4F4F4F5F4F9D
:101CF0007901B80180E892E00E94620280917B0144
:101D0000882329F0B7018DE792E00E9462020E94C9
:101D1000F1006B017C0184E0882E912CA12CB12C68
:101D20000E94F1006C197D098E099F09683E73407D
:101D300081059105A8F391E0891A9108A108B108DD
:101D4000A8EECA0EA3E0DA1EE11CF11C8114910476
:101D5000A104B10429F780E090E0892B09F48DC932
:101D60000E94BF01882309F484C90E9400007EC933
:101D7000B801110F880B990B38CE80918801882308
:101D800099F066277727601B710B072E000C880BD4
:101D9000990B0E94C91060939301709394018093F2
:101DA0009501909396012BCEB801110F880B990BDA
:101DB000F0CF10928A0110928B0110928C01109238
:101DC0008D0179CEC12CD12C760138CFC12CD12CEC
:101DD00090E8E92E9FE3F92E31CF60919B0170913D
:101DE0009C0180919D0190919E010E947013DB01E6
:101DF00020ED37E00E94B71324EB30E040E050E0E4
:101E00000E94FF1189019A010C501E4F2F4F3F4F26
:101E10006091930170919401809195019091960148
:101E200056CF662777270C94510F1F93FC019927F3
:101E30008827BC01E89411911032E9F3193010F0B1
:101E40001E30C8F31B3251F01D3249F4689406C0AD
:101E50000E943C0F610F711D811D911D1191105346
:101E60001A30B0F33EF490958095709561957F4F50
:101E70008F4F9F4F1F910895592F482F372F262F8F
:101E8000660F771F881F991F660F771F881F991F7E
:101E9000620F731F841F951F660F771F881F991F7E
:101EA0000895B0E0A0E0E7E5FFE00C942F125C019C
:101EB0007B016115710519F0DB018D939C93850100
:101EC0000F5F1F4FF501D0818D2F90E00E94A11070
:101ED0006C01892BB9F5DD32B9F50F5F1F4FD501C4
:101EE0001196DC91C1E05801F1E0AF1AB10843E06E
:101EF00050E060E770E0C5010E94AA10892B69F5E7
:101F0000680182E0C80ED11C45E050E06BE670E04D
:101F1000C6010E94AA10892B21F4680197E0C90E1E
:101F2000D11CE114F10419F0D701CD92DC9260E0EC
:101F300070E080E89FEFC111FFC060E070E080E8D2
:101F40009FE7FAC05801BBCFDB3229F485010E5F51
:101F50001F4FF501D181C0E0C6CF43E050E068E6F5
:101F600070E0C5010E94AA10892BE9F0F80110E089
:101F700000E020E030E0A9015F01B0ED8B2E8D0E76
:101F800089E08815C8F19C2E689491F88C2F887090
:101F9000C2FF16C0811102C00F5F1F4F3196D501DD
:101FA000DC91C92DE9CFE114F10429F00E5F1F4F38
:101FB000F7011183008360E070E080EC9FE7BCC014
:101FC000882311F001501109A5E0B0E00E941E1213
:101FD0009B01AC01220F331F441F551F280D311DDB
:101FE000411D511D283999E93907490799E15907D8
:101FF000A8F2C6609C2ED2CFAEEF8A1206C0C3FDF7
:102000003CC09C2E689493F8C9CFDF7DD534A9F5E8
:1020100080818D3239F4C061DF011296818162E0E6
:1020200070E006C0DF018B32C1F3119661E070E011
:1020300080535D01A61AB70A8A30F8F4E0E8CE169C
:10204000ECE0DE065CF4B601660F771F660F771FC3
:10205000C60ED71ECC0CDD1CC80ED11C5D01FFEFD7
:10206000AF1ABF0A8C9180538A30A8F1C4FF03C015
:10207000D194C194D1080C0D1D1DC1FF09C0E114FC
:10208000F10431F081E0A81AB108D701AD92BC92F9
:10209000CA01B9010E94C710C370C33009F4905837
:1020A0004B015C0120E030E0A9010E94C2108823AE
:1020B00009F440C0CFE9D0E017FF05C011950195A4
:1020C0001109C7E8D0E06E01B8E1CB1AD10880E26F
:1020D000E82EF12C0FC0D501B1CFFE01259135912D
:1020E000459154910E191F09C501B4010E94281190
:1020F0004B015C01D501C4010E151F0574F724972F
:10210000F594E794CC16DD06A9F78A2F880F8B2F5C
:10211000881F8F3F49F020E030E0A901C501B401DC
:102120000E94C210811106C082E290E09093840266
:1021300080938302C501B401CDB7DEB7ECE00C9407
:102140004B1291110C949511803219F089508550E1
:10215000C8F70895FB01DC014150504088F08D9193
:1021600081341CF08B350CF4805E659161341CF079
:102170006B350CF4605E861B611171F3990B089549
:10218000881BFCCF0E94041108F481E00895E894B4
:1021900009C097FB3EF490958095709561957F4FAF
:1021A0008F4F9F4F9923A9F0F92F96E9BB2793955D
:1021B000F695879577956795B795F111F8CFFAF46D
:1021C000BB0F11F460FF1BC06F5F7F4F8F4F9F4F9E
:1021D00016C0882311F096E911C0772321F09EE8FC
:1021E000872F762F05C0662371F096E8862F70E062
:1021F00060E02AF09A95660F771F881FDAF7880F3C
:102200009695879597F90895990F0008550FAA0B91
:10221000E0E8FEEF16161706E807F907C0F01216F9
:102220001306E407F50798F0621B730B840B950BFC
:1022300039F40A2661F0232B242B252B21F4089551
:102240000A2609F4A140A6958FEF811D811D0895EE
:102250000E943B110C94AF110E94A11138F00E9412
:10226000A81120F0952311F00C9498110C949E1154
:1022700011240C94E3110E94C01170F3959FC1F3D7
:10228000950F50E0551F629FF001729FBB27F00D24
:10229000B11D639FAA27F00DB11DAA1F649F662779
:1022A000B00DA11D661F829F2227B00DA11D621FC8
:1022B000739FB00DA11D621F839FA00D611D221F82
:1022C000749F3327A00D611D231F849F600D211D66
:1022D000822F762F6A2F11249F5750409AF0F1F0E9
:1022E00088234AF0EE0FFF1FBB1F661F771F881F52
:1022F00091505040A9F79E3F510580F00C949811E1
:102300000C94E3115F3FE4F3983ED4F38695779500
:102310006795B795F795E7959F5FC1F7FE2B880FF7
:10232000911D9695879597F908959927882708957F
:1023300097F99F6780E870E060E008959FEF80EC78
:10234000089500240A94161617061806090608951B
:1023500000240A9412161306140605060895092E81
:102360000394000C11F4882352F0BB0F40F4BF2BF0
:1023700011F460FF04C06F5F7F4F8F4F9F4F089530
:1023800057FD9058440F551F59F05F3F71F0479526
:10239000880F97FB991F61F09F3F79F0879508950B
:1023A000121613061406551FF2CF4695F1DF08C02A
:1023B000161617061806991FF1CF86957105610547
:1023C00008940895E894BB2766277727CB0197F9EF
:1023D0000895F999FECF92BD81BDF89A992780B5ED
:1023E0000895262FF999FECF1FBA92BD81BD20BD59
:1023F0000FB6F894FA9AF99A0FBE01960895052E31
:1024000097FB1EF400940E94161257FD07D00E94FD
:10241000601207FC03D04EF40C94161250954095B0
:10242000309521953F4F4F4F5F4F08959095809580
:10243000709561957F4F8F4F9F4F08950E94821234
:10244000A59F900DB49F900DA49F800D911D112408
:1024500008952F923F924F925F926F927F928F9248
:102460009F92AF92BF92CF92DF92EF92FF920F9323
:102470001F93CF93DF93CDB7DEB7CA1BDB0B0FB62D
:10248000F894DEBF0FBECDBF09942A8839884888EA
:102490005F846E847D848C849B84AA84B984C88480
:1024A000DF80EE80FD800C811B81AA81B981CE0F77
:1024B000D11D0FB6F894DEBF0FBECDBFED0108955C
:1024C000A1E21A2EAA1BBB1BFD010DC0AA1FBB1F38
:1024D000EE1FFF1FA217B307E407F50720F0A21BAA
:1024E000B30BE40BF50B661F771F881F991F1A9417
:1024F00069F760957095809590959B01AC01BD0141
:10250000CF010895A29FB001B39FC001A39F700D9A
:10251000811D1124911DB29F700D811D1124911DEB
:1025200008955058BB27AA270E94A9120C94AF11F6
:102530000E94A11138F00E94A81120F039F49F3FA9
:1025400019F426F40C949E110EF4E095E7FB0C941C
:102550009811E92F0E94C01158F3BA176207730748
:102560008407950720F079F4A6F50C94E2110EF497
:10257000E0950B2EBA2FA02D0B01B90190010C0193
:10258000CA01A0011124FF27591B99F0593F50F4AB
:10259000503E68F11A16F040A22F232F342F442703
:1025A000585FF3CF469537952795A795F0405395FB
:1025B000C9F77EF41F16BA0B620B730B840BBAF0CB
:1025C0009150A1F0FF0FBB1F661F771F881FC2F736
:1025D0000EC0BA0F621F731F841F48F4879577954A
:1025E0006795B795F7959E3F08F0B0CF9395880F04
:1025F00008F09927EE0F9795879508950E9412137A
:102600000C94AF110E94A81158F00E94A11140F043
:1026100029F45F3F29F00C94981151110C94E311A7
:102620000C949E110E94C01168F39923B1F35523B5
:1026300091F3951B550BBB27AA27621773078407D5
:1026400038F09F5F5F4F220F331F441FAA1FA9F36B
:1026500035D00E2E3AF0E0E832D091505040E69559
:10266000001CCAF72BD0FE2F29D0660F771F881FBA
:10267000BB1F261737074807AB07B0E809F0BB0BAD
:10268000802DBF01FF2793585F4F3AF09E3F5105C1
:1026900078F00C9498110C94E3115F3FE4F3983EAA
:1026A000D4F3869577956795B795F7959F5FC9F7AA
:1026B000880F911D9695879597F90895E1E0660F2B
:1026C000771F881FBB1F621773078407BA0720F0A4
:1026D000621B730B840BBA0BEE1F88F7E09508950D
:1026E0000E9477136894B1110C94E31108950E942D
:1026F000C81188F09F5798F0B92F9927B751B0F0BB
:10270000E1F0660F771F881F991F1AF0BA95C9F775
:1027100014C0B13091F00E94E211B1E008950C9420
:10272000E211672F782F8827B85F39F0B93FCCF3D3
:10273000869577956795B395D9F73EF490958095F2
:10274000709561957F4F8F4F9F4F08950E940411A0
:1027500008F48FEF0895991B79E004C0991F96172C
:1027600008F0961B881F7A95C9F7809508950E94F6
:102770008212B7FF0895821B930B0895EE0FFF1F7F
:102780000590F491E02D09940F931F93CF93DF935D
:102790008230910510F482E090E0E0918702F091A0
:1027A000880230E020E0B0E0A0E0309799F42115F5
:1027B000310509F44AC0281B390B24303105D8F5FE
:1027C0008A819B816115710589F1FB019383828365
:1027D000FE0111C0408151810281138148175907C0
:1027E000E0F04817590799F4109761F012960C938E
:1027F000129713961C933296CF01DF91CF911F91C0
:102800000F9108950093870210938802F4CF211549
:10281000310551F04217530738F0A901DB019A0145
:10282000BD01DF01F801C1CFEF01F9CF909388021C
:1028300080938702CDCFFE01E20FF31F8193919326
:102840002250310939832883D7CF209185023091D6
:102850008602232B41F420910A0130910B01309321
:1028600086022093850220910801309109012115EB
:10287000310541F42DB73EB740910C0150910D0147
:10288000241B350BE0918502F0918602E217F307D5
:10289000A0F42E1B3F0B2817390778F0AC014E5FD0
:1028A0005F4F2417350748F04E0F5F1F5093860285
:1028B00040938502819391939FCFF0E0E0E09CCF1D
:1028C000CF93DF930097E9F0FC01329713821282D5
:1028D000A0918702B0918802ED0130E020E01097CE
:1028E000A1F420813181820F931F209185023091C4
:1028F00086022817390709F061C0F0938602E09339
:102900008502DF91CF910895EA01CE17DF07E8F540
:102910004A815B819E0141155105B1F7E901FB83B5
:10292000EA8349915991C40FD51FEC17FD0761F453
:10293000808191810296840F951FE9019983888394
:10294000828193819B838A83F0E0E0E012968D91EF
:102950009C9113970097B9F52D913C911197CD015A
:102960000296820F931F20918502309186022817CC
:10297000390739F6309751F5109288021092870284
:10298000B0938602A0938502BCCFD383C2834081DB
:102990005181840F951FC817D90761F44E5F5F4FAF
:1029A00088819981480F591F518340838A819B8177
:1029B000938382832115310509F0B0CFF09388020B
:1029C000E09387029ECFFD01DC01C0CF138212820B
:1029D000D7CFB0E0A0E0EFEEF4E10C942B128C0125
:1029E000009751F4CB010E94C4138C01C801CDB7EC
:1029F000DEB7E0E10C944712FC01E60FF71F9C01E3
:102A000022503109E217F30708F49DC0D901CD9196
:102A1000DC911197C617D70798F0C530D10530F370
:102A2000CE0104978617970708F3C61BD70B22978A
:102A3000C193D1936D937C93CF010E946014D6CF44
:102A40005B01AC1ABD0A4C018C0E9D1EA091870241
:102A5000B0918802512C412CF12CE12C109731F5CA
:102A600080918502909186028815990509F05CC0D5
:102A70004616570608F058C0809108019091090148
:102A8000009741F48DB79EB740910C0150910D0114
:102A9000841B950BE817F90708F055C0F0938602E0
:102AA000E0938502F90171836083A0CF8D919C91A1
:102AB000119712966C90129713967C901397A81505
:102AC000B90559F56C0142E0C40ED11CCA14DB04EF
:102AD00020F1AC014A195B09DA011296159780F0D2
:102AE0006282738251834083D9016D937C93E11498
:102AF000F10471F0D7011396FC93EE93129776CF01
:102B000022968C0F9D1FF90191838083F301EFCFF3
:102B1000F0938802E093870269CF4816590608F4BB
:102B20002C017D01D3019ACFCB010E94C4137C01FB
:102B3000009749F0AE01B8010E94AE15C8010E948D
:102B40006014870153CF10E000E050CF9111089539
:102B500081548A5108F4805E855A0895FB01DC0196
:102B600002C001900D9241505040D8F70895FC01E9
:102B70008191861721F08823D9F7992708953197F5
:102B8000CF010895FB01DC018D91019080190110A6
:102B9000D9F3990B0895FB01DC0101900D920020FF
:102BA000E1F70895FB01DC014150504030F08D9178
:102BB0000190801919F40020B9F7881B990B08952A
:102BC000FB0151915523A9F0BF01DC014D9145173F
:102BD0004111E1F759F4CD010190002049F04D91E8
:102BE00040154111C9F3FB014111EFCF81E090E0A5
:082BF00001970895F894FFCF4E
:102BF800B400B40014000101000089028000000044
:102C08000000F501230150014202B3015F01A50153
:102C180057616974696E6720666F722068616E64B7
:102C28007368616B652E2E2E2053656E64202748CD
:102C3800454C4C4F2720746F20626567696E2E00E3
:102C48000D0A0048454C4C4F005245414459005329
:102C5800455454494E4753000900534E3A002D003D
:0A2C6800414253004C0052004600A8
:00000001FF
