:100000000C945D000C9485000C9485000C94850084
:100010000C9485000C9485000C9485000C9485004C
:100020000C9485000C9485000C9485000C94EA04D3
:100030000C9485000C9485000C9485000C9485002C
:100040000C9448040C9485000C94B8040C9492040D
:100050000C9485000C9485000C9485000C9485000C
:100060000C9485000C94850000000008000201003B
:100070000003040700000000000000000000000072
:10008000250028002B0000000000240027002A0083
:10009000040404040404040402020202020203032E
:1000A0000303030301020408102040800102040836
:1000B0001020010204081020A60511241FBECFEF56
:1000C000D8E0DEBFCDBF11E0A0E0B1E0E6E2F8E1AC
:1000D00002C005900D92AE38B107D9F722E0AEE824
:1000E000B1E001C01D92A738B207E1F710E0CDE5FD
:1000F000D0E004C02197FE010E94040CCC35D1074A
:10010000C9F70E941D060C94110C0C94000090E09D
:10011000FC01EC55FF4F249180579F4FFC018491C7
:10012000882399F090E0880F991FFC01EA57FF4F50
:10013000A591B491FC01E458FF4F859194918FB73C
:10014000F894EC91E22BEC938FBF089590E0FC01C2
:10015000E859FF4F2491FC01EC55FF4F3491FC010D
:10016000E057FF4FE491EE23C9F0222339F023300A
:1001700001F1A8F4213019F1223029F1F0E0EE0F5D
:10018000FF1FE458FF4FA591B4918FB7F894EC91FD
:10019000611126C030953E233C938FBF08952730D0
:1001A000A9F02830C9F0243049F7809180008F7D74
:1001B00003C0809180008F7780938000DFCF84B56B
:1001C0008F7784BDDBCF84B58F7DFBCF8091B0006E
:1001D0008F778093B000D2CF8091B0008F7DF9CF20
:1001E0003E2BDACFCF93DF93EC0183E00E948700B0
:1001F000209731F460E083E0DF91CF910C94A6006A
:10020000CF3FD10511F461E0F6CFEBE6F0E0E491E9
:10021000E33029F140F4E130B1F0E230D9F0C038F8
:10022000D1058CF7E7CFE73021F1E83051F1E43028
:10023000B1F780918000806280938000D0938B0022
:10024000C0938A0004C084B5806884BDC7BDDF91B7
:10025000CF91089584B5806284BDC8BDF8CF8091E8
:100260008000806880938000D0938900C0938800CC
:10027000EECF8091B00080688093B000C093B3004F
:10028000E6CF8091B00080628093B000C093B4004C
:10029000DECF3FB7F8948091BB019091BC01A09153
:1002A000BD01B091BE0126B5A89B05C02F3F19F036
:1002B0000196A11DB11D3FBFBA2FA92F982F8827E6
:1002C000BC01CD01620F711D811D911D42E0660FC1
:1002D000771F881F991F4A95D1F70895AF92BF9253
:1002E000CF92DF92EF92FF920F931F93CF93DF9302
:1002F0006C017B018B01040F151FEB015E01AE1831
:10030000BF08C017D10759F06991D601ED91FC9152
:100310000190F081E02DC6010995892B79F7C5017F
:10032000DF91CF911F910F91FF90EF90DF90CF90D1
:10033000BF90AF900895FC01538D448D252F30E080
:10034000842F90E0821B930B541710F0CF960895E2
:1003500001970895FC01918D828D981761F0A28D0F
:10036000AE0FBF2FB11D5D968C91928D9F5F9F73D5
:10037000928F90E008958FEF9FEF0895FC01918D8B
:10038000828D981731F0828DE80FF11D858D90E0F8
:1003900008958FEF9FEF0895FC01918D228D892F95
:1003A00090E0805C9F4F821B91098F73992708957D
:1003B0008FEB91E00E94CC0121E0892B09F420E031
:1003C000822F089580E090E0892B29F00E94D801C7
:1003D00081110C9400000895FC01A48DA80FB92F81
:1003E000B11DA35ABF4F2C91848D90E001968F735D
:1003F0009927848FA689B7892C93A089B1898C917C
:10040000837080648C93938D848D981306C00288CA
:10041000F389E02D80818F7D80830895EF92FF9294
:100420000F931F93CF93DF93EC0181E0888F9B8D17
:100430008C8D98131AC0E889F989808185FF15C0D1
:100440009FB7F894EE89FF896083E889F9898081F4
:100450008370806480839FBF81E090E0DF91CF91C3
:100460001F910F91FF90EF900895F62E0B8D10E0E5
:100470000F5F1F4F0F731127E02E8C8D8E110CC054
:100480000FB607FCFACFE889F989808185FFF5CF9F
:10049000CE010E94EC01F1CFEB8DEC0FFD2FF11D91
:1004A000E35AFF4FF0829FB7F8940B8FEA89FB89DC
:1004B00080818062CFCFCF93DF93EC01888D88233A
:1004C000B9F0AA89BB89E889F9898C9185FD03C0B7
:1004D000808186FD0DC00FB607FCF7CF8C9185FF9C
:1004E000F2CF808185FFEDCFCE010E94EC01E9CFF4
:1004F000DF91CF910895DC01EC91EC3090F51196ED
:100500008C91119728E830E0281B310987FD33953D
:10051000220F331F220F331F6217730784F01296C6
:100520008C9128E532E0281B310987FD3395220F95
:10053000331F220F331F621773070CF49B012250E5
:100540003109220F331F4FB7F8948E2F90E0FC0132
:10055000EE0FFF1FE80FF91FE45AFD4F328321838E
:100560004FBF08951F93CF93DF93EC01162F88811F
:100570008C3008F04DC0862F0E9487008881282F7C
:1005800030E0F901EE0FFF1FE20FF31FE45AFD4FB9
:100590001F736081607C612B608319821A822CE05A
:1005A000622F0E94F80B829FB001112430E020E0FE
:1005B000AB01420F531FFA01EE0FFF1FE40FF51FAF
:1005C000E45AFD4F908196FD16C02F5F3F4F2C30AF
:1005D000310571F781110FC01092800082E0809385
:1005E00081001092850010928400B19A80916F0072
:1005F000826080936F00E8818E2F90E0FC01EE0F07
:10060000FF1FE80FF91FE45AFD4F8081806480834B
:100610008881DF91CF911F910895109207018091F9
:100620009601882329F18091020190910301909312
:10063000B5018093B401809195018823F1F08091F8
:100640000001909101019093B1018093B0018091DC
:10065000B4019091B5019093B3018093B201809160
:10066000B0019091B1019093AF018093AE010895D4
:100670008091930190919401DACF809191019091B2
:100680009201E1CFFC0101900020E9F73197AF0121
:10069000481B590BBC018FEB91E00C946E01CF937A
:1006A000DF930E944203EC018AE191E00E94420341
:1006B0008C0F9D1FDF91CF91089581E080930401FD
:1006C00088EB9BE0A0E0B0E080939B0190939C01BD
:1006D000A0939D01B0939E018DE191E00C944F0396
:1006E0000C9442038F929F92AF92BF92CF92DF926F
:1006F000EF92FF920F931F93CF93DF93CDB7DEB7A7
:10070000A1970FB6F894DEBF0FBECDBF6C01990F55
:10071000EE08FF08F7FE41C06DE28FEB91E00E940A
:100720000E028C0122273327A9012C193D094E09FD
:100730005F0919A2CE0181967C019AE0892E912C45
:10074000A12CB12CCA01B901A50194010E94610B31
:10075000605DF70162937F01211531054105510567
:1007600089F790E080E0309719F0CF010E944203B2
:10077000800F911FA1960FB6F894DEBF0FBECDBFBC
:10078000DF91CF911F910F91FF90EF90DF90CF906D
:10079000BF90AF909F908F900895A701960119A2E6
:1007A0008E010F5D1F4F8AE0C82ED12CE12CF12C59
:1007B000CA01B901A70196010E94610B605DF801B1
:1007C00062938F01211531054105510589F790E0AC
:1007D00080E0309779F2CF010E944203CBCFCF93D4
:1007E000DF93EB010E942C0B8883CE01DF91CF9128
:1007F00008950F931F93CF93DF938C01EB010E9419
:100800002C0B8883C80101960E942C0B8983CE0192
:10081000DF91CF911F910F910895FF920F931F9336
:10082000CF93DF938C01EB01F8800E942C0BF8161C
:1008300021F06F2DC8010E94340BCE01DF91CF91C2
:100840001F910F91FF900895FF920F931F93CF93E5
:10085000DF93EC018B01FB01F0800E942C0BF8165A
:1008600021F06F2DCE010E94340BF801F18021960A
:10087000CE010E942C0BF81621F06F2DCE010E94A4
:10088000340BC801DF91CF911F910F91FF90089514
:100890001F920F920FB60F9211242F933F938F93B5
:1008A0009F93AF93BF938091B7019091B801A091AE
:1008B000B901B091BA013091B60123E0230F2D3771
:1008C00058F50196A11DB11D2093B6018093B70183
:1008D0009093B801A093B901B093BA018091BB0184
:1008E0009091BC01A091BD01B091BE010196A11DE6
:1008F000B11D8093BB019093BC01A093BD01B09347
:10090000BE01BF91AF919F918F913F912F910F9019
:100910000FBE0F901F90189526E8230F0296A11D79
:10092000B11DD2CF1F920F920FB60F9211242F93A9
:100930003F934F935F936F937F938F939F93AF9367
:10094000BF93EF93FF938FEB91E00E94EC01FF9137
:10095000EF91BF91AF919F918F917F916F915F9137
:100960004F913F912F910F900FBE0F901F901895B0
:100970001F920F920FB60F9211242F938F939F9374
:10098000EF93FF93E091CF01F091D0018081E0914E
:10099000D501F091D60182FD1BC090818091D801D4
:1009A0008F5F8F732091D901821741F0E091D801B8
:1009B000F0E0E154FE4F958F8093D801FF91EF91C5
:1009C0009F918F912F910F900FBE0F901F901895B0
:1009D0008081F4CF1F920F920FB60F9211242F93A4
:1009E0003F934F935F936F937F938F939F93AF93B7
:1009F000BF93CF93DF93EF93FF9380918E01C091CC
:100A00008002D0E087FF24C01092850010928400FD
:100A100080918E018F5F80938E0180918E01082ED0
:100A2000000C990B8C179D0724F480918E018C305B
:100A3000C4F18091840090918500049680349C4993
:100A400008F47AC08091840090918500049676C065
:100A500080918E01082E000C990B8C179D07C4F60F
:100A6000E0918E018E2FEE0F990BFC01EE0FFF1F10
:100A7000E80FF91FE45AFD4F808186FFC9CFE0914E
:100A80008E018E2FEE0F990BFC01EE0FFF1FE80F6A
:100A9000F91FE45AFD4F808160E08F730E94A60029
:100AA000B7CF2091840030918500E0918E018E2F88
:100AB000EE0F990BFC01EE0FFF1FE80FF91FE45A30
:100AC000FD4F81819281820F931F909389008093C3
:100AD0008800E0918E018E2FEE0F990BFC01EE0F36
:100AE000FF1FE80FF91FE45AFD4F808186FF11C0F8
:100AF000E0918E018E2FEE0F990BFC01EE0FFF1F80
:100B0000E80FF91FE45AFD4F808161E08F730E9466
:100B1000A600FF91EF91DF91CF91BF91AF919F918F
:100B20008F917F916F915F914F913F912F910F9096
:100B30000FBE0F901F90189580E49CE99093890058
:100B4000809388008FEF80938E01E3CF1092C201D3
:100B50001092C10188EE93E0A0E0B0E08093C30161
:100B60009093C401A093C501B093C6018CE091E0BD
:100B70009093C0018093BF0185EC90E09093CC01ED
:100B80008093CB0184EC90E09093CE018093CD01D3
:100B900080EC90E09093D0018093CF0181EC90E0C5
:100BA0009093D2018093D10182EC90E09093D40194
:100BB0008093D30186EC90E09093D6018093D50189
:100BC0001092D8011092D9011092DA011092DB0133
:100BD000809180028C3048F591E0980F90938002CC
:100BE0008093840290E0FC01EE0FFF1FE80FF91FD5
:100BF000E45AFD4F88EB9BE09283818380918002D1
:100C00008C30B8F491E0980F909380028093810229
:100C100090E0FC01EE0FFF1FE80FF91FE45AFD4FB3
:100C200088EB9BE09283818308958FEF8093840209
:100C3000E5CF8FEF809381020895789484B5826028
:100C400084BD84B5816084BD85B5826085BD85B570
:100C5000816085BD80916E00816080936E001092EE
:100C60008100809181008260809381008091810069
:100C700081608093810080918000816080938000FA
:100C80008091B10084608093B1008091B000816058
:100C90008093B00080917A00846080937A00809184
:100CA0007A00826080937A0080917A0081608093DC
:100CB0007A0080917A00806880937A001092C10057
:100CC000E091CF01F091D00182E08083E091CB01EF
:100CD000F091CC011082E091CD01F091CE018FEC2A
:100CE00080831092D701E091D301F091D40186E086
:100CF0008083E091D101F091D20180818061808375
:100D0000E091D101F091D201808188608083E091EF
:100D1000D101F091D201808180688083E091D1017E
:100D2000F091D20180818F7D808383E00E948700D3
:100D300080919A0190E00E94F20063E971E088ECF2
:100D400090E00E94F90362E071E08AEC90E00E947A
:100D5000F90361E971E08CEC90E00E94F90360E036
:100D600071E08EEC90E00E94F90366E971E080ED9D
:100D700090E00E94EF0365E971E081ED90E00E9450
:100D8000EF0360E971E082ED90E00E94EF030E94C2
:100D90005D038FE291E00E944F0394EBC92ED12CAA
:100DA000E12CF12C8091B4019091B5019093B301A5
:100DB0008093B2018091B0019091B1019093AF0105
:100DC0008093AE012FB7F8948091B7019091B8014C
:100DD000A091B901B091BA012FBF4091AA015091E1
:100DE000AB016091AC017091AD012C013D01441A41
:100DF000550A660A770A8093AA019093AB01A093E3
:100E0000AC01B093AD018091A6019091A701A09192
:100E1000A801B091A901840D951DA61DB71D809351
:100E2000A6019093A701A093A801B093A901809176
:100E3000A501811122C08FEB91E00E94CC010397A4
:100E4000BCF08FEB91E00E94BE01803109F060C0E0
:100E50008FE591E00E94700384E691E00E947003A8
:100E600088E691E00E9470038AE691E00E944F03B9
:100E70008091A501882309F414C28FEB91E00E94B0
:100E8000CC0103970CF4C4C08FEB91E00E94AA013F
:100E9000C82F8FEB91E00E94AA01D82F8FEB91E031
:100EA0000E94AA01382E212CD101AD2B8FB7F894C6
:100EB0004091B7015091B8016091B9017091BA01A8
:100EC0008FBF40939F015093A0016093A101709345
:100ED000A2018C2F8150990BFC01459770F6ED58BB
:100EE000F84F0C94040C5E098009A209B209BC09F0
:100EF000BF093D073D073D073D073D073D073D074E
:100F00003D073D07C209D3091B0A870AAA0ACB0A73
:100F10008111AECF8FEB91E00E94AA018FEB91E09F
:100F20000E94AA018FEB91E00E94AA0121E0209388
:100F3000A5016AE070E084E892E00E94B20269E0F4
:100F400070E081E892E00E94B2020E940D03A0913D
:100F5000B401B091B501B093B301A093B201C091B7
:100F6000B001D091B101D093AF01C093AE0120ED9B
:100F700037E00E940A0CA70196010E94420BCA01A9
:100F8000B9016C507E4F8F4F9F4F84E892E00E94D2
:100F90007B0280919001882399F020ED37E0DE01FB
:100FA0000E940A0CA70196010E94420BCA01B901D6
:100FB0006C507E4F8F4F9F4F81E892E00E947B02E2
:100FC00010920701109299011092980110929701C6
:100FD00080E791E00E9470038AE691E00E944F034F
:100FE00081E08093A4011092A3012FB7F89480911F
:100FF000B7019091B801A091B901B091BA012FBF8A
:1010000080939F019093A001A093A101B093A201AE
:101010008091A501882309F444C18091A40188230B
:1010200009F43FC18091A301811138C02FB7F89412
:101030008091B7019091B801A091B901B091BA0126
:101040002FBF40919F015091A0016091A10170912B
:10105000A201841B950BA60BB70B89389341A10500
:10106000B105B8F081E08093A3010E945D0388E898
:1010700093E1A0E0B0E080939B0190939C01A0934A
:101080009D01B0939E0110929A0190E080E00E9431
:10109000F2008091A301882309F495C20E940D03F8
:1010A00010E000E0D0E0C0E080910401882309F462
:1010B00081C080919B0190919C01A0919D01B09174
:1010C0009E0184199509A609B70980939B01909305
:1010D0009C01A0939D01B0939E01181619061A0653
:1010E0001B06C4F01092040110929B0110929C0107
:1010F00010929D0110929E018BE791E00E944F0398
:101100008091A301882331F01092A4011092A301D1
:101110001092A5016091B2017091B3012091B401C8
:101120003091B501261B370B4091AE015091AF01B4
:101130008091B0019091B101841B950BF90137FFAB
:1011400004C0EE27FF27E21BF30B32977CF0E1E0AF
:10115000F0E01216130614F0F0E0E0E0232F221F57
:101160002227221FDF01A21BB1099D01FC0197FF6D
:1011700004C0EE27FF27E81BF90B32977CF0E1E073
:10118000F0E01816190614F0F0E0E0E0892F881F4F
:101190008827881FDF01A81BB109CD01260F371F43
:1011A0003093B5012093B401840F951F9093B10142
:1011B0008093B0018091B4019091B501C80FD91FFF
:1011C0008091B0019091B101080F191FA091930176
:1011D000B0919401CA17DB0744F0A0910201B091CD
:1011E0000301CA17DB070CF4DE01C0919101D09115
:1011F00092010C171D0744F0C0910001D09101012C
:101200000C171D070CF4E80120ED37E00E940A0CD2
:10121000A70196010E94420BCA01B9016C507E4F92
:101220008F4F9F4F84E892E00E947B028091900153
:10123000882399F020ED37E0DE010E940A0CA70117
:1012400096010E94420BCA01B9016C507E4F8F4F2C
:101250009F4F81E892E00E947B020E9449014B016E
:101260005C0184E0482E512C612C712C0E944901B4
:10127000681979098A099B09683E734081059105BF
:10128000A8F3B1E04B1A51086108710828EE820EEC
:1012900023E0921EA11CB11C41145104610471048D
:1012A00029F780E090E0892B09F47CCD0E94D801D9
:1012B000882309F477CD0E94000074CD209193011A
:1012C00030919401A217B3070CF4D7CD809102019D
:1012D000909103018A179B070CF4CFCD40919601A2
:1012E000442349F08A1B9B0B280F391F3093B5010B
:1012F0002093B401C2CDB093B501A093B401BDCD8C
:101300002091910130919201A217B3070CF4B5CD51
:1013100080910001909101018A179B070CF4ADCDDB
:1013200040919501442349F08A1B9B0B280F391FDC
:101330003093B1012093B001A0CDB093B101A0933F
:10134000B0019BCDCD018F3F910519F014F08FEFC7
:1013500090E097FF02C090E080E080939A010E94A5
:10136000F2008BCDB0930601A093050191E090931C
:1013700007011092990181CD0E945D037ECD1092EC
:1013800004017BCD8FE591E00E94700384E691E03B
:101390000E94700388E691E00E9470038AE691E063
:1013A0000E944F036ACD87E791E00E94700380910D
:1013B0009301909194010E94720389E791E00E9449
:1013C000700380910201909103010E94720389E7EA
:1013D00091E00E94700380919101909192010E948E
:1013E000720389E791E00E9470038091000190915F
:1013F00001010E94720389E791E00E9470038091CD
:10140000960190E00E94720389E791E00E947003C8
:101410008091950190E00E94720389E791E00E941B
:1014200070038091900190E00E9472038AE191E044
:101430000E94420322CD80918F01873088F4E82FEB
:10144000F0E0EB5DF54F0C94040C2C0A360A3B0AD5
:10145000400A450A4C0A530AB0939401A0939301A1
:101460008F5F873038F580938F0107CDB0930301EC
:10147000A0930201F5CFB0939201A0939101F0CF18
:10148000B0930101A0930001EBCF91E0AB2B09F4E5
:1014900090E090939601E4CF91E0AB2B09F490E0BB
:1014A00090939501DDCF91E0AB2B09F490E0909300
:1014B0009001D6CF10928F0163E971E088EC90E043
:1014C0000E94240462E071E08AEC90E00E9424040F
:1014D00061E971E08CEC90E00E94240460E071E02E
:1014E0008EEC90E00E94240466E971E080ED90E0CB
:1014F0000E940D0465E971E081ED90E00E940D0409
:1015000060E971E082ED90E00E940D04B6CC80911C
:10151000910190919201A817B9070CF4AECC80917B
:101520000001909101018A179B070CF4A6CC20EDD5
:1015300037E00E940A0CA70196010E94420BCA01E3
:10154000B9016C507E4F8F4F9F4F84E892E00E940C
:101550007B0293CC8091910190919201A817B907D9
:101560000CF48BCC80910001909101018A179B07AC
:101570000CF483CC20ED37E00E940A0CA701960101
:101580000E94420BCA01B9016C507E4F8F4F9F4F92
:1015900081E892E0DCCF1092A5011092A401109294
:1015A000A3016BCC80919501002711270C1B1D0B0B
:1015B000811101C08E01D0E0C0E033C010929801CB
:1015C0001092970171CD8091070110E000E088230F
:1015D00091F3809199018F5F80939901843010F08D
:1015E00010920701C0910501D09106016091970109
:1015F00070919801072E000C880B990B0E94940B98
:1016000020E030E040E050E40E94CF0B181654F682
:1016100080919601882319F0D195C195D10910E0E8
:1016200000E0A0909701B09098019FEFA91AB90A25
:10163000B5010B2C000C880B990B0E94940B20E039
:1016400030E040E850E40E94CF0B87FFB7CFB09264
:101650009801A092970128CDF999FECF92BD81BD46
:10166000F89A992780B50895262FF999FECF1FBAC9
:1016700092BD81BD20BD0FB6F894FA9AF99A0FBEBB
:1016800001960895052E97FB1EF400940E94590BB5
:1016900057FD07D00E94610B07FC03D04EF40C9459
:1016A000590B50954095309521953F4F4F4F5F4FC7
:1016B000089590958095709561957F4F8F4F9F4FBE
:1016C0000895A1E21A2EAA1BBB1BFD010DC0AA1F83
:1016D000BB1FEE1FFF1FA217B307E407F50720F09B
:1016E000A21BB30BE40BF50B661F771F881F991F16
:1016F0001A9469F760957095809590959B01AC015F
:10170000BD01CF010895A29FB001B39FC001A39F67
:10171000700D811D1124911DB29F700D811D11242A
:10172000911D0895E89409C097FB3EF4909580952B
:10173000709561957F4F8F4F9F4F9923A9F0F92F97
:1017400096E9BB279395F695879577956795B79515
:10175000F111F8CFFAF4BB0F11F460FF1BC06F5FFB
:101760007F4F8F4F9F4F16C0882311F096E911C00D
:10177000772321F09EE8872F762F05C0662371F02E
:1017800096E8862F70E060E02AF09A95660F771F42
:10179000881FDAF7880F9695879597F908950E9424
:1017A000D40B08F48FEF0895990F0008550FAA0B7A
:1017B000E0E8FEEF16161706E807F907C0F0121664
:1017C0001306E407F50798F0621B730B840B950B67
:1017D00039F40A2661F0232B242B252B21F40895BC
:1017E0000A2609F4A140A6958FEF811D811D089559
:1017F000991B79E004C0991F961708F0961B881F63
:101800007A95C9F780950895EE0FFF1F0590F49122
:10181000E02D09940E94830BB7FF0895821B930B60
:061820000895F894FFCFCB
:10182600B400B40001140001000000000E026E01B5
:101836009B015B02CC01AA01BE010D0A00536C6F2D
:1018460077204D6F64652053746172746564005728
:10185600616974696E6720666F722068616E647371
:1018660068616B652E2E2E2053656E6420274845D1
:101876004C4C4F2720746F20626567696E2E0056A8
:1018860045523A00424254002D00312E302E31008E
:101896005245414459230053000900536C6F772089
:0E18A6004D6F64652053746F706565640000BB
:00000001FF
