:100000000C945D000C9485000C9485000C94850084
:100010000C9485000C9485000C9485000C9485004C
:100020000C9485000C9485000C9485000C94D604E7
:100030000C9485000C9485000C9485000C9485002C
:100040000C9434040C9485000C94A4040C947E0449
:100050000C9485000C9485000C9485000C9485000C
:100060000C9485000C94850000000008000201003B
:100070000003040700000000000000000000000072
:10008000250028002B0000000000240027002A0083
:10009000040404040404040402020202020203032E
:1000A0000303030301020408102040800102040836
:1000B0001020010204081020920511241FBECFEF6A
:1000C000D8E0DEBFCDBF11E0A0E0B1E0E8EDF8E19F
:1000D00002C005900D92AA37B107D9F722E0AAE72E
:1000E000B1E001C01D92AA37B207E1F710E0CDE5FB
:1000F000D0E004C02197FE010E945D0CCC35D107F1
:10010000C9F70E9409060C946A0C0C94000090E058
:10011000FC01EC55FF4F249180579F4FFC018491C7
:10012000882399F090E0880F991FFC01EA57FF4F50
:10013000A591B491FC01E458FF4F859194918FB73C
:10014000F894EC91E22BEC938FBF089590E0FC01C2
:10015000E859FF4F2491FC01EC55FF4F3491FC010D
:10016000E057FF4FE491EE23C9F0222339F023300A
:1001700001F1A8F4213019F1223029F1F0E0EE0F5D
:10018000FF1FE458FF4FA591B4918FB7F894EC91FD
:10019000611126C030953E233C938FBF08952730D0
:1001A000A9F02830C9F0243049F7809180008F7D74
:1001B00003C0809180008F7780938000DFCF84B56B
:1001C0008F7784BDDBCF84B58F7DFBCF8091B0006E
:1001D0008F778093B000D2CF8091B0008F7DF9CF20
:1001E0003E2BDACFCF93DF93EC0183E00E948700B0
:1001F000209731F460E083E0DF91CF910C94A6006A
:10020000CF3FD10511F461E0F6CFEBE6F0E0E491E9
:10021000E33029F140F4E130B1F0E230D9F0C038F8
:10022000D1058CF7E7CFE73021F1E83051F1E43028
:10023000B1F780918000806280938000D0938B0022
:10024000C0938A0004C084B5806884BDC7BDDF91B7
:10025000CF91089584B5806284BDC8BDF8CF8091E8
:100260008000806880938000D0938900C0938800CC
:10027000EECF8091B00080688093B000C093B3004F
:10028000E6CF8091B00080628093B000C093B4004C
:10029000DECF3FB7F8948091AE019091AF01A0916D
:1002A000B001B091B10126B5A89B05C02F3F19F050
:1002B0000196A11DB11D3FBFBA2FA92F982F8827E6
:1002C000BC01CD01620F711D811D911D42E0660FC1
:1002D000771F881F991F4A95D1F708952FB7F89473
:1002E0006091AA017091AB018091AC019091AD0138
:1002F0002FBF0895AF92BF92CF92DF92EF92FF92FD
:100300000F931F93CF93DF936C017B018B01040F3D
:10031000151FEB015E01AE18BF08C017D10759F0D9
:100320006991D601ED91FC910190F081E02DC6011B
:100330000995892B79F7C501DF91CF911F910F9115
:10034000FF90EF90DF90CF90BF90AF900895FC01A9
:10035000538D448D252F30E0842F90E0821B930B2A
:10036000541710F0CF96089501970895FC01918DD0
:10037000828D981761F0A28DAE0FBF2FB11D5D96D3
:100380008C91928D9F5F9F73928F90E008958FEF75
:100390009FEF0895FC01918D828D981731F0828D29
:1003A000E80FF11D858D90E008958FEF9FEF089580
:1003B000FC01918D228D892F90E0805C9F4F821BE4
:1003C00091098F739927089582EB91E00E94D801DB
:1003D00021E0892B09F420E0822F089580E090E04D
:1003E000892B29F00E94E40181110C9400000895EA
:1003F000FC01A48DA80FB92FB11DA35ABF4F2C919A
:10040000848D90E001968F739927848FA689B78990
:100410002C93A089B1898C91837080648C93938D87
:10042000848D981306C00288F389E02D80818F7D2A
:1004300080830895EF92FF920F931F93CF93DF93E2
:10044000EC0181E0888F9B8D8C8D98131AC0E88910
:10045000F989808185FF15C09FB7F894EE89FF89DF
:100460006083E889F98980818370806480839FBF7D
:1004700081E090E0DF91CF911F910F91FF90EF907D
:100480000895F62E0B8D10E00F5F1F4F0F7311278D
:10049000E02E8C8D8E110CC00FB607FCFACFE889C8
:1004A000F989808185FFF5CFCE010E94F801F1CF57
:1004B000EB8DEC0FFD2FF11DE35AFF4FF0829FB73C
:1004C000F8940B8FEA89FB8980818062CFCFCF932C
:1004D000DF93EC01888D8823B9F0AA89BB89E8896C
:1004E000F9898C9185FD03C0808186FD0DC00FB612
:1004F00007FCF7CF8C9185FFF2CF808185FFEDCF90
:10050000CE010E94F801E9CFDF91CF910895DC017F
:10051000EC91EC3090F511968C91119728E830E031
:10052000281B310987FD3395220F331F220F331FFC
:100530006217730784F012968C9128E532E0281B2D
:10054000310987FD3395220F331F220F331F6217A6
:1005500073070CF49B0122503109220F331F4FB750
:10056000F8948E2F90E0FC01EE0FFF1FE80FF91FAB
:10057000E15BFD4F328321834FBF08951F93CF93DB
:10058000DF93EC01162F88818C3008F04DC0862F48
:100590000E9487008881282F30E0F901EE0FFF1FAD
:1005A000E20FF31FE15BFD4F1F736081607C612BE5
:1005B000608319821A822CE0622F0E94510C829F64
:1005C000B001112430E020E0AB01420F531FFA01CB
:1005D000EE0FFF1FE40FF51FE15BFD4F908196FDCD
:1005E00016C02F5F3F4F2C30310571F781110FC0BE
:1005F0001092800082E0809381001092850010921A
:100600008400B19A80916F00826080936F00E881CE
:100610008E2F90E0FC01EE0FFF1FE80FF91FE15B4A
:10062000FD4F8081806480838881DF91CF911F910D
:10063000089510928C0110928B0180917F0190910E
:1006400080019093A8018093A70180917D019091F2
:100650007E019093A4018093A3010895FC01019071
:100660000020E9F73197AF01481B590BBC0182EB21
:1006700091E00C947A01CF93DF930E942E03EC015A
:100680008DE191E00E942E038C0F9D1FDF91CF9191
:10069000089581E08093040188EB9BE0A0E0B0E046
:1006A00080938E0190938F01A0939001B09391015C
:1006B00080E291E00C943B030C942E038F929F9266
:1006C000AF92BF92CF92DF92EF92FF920F931F9360
:1006D000CF93DF93CDB7DEB7A1970FB6F894DEBF07
:1006E0000FBECDBF6C01990FEE08FF08F7FE41C0A9
:1006F0006DE282EB91E00E941A028C0122273327DF
:10070000A9012C193D094E095F0919A2CE01819654
:100710007C019AE0892E912CA12CB12CCA01B9013F
:10072000A50194010E94200C605DF70162937F0196
:10073000211531054105510589F790E080E030979A
:1007400019F0CF010E942E03800F911FA1960FB6C2
:10075000F894DEBF0FBECDBFDF91CF911F910F91F7
:10076000FF90EF90DF90CF90BF90AF909F908F90D1
:100770000895A701960119A28E010F5D1F4F8AE00F
:10078000C82ED12CE12CF12CCA01B901A701960188
:100790000E94200C605DF80162938F0121153105E4
:1007A0004105510589F790E080E0309779F2CF015B
:1007B0000E942E03CBCFCF93DF93EB010E94D80B87
:1007C0008883CE01DF91CF9108950F931F93CF932C
:1007D000DF938C01EB010E94D80B8883C80101963E
:1007E0000E94D80B8983CE01DF91CF911F910F9189
:1007F0000895FF920F931F93CF93DF938C01EB012A
:10080000F8800E94D80BF81621F06F2DC8010E94C5
:10081000E00BCE01DF91CF911F910F91FF900895D2
:10082000FF920F931F93CF93DF93EC018B01FB019A
:10083000F0800E94D80BF81621F06F2DCE010E9497
:10084000E00BF801F1802196CE010E94D80BF8163A
:1008500021F06F2DCE010E94E00BC801DF91CF91F6
:100860001F910F91FF9008951F920F920FB60F9254
:1008700011242F933F938F939F93AF93BF938091B6
:10088000AA019091AB01A091AC01B091AD01309162
:10089000A90123E0230F2D3758F50196A11DB11DA5
:1008A0002093A9018093AA019093AB01A093AC017E
:1008B000B093AD018091AE019091AF01A091B001D4
:1008C000B091B1010196A11DB11D8093AE0190932D
:1008D000AF01A093B001B093B101BF91AF919F91CF
:1008E0008F913F912F910F900FBE0F901F901895F1
:1008F00026E8230F0296A11DB11DD2CF1F920F92A1
:100900000FB60F9211242F933F934F935F936F93E2
:100910007F938F939F93AF93BF93EF93FF9382EB5C
:1009200091E00E94F801FF91EF91BF91AF919F91EB
:100930008F917F916F915F914F913F912F910F9088
:100940000FBE0F901F9018951F920F920FB60F9227
:1009500011242F938F939F93EF93FF93E091C20104
:10096000F091C3018081E091C801F091C90182FD3D
:100970001BC090818091CB018F5F8F732091CC0140
:10098000821741F0E091CB01F0E0EE54FE4F958FDD
:100990008093CB01FF91EF919F918F912F910F90B9
:1009A0000FBE0F901F9018958081F4CF1F920F9269
:1009B0000FB60F9211242F933F934F935F936F9332
:1009C0007F938F939F93AF93BF93CF93DF93EF93D7
:1009D000FF9380917A01C0917302D0E087FF24C019
:1009E000109285001092840080917A018F5F80932D
:1009F0007A0180917A01082E000C990B8C179D07C3
:100A000024F480917A018C30C4F18091840090911B
:100A10008500049680349C4908F47AC08091840053
:100A200090918500049676C080917A01082E000C82
:100A3000990B8C179D07C4F6E0917A018E2FEE0F6B
:100A4000990BFC01EE0FFF1FE80FF91FE15BFD4F53
:100A5000808186FFC9CFE0917A018E2FEE0F990B2E
:100A6000FC01EE0FFF1FE80FF91FE15BFD4F8081D6
:100A700060E08F730E94A600B7CF20918400309170
:100A80008500E0917A018E2FEE0F990BFC01EE0F9D
:100A9000FF1FE80FF91FE15BFD4F81819281820FFB
:100AA000931F9093890080938800E0917A018E2FA4
:100AB000EE0F990BFC01EE0FFF1FE80FF91FE15B32
:100AC000FD4F808186FF11C0E0917A018E2FEE0FDD
:100AD000990BFC01EE0FFF1FE80FF91FE15BFD4FC3
:100AE000808161E08F730E94A600FF91EF91DF91FA
:100AF000CF91BF91AF919F918F917F916F915F91B6
:100B00004F913F912F910F900FBE0F901F9018950E
:100B100080E49CE990938900809388008FEF809314
:100B20007A01E3CF1092B5011092B40188EE93E000
:100B3000A0E0B0E08093B6019093B701A093B80114
:100B4000B093B9018FE091E09093B3018093B2012B
:100B500085EC90E09093BF018093BE0184EC90E01F
:100B60009093C1018093C00180EC90E09093C30109
:100B70008093C20181EC90E09093C5018093C40101
:100B800082EC90E09093C7018093C60186EC90E0E0
:100B90009093C9018093C8011092CB011092CC01AF
:100BA0001092CD011092CE01809173028C3048F5E5
:100BB00091E0980F909373028093770290E0FC018C
:100BC000EE0FFF1FE80FF91FE15BFD4F88EB9BE085
:100BD00092838183809173028C30B8F491E0980FF6
:100BE000909373028093740290E0FC01EE0FFF1F5C
:100BF000E80FF91FE15BFD4F88EB9BE09283818357
:100C000008958FEF80937702E5CF8FEF8093740282
:100C10000895CF93DF93CDB7DEB72A970FB6F89438
:100C2000DEBF0FBECDBF789484B5826084BD84B52D
:100C3000816084BD85B5826085BD85B5816085BDD7
:100C400080916E00816080936E001092810080918F
:100C50008100826080938100809181008160809317
:100C60008100809180008160809380008091B1003C
:100C700084608093B1008091B00081608093B00067
:100C800080917A00846080937A0080917A008260FB
:100C900080937A0080917A00816080937A008091BD
:100CA0007A00806880937A001092C100E091C201BE
:100CB000F091C30182E08083E091BE01F091BF0119
:100CC0001082E091C001F091C1018FEC80831092FD
:100CD000CA01E091C601F091C70186E08083E091EE
:100CE000C401F091C501808180618083E091C401DD
:100CF000F091C501808188608083E091C401F0910A
:100D0000C501808180688083E091C401F091C501B4
:100D100080818F7D808383E00E94870080918D0198
:100D200090E00E94F2006FE771E088EC90E00E9492
:100D3000E50362E071E08AEC90E00E94E5036DE774
:100D400071E08CEC90E00E94E50360E071E08EECD5
:100D500090E00E94E50362E871E080ED90E00E947F
:100D6000DB0361E871E081ED90E00E94DB036CE75A
:100D700071E082ED90E00E94DB030E94490382E370
:100D800091E00E943B0394EBC92ED12CE12CF12C75
:100D9000332433948091A7019091A8019093A601E8
:100DA0008093A5018091A3019091A4019093A20149
:100DB0008093A1010E946E014B015C0180919D0115
:100DC00090919E01A0919F01B091A0012401350155
:100DD000481A590A6A0A7B0A80929D0190929E01E4
:100DE000A0929F01B092A0018091990190919A01E7
:100DF000A0919B01B0919C01840D951DA61DB71D6E
:100E00008093990190939A01A0939B01B0939C01C8
:100E10008091980181110EC182EB91E00E94D8016E
:100E200003970CF40CC482EB91E00E94CA0181117B
:100E300006C482EB91E00E94B60182EB91E00E9431
:100E4000B60182EB91E00E94B601309298016AE00F
:100E500070E087E792E00E94BE0269E070E084E7FC
:100E600092E00E94BE020E941903A091A701B091D6
:100E7000A801B093A601A093A5012091A3013091F0
:100E8000A4013C832B833093A2012093A10120ED88
:100E900037E00E94630CA70196010E94EE0BCA0185
:100EA000B9016C507E4F8F4F9F4F87E792E00E94B1
:100EB000870280917C018823A1F020ED37E0AB818F
:100EC000BC810E94630CA70196010E94EE0BCA012F
:100ED000B9016C507E4F8F4F9F4F84E792E00E9484
:100EE000870210928C0110928B018BE491E00E949A
:100EF0005C0382E591E00E945C0386E591E00E943C
:100F00005C0388E591E00E943B03309297011092C8
:100F100096010E946E0160939201709393018093F9
:100F200094019093950180919801882309F487C3D7
:100F300080919701882309F482C3809196018111E1
:100F40002BC00E946E01009192011091930120919B
:100F5000940130919501601B710B820B930B6938E2
:100F6000734181059105C0F0309296010E944903BA
:100F700028E833E140E050E020938E0130938F0168
:100F8000409390015093910110928D0190E080E088
:100F90000E94F2000E94190380918C01811104C00B
:100FA00080918B018823F1F08091960181111AC004
:100FB0008091870190918801A0918901B0918A0167
:100FC000A5019401281B390B4A0B5B0BDA01C901FF
:100FD00084369105A105B10508F4AEC110928C01CB
:100FE00010928B011C821B8210E000E02BC220912A
:100FF0007F01309180014B815C8142175307D4F00F
:101000008091020190910301841795079CF0409113
:101010008201442349F0AB81BC818A1B9B0BAC014C
:10102000420F531F5C834B838B819C819093A8015B
:101030008093A70182EB91E00E94D80103970CF402
:1010400072CF82EB91E00E94B601182F82EB91E003
:101050000E94B6018B8382EB91E00E94B6018A83E5
:10106000198249815A818B81482B5C834B830E9472
:101070006E01609392017093930180939401909319
:101080009501A12FA150BB0BFD01549798F6E55B8C
:10109000F74F0C945D0CF7075F08830894089F08CE
:1010A000A2081A081A081A081A081A081A081A08A8
:1010B0001A081A08A508B608FE08780995092091AB
:1010C0007D0130917E01AB81BC81A217B3070CF486
:1010D000B1CF80910001909101018A179B070CF418
:1010E000A9CF40918101442339F08A1B9B0BAC01AD
:1010F000420F531F5C834B838B819C819093A4018F
:101100008093A30197CF8B819C818F3F910519F02C
:1011100014F08FEF90E097FF02C090E080E08093A2
:101120008D010E94F20086CFAB81BC81B093060195
:10113000A093050130928C0130928B01E1C00E9496
:10114000490378CF1092040175CF8EE591E00E949B
:101150005C0382E591E00E945C0386E591E00E94D9
:101160005C0388E591E00E943B0364CF83E691E055
:101170000E945C0380917F01909180010E945E0338
:1011800085E691E00E945C03809102019091030149
:101190000E945E0385E691E00E945C0380917D01E0
:1011A00090917E010E945E0385E691E00E945C03BF
:1011B00080910001909101010E945E0385E691E01B
:1011C0000E945C038091820190E00E945E0385E6AC
:1011D00091E00E945C038091810190E00E945E0397
:1011E00085E691E00E945C0380917C0190E00E9482
:1011F0005E038DE191E00E942E031CCF80917B0164
:10120000873098F4E82FF0E0E85FF64F0C945D0C1F
:101210000F091B09220929093009390942092B81C3
:101220003C813093800120937F018F5F873098F558
:1012300080937B01FFCE4B815C81509303014093EF
:101240000201F3CFAB81BC81B0937E01A0937D01FD
:10125000ECCF2B813C813093010120930001E5CF3D
:1012600091E04B815C81452B09F490E090938201E1
:10127000DCCF91E0AB81BC81AB2B09F490E0909383
:101280008101D3CF91E02B813C81232B09F490E0A5
:1012900090937C01CACF10927B016FE771E088ECDC
:1012A00090E00E94100462E071E08AEC90E00E94FD
:1012B00010046DE771E08CEC90E00E94100460E097
:1012C00071E08EEC90E00E94100462E871E080ED25
:1012D00090E00E94F90361E871E081ED90E00E94E6
:1012E000F9036CE771E082ED90E00E94F903A2CE71
:1012F0004B815C81509306014093050130928C0133
:101300000E946E0160938701709388018093890128
:1013100090938A010E946E0160938301709384010F
:10132000809385019093860185CE8B819C819093DB
:1013300006018093050100CF809183019091840183
:10134000A0918501B0918601A5019401281B390B5C
:101350004A0B5B0BDA01C9010697A105B10508F03C
:101360007BC10E94800B6B837C838D839E830E9454
:10137000800B6F83788789879A8780918C0110E032
:1013800000E08823D9F06B817C818D819E812BE0E8
:1013900030E040E050E00E94EE0B65507109810999
:1013A00091090091050110910601060F171F809108
:1013B0008201882319F011950195110980918B0103
:1013C000882309F44EC16F81788589859A852BE041
:1013D00030E040E050E00E94EE0BAB01BC01455014
:1013E0005109610971098091050190910601840FED
:1013F000951F9C838B8380918101882339F0AB8179
:10140000BC81B195A195B109BC83AB838091830167
:1014100090918401A0918501B0918601A50194016C
:10142000281B390B4A0B5B0BDA01C9014997A1054F
:10143000B10540F08092830190928401A0928501D1
:10144000B092860180910401882309F47FC08091C5
:101450008E0190918F01A0919001B091910184191A
:101460009509A609B70980938E0190938F01A093E7
:101470009001B0939101181619061A061B06B4F0D4
:101480001092040110928E0110928F01109290011F
:101490001092910187E691E00E943B0380919601B2
:1014A000882321F010929701109296016091A50176
:1014B0007091A6012091A7013091A801261B370B3E
:1014C0004091A1015091A2018091A3019091A401AA
:1014D000841B950BF90137FF04C0EE27FF27E21BA1
:1014E000F30B32977CF0E1E0F0E01216130614F0F3
:1014F000F0E0E0E0232F221F2227221FDF01A21BA2
:10150000B1099D01FC0197FF04C0EE27FF27E81BEE
:10151000F90B32977CF0E1E0F0E01816190614F0B0
:10152000F0E0E0E0892F881F8827881FDF01A81BD3
:10153000B109CD01260F371F3093A8012093A701D1
:10154000840F951F9093A4018093A3016091A7013C
:101550007091A801060F171FA0917F01B091800123
:101560000A171B0744F0A0910201B09103010A176A
:101570001B070CF4D8016091A3017091A4012B8189
:101580003C81260F371F00917D0110917E012017AD
:10159000310744F00091000110910101201731073B
:1015A0000CF4890120ED37E00E94630CA70196013D
:1015B0000E94EE0BCA01B9016C507E4F8F4F9F4FB6
:1015C00087E792E00E94870280917C01882399F04E
:1015D00020ED37E0D8010E94630CA70196010E941C
:1015E000EE0BCA01B9016C507E4F8F4F9F4F84E7BD
:1015F00092E00E9487020E9449012B013C0184E095
:10160000882E912CA12CB12C0E94490164197509D6
:1016100086099709683E734081059105A8F331E07A
:10162000831A9108A108B10848EE440E43E0541E05
:10163000611C711C81149104A104B10429F780E09C
:1016400090E0892B09F4A6CB0E94E401882309F4D9
:101650009FCB0E9400009CCB1C821B8210E000E00C
:10166000D5CE1C821B82D2CE8F929F92AF92BF9218
:10167000CF92DF92EF92FF92CF93DF93EC016881DC
:1016800079818A819B81611571058105910521F41C
:1016900064E279ED8BE597E02DE133EF41E050E036
:1016A0000E94EE0B49015A019B01AC01A7EAB1E48B
:1016B0000E940D0C6B017C01ACEEB4EFA50194010E
:1016C0000E941B0CC60ED71EE81EF91EF7FE06C0B0
:1016D00081E0C81AD108E10880E8F80AC882D982F6
:1016E000EA82FB82C701B6019F77DF91CF91FF901D
:1016F000EF90DF90CF90BF90AF909F908F90089524
:101700008F929F92AF92BF92CF92DF92EF92FF9211
:1017100060910701709108018091090190910A017F
:10172000611571058105910521F464E279ED8BE580
:1017300097E02DE133EF41E050E00E94EE0B4901CC
:101740005A019B01AC01A7EAB1E40E940D0C6B01A8
:101750007C01ACEEB4EFA50194010E941B0CC60EF7
:10176000D71EE81EF91EF7FE06C081E0C81AD10890
:10177000E10880E8F80AC0920701D0920801E092DF
:101780000901F0920A01C701B6019F77FF90EF901F
:10179000DF90CF90BF90AF909F908F90089560930F
:1017A0000701709308018093090190930A0108953D
:1017B000F999FECF92BD81BDF89A992780B5089519
:1017C000262FF999FECF1FBA92BD81BD20BD0FB65D
:1017D000F894FA9AF99A0FBE01960895052E97FB90
:1017E0001EF400940E94050C57FD07D00E94200CA7
:1017F00007FC03D04EF40C94050C509540953095A1
:1018000021953F4F4F4F5F4F08959095809570956C
:1018100061957F4F8F4F9F4F08950E94420CA59F67
:10182000900DB49F900DA49F800D911D11240895DB
:10183000B7FF0C940D0C0E940D0C821B930B0895A6
:10184000A1E21A2EAA1BBB1BFD010DC0AA1FBB1FC4
:10185000EE1FFF1FA217B307E407F50720F0A21B36
:10186000B30BE40BF50B661F771F881F991F1A94A3
:1018700069F760957095809590959B01AC01BD01CD
:10188000CF010895A29FB001B39FC001A39F700D27
:10189000811D1124911DB29F700D811D1124911D78
:1018A0000895991B79E004C0991F961708F0961BBC
:1018B000881F7A95C9F780950895EE0FFF1F059050
:1018C000F491E02D09940E94420CB7FF0895821B09
:0818D000930B0895F894FFCF7B
:1018D800B400B40001140001000000000000001A68
:1018E800027A01A7016702D801B601CA010D0A00F0
:1018F800536C6F77204D6F64652053746172746503
:10190800640057616974696E6720666F7220686148
:101918006E647368616B652E2E2E005245414459E2
:101928002300424254002D00312E302E34005645FB
:10193800523A0053000900536C6F77204D6F64656D
:0A1948002053746F706565640000A1
:00000001FF
