:100000000C945D000C9485000C9485000C94850084
:100010000C9485000C9485000C9485000C9485004C
:100020000C9485000C9485000C9485000C94DA04E3
:100030000C9485000C9485000C9485000C9485002C
:100040000C9438040C9485000C94A8040C9482043D
:100050000C9485000C9485000C9485000C9485000C
:100060000C9485000C94850000000008000201003B
:100070000003040700000000000000000000000072
:10008000250028002B0000000000240027002A0083
:10009000040404040404040402020202020203032E
:1000A0000303030301020408102040800102040836
:1000B0001020010204081020960511241FBECFEF66
:1000C000D8E0DEBFCDBF11E0A0E0B1E0ECEAF6E1A0
:1000D00002C005900D92AC38B107D9F722E0ACE828
:1000E000B1E001C01D92A538B207E1F710E0CDE5FF
:1000F000D0E004C02197FE010E94470BCC35D10708
:10010000C9F70E940D060C94540B0C94000090E06B
:10011000FC01EC55FF4F249180579F4FFC018491C7
:10012000882399F090E0880F991FFC01EA57FF4F50
:10013000A591B491FC01E458FF4F859194918FB73C
:10014000F894EC91E22BEC938FBF089590E0FC01C2
:10015000E859FF4F2491FC01EC55FF4F3491FC010D
:10016000E057FF4FE491EE23C9F0222339F023300A
:1001700001F1A8F4213019F1223029F1F0E0EE0F5D
:10018000FF1FE458FF4FA591B4918FB7F894EC91FD
:10019000611126C030953E233C938FBF08952730D0
:1001A000A9F02830C9F0243049F7809180008F7D74
:1001B00003C0809180008F7780938000DFCF84B56B
:1001C0008F7784BDDBCF84B58F7DFBCF8091B0006E
:1001D0008F778093B000D2CF8091B0008F7DF9CF20
:1001E0003E2BDACFCF93DF93EC0183E00E948700B0
:1001F000209731F460E083E0DF91CF910C94A6006A
:10020000CF3FD10511F461E0F6CFEBE6F0E0E491E9
:10021000E33029F140F4E130B1F0E230D9F0C038F8
:10022000D1058CF7E7CFE73021F1E83051F1E43028
:10023000B1F780918000806280938000D0938B0022
:10024000C0938A0004C084B5806884BDC7BDDF91B7
:10025000CF91089584B5806284BDC8BDF8CF8091E8
:100260008000806880938000D0938900C0938800CC
:10027000EECF8091B00080688093B000C093B3004F
:10028000E6CF8091B00080628093B000C093B4004C
:10029000DECF3FB7F8948091B9019091BA01A09157
:1002A000BB01B091BC0126B5A89B05C02F3F19F03A
:1002B0000196A11DB11D3FBFBA2FA92F982F8827E6
:1002C000BC01CD01620F711D811D911D42E0660FC1
:1002D000771F881F991F4A95D1F70895AF92BF9253
:1002E000CF92DF92EF92FF920F931F93CF93DF9302
:1002F0006C017B018B01040F151FEB015E01AE1831
:10030000BF08C017D10759F06991D601ED91FC9152
:100310000190F081E02DC6010995892B79F7C5017F
:10032000DF91CF911F910F91FF90EF90DF90CF90D1
:10033000BF90AF900895FC01538D448D252F30E080
:10034000842F90E0821B930B541710F0CF960895E2
:1003500001970895FC01918D828D981761F0A28D0F
:10036000AE0FBF2FB11D5D968C91928D9F5F9F73D5
:10037000928F90E008958FEF9FEF0895FC01918D8B
:10038000828D981731F0828DE80FF11D858D90E0F8
:1003900008958FEF9FEF0895FC01918D228D892F95
:1003A00090E0805C9F4F821B91098F73992708957D
:1003B0008DEB91E00E94CC0121E0892B09F420E033
:1003C000822F089580E090E0892B29F00E94D801C7
:1003D00081110C9400000895FC01A48DA80FB92F81
:1003E000B11DA35ABF4F2C91848D90E001968F735D
:1003F0009927848FA689B7892C93A089B1898C917C
:10040000837080648C93938D848D981306C00288CA
:10041000F389E02D80818F7D80830895EF92FF9294
:100420000F931F93CF93DF93EC0181E0888F9B8D17
:100430008C8D98131AC0E889F989808185FF15C0D1
:100440009FB7F894EE89FF896083E889F9898081F4
:100450008370806480839FBF81E090E0DF91CF91C3
:100460001F910F91FF90EF900895F62E0B8D10E0E5
:100470000F5F1F4F0F731127E02E8C8D8E110CC054
:100480000FB607FCFACFE889F989808185FFF5CF9F
:10049000CE010E94EC01F1CFEB8DEC0FFD2FF11D91
:1004A000E35AFF4FF0829FB7F8940B8FEA89FB89DC
:1004B00080818062CFCFCF93DF93EC01888D88233A
:1004C000B9F0AA89BB89E889F9898C9185FD03C0B7
:1004D000808186FD0DC00FB607FCF7CF8C9185FF9C
:1004E000F2CF808185FFEDCFCE010E94EC01E9CFF4
:1004F000DF91CF910895DC01EC91EC3090F51196ED
:100500008C91119728E830E0281B310987FD33953D
:10051000220F331F220F331F6217730784F01296C6
:100520008C9128E532E0281B310987FD3395220F95
:10053000331F220F331F621773070CF49B012250E5
:100540003109220F331F4FB7F8948E2F90E0FC0132
:10055000EE0FFF1FE80FF91FE65AFD4F328321838C
:100560004FBF08951F93CF93DF93EC01162F88811F
:100570008C3008F04DC0862F0E9487008881282F7C
:1005800030E0F901EE0FFF1FE20FF31FE65AFD4FB7
:100590001F736081607C612B608319821A822CE05A
:1005A000622F0E943B0B829FB001112430E020E0BB
:1005B000AB01420F531FFA01EE0FFF1FE40FF51FAF
:1005C000E65AFD4F908196FD16C02F5F3F4F2C30AD
:1005D000310571F781110FC01092800082E0809385
:1005E00081001092850010928400B19A80916F0072
:1005F000826080936F00E8818E2F90E0FC01EE0F07
:10060000FF1FE80FF91FE65AFD4F80818064808349
:100610008881DF91CF911F910895109207018091F9
:1006200094018823A9F08091020190910301909395
:10063000B3018093B20180919301882371F080917E
:100640000001909101019093AF018093AE01089554
:100650008091900190919101EACF80918E019091CB
:100660008F01F1CFFC0101900020E9F73197AF0134
:10067000481B590BBC018DEB91E00C946E01CF939C
:10068000DF930E943203EC018AE191E00E94320381
:100690008C0F9D1FDF91CF91089581E0809304011D
:1006A00088EB9BE0A0E0B0E08093990190939A01E1
:1006B000A0939B01B0939C018DE191E00C943F03CA
:1006C0000C9432038F929F92AF92BF92CF92DF929F
:1006D000EF92FF920F931F93CF93DF93CDB7DEB7C7
:1006E000A1970FB6F894DEBF0FBECDBF6C01990F76
:1006F000EE08FF08F7FE41C06DE28DEB91E00E942D
:100700000E028C0122273327A9012C193D094E091D
:100710005F0919A2CE0181967C019AE0892E912C65
:10072000A12CB12CCA01B901A50194010E94A40A0F
:10073000605DF70162937F01211531054105510587
:1007400089F790E080E0309719F0CF010E943203E2
:10075000800F911FA1960FB6F894DEBF0FBECDBFDC
:10076000DF91CF911F910F91FF90EF90DF90CF908D
:10077000BF90AF909F908F900895A701960119A206
:100780008E010F5D1F4F8AE0C82ED12CE12CF12C79
:10079000CA01B901A70196010E94A40A605DF8018F
:1007A00062938F01211531054105510589F790E0CC
:1007B00080E0309779F2CF010E943203CBCFCF9304
:1007C000DF93EB010E946F0A8883CE01DF91CF9106
:1007D00008950F931F93CF93DF938C01EB010E9439
:1007E0006F0A8883C80101960E946F0A8983CE012F
:1007F000DF91CF911F910F910895FF920F931F9357
:10080000CF93DF938C01EB01F8800E946F0AF816FA
:1008100021F06F2DC8010E94770ACE01DF91CF91A0
:100820001F910F91FF900895FF920F931F93CF9305
:10083000DF93EC018B01FB01F0800E946F0AF81638
:1008400021F06F2DCE010E94770AF801F1802196E8
:10085000CE010E946F0AF81621F06F2DCE010E9482
:10086000770AC801DF91CF911F910F91FF900895F2
:100870001F920F920FB60F9211242F933F938F93D5
:100880009F93AF93BF938091B5019091B601A091D2
:10089000B701B091B8013091B40123E0230F2D3797
:1008A00058F50196A11DB11D2093B4018093B501A7
:1008B0009093B601A093B701B093B8018091B901AC
:1008C0009091BA01A091BB01B091BC010196A11D0C
:1008D000B11D8093B9019093BA01A093BB01B0936D
:1008E000BC01BF91AF919F918F913F912F910F903C
:1008F0000FBE0F901F90189526E8230F0296A11D9A
:10090000B11DD2CF1F920F920FB60F9211242F93C9
:100910003F934F935F936F937F938F939F93AF9387
:10092000BF93EF93FF938DEB91E00E94EC01FF9159
:10093000EF91BF91AF919F918F917F916F915F9157
:100940004F913F912F910F900FBE0F901F901895D0
:100950001F920F920FB60F9211242F938F939F9394
:10096000EF93FF93E091CD01F091CE018081E09172
:10097000D301F091D40182FD1BC090818091D601FA
:100980008F5F8F732091D701821741F0E091D601DC
:10099000F0E0E354FE4F958F8093D601FF91EF91E5
:1009A0009F918F912F910F900FBE0F901F901895D0
:1009B0008081F4CF1F920F920FB60F9211242F93C4
:1009C0003F934F935F936F937F938F939F93AF93D7
:1009D000BF93CF93DF93EF93FF9380918C01C091EE
:1009E0007E02D0E087FF24C0109285001092840020
:1009F00080918C018F5F80938C0180918C01082EF7
:100A0000000C990B8C179D0724F480918C018C307D
:100A1000C4F18091840090918500049680349C49B3
:100A200008F47AC08091840090918500049676C085
:100A300080918C01082E000C990B8C179D07C4F631
:100A4000E0918C018E2FEE0F990BFC01EE0FFF1F32
:100A5000E80FF91FE65AFD4F808186FFC9CFE0916C
:100A60008C018E2FEE0F990BFC01EE0FFF1FE80F8C
:100A7000F91FE65AFD4F808160E08F730E94A60047
:100A8000B7CF2091840030918500E0918C018E2FAA
:100A9000EE0F990BFC01EE0FFF1FE80FF91FE65A4E
:100AA000FD4F81819281820F931F909389008093E3
:100AB0008800E0918C018E2FEE0F990BFC01EE0F58
:100AC000FF1FE80FF91FE65AFD4F808186FF11C016
:100AD000E0918C018E2FEE0F990BFC01EE0FFF1FA2
:100AE000E80FF91FE65AFD4F808161E08F730E9485
:100AF000A600FF91EF91DF91CF91BF91AF919F91B0
:100B00008F917F916F915F914F913F912F910F90B6
:100B10000FBE0F901F90189580E49CE99093890078
:100B2000809388008FEF80938C01E3CF1092C001F7
:100B30001092BF0188EE93E0A0E0B0E08093C10185
:100B40009093C201A093C301B093C4018CE091E0E3
:100B50009093BE018093BD0185EC90E09093CA0113
:100B60008093C90184EC90E09093CC018093CB01F9
:100B700080EC90E09093CE018093CD0181EC90E0E9
:100B80009093D0018093CF0182EC90E09093D201BA
:100B90008093D10186EC90E09093D4018093D301AF
:100BA0001092D6011092D7011092D8011092D9015B
:100BB00080917E028C3048F591E0980F90937E02F0
:100BC0008093820290E0FC01EE0FFF1FE80FF91FF7
:100BD000E65AFD4F88EB9BE09283818380917E02F1
:100BE0008C30B8F491E0980F90937E0280937F024E
:100BF00090E0FC01EE0FFF1FE80FF91FE65AFD4FD2
:100C000088EB9BE09283818308958FEF809382022B
:100C1000E5CF8FEF80937F020895789484B582604A
:100C200084BD84B5816084BD85B5826085BD85B590
:100C3000816085BD80916E00816080936E0010920E
:100C40008100809181008260809381008091810089
:100C5000816080938100809180008160809380001A
:100C60008091B10084608093B1008091B000816078
:100C70008093B00080917A00846080937A008091A4
:100C80007A00826080937A0080917A0081608093FC
:100C90007A0080917A00806880937A001092C10077
:100CA000E091CD01F091CE0182E08083E091C90115
:100CB000F091CA011082E091CB01F091CC018FEC50
:100CC00080831092D501E091D101F091D20186E0AC
:100CD0008083E091CF01F091D00180818061808399
:100CE000E091CF01F091D001808188608083E09114
:100CF000CF01F091D001808180688083E091CF01A5
:100D0000F091D00180818F7D808383E00E948700F5
:100D10008091980190E00E94F20060E971E088EC17
:100D200090E00E94E90362E071E08AEC90E00E94AA
:100D3000E9036EE871E08CEC90E00E94E90360E06A
:100D400071E08EEC90E00E94E90364E971E080EDCF
:100D500090E00E94DF0363E971E081ED90E00E9482
:100D6000DF0362E971E082ED90E00E94DF030E9400
:100D70004D038FE291E00E943F0394EBC92ED12CEA
:100D8000E12CF12C8091B2019091B3019093B101CB
:100D90008093B0018091AE019091AF019093AD012D
:100DA0008093AC012FB7F8948091B5019091B60172
:100DB000A091B701B091B8012FBF4091A801509107
:100DC000A9016091AA017091AB012C013D01441A67
:100DD000550A660A770A8093A8019093A901A09307
:100DE000AA01B093AB018091A4019091A501A091BB
:100DF000A601B091A701840D951DA61DB71D809376
:100E0000A4019093A501A093A601B093A70180919E
:100E1000A3018111C9C18DEB91E00E94CC01039720
:100E20000CF4A3C18DEB91E00E94BE0181119DC124
:100E30008DEB91E00E94AA018DEB91E00E94AA0146
:100E40008DEB91E00E94AA0121E02093A3016AE0CA
:100E500070E082E892E00E94B20269E070E08FE701
:100E600092E00E94B2020E940D03A091B201B091E3
:100E7000B301B093B101A093B001C091AE01D09184
:100E8000AF01D093AD01C093AC0120ED37E00E94DB
:100E90004D0BA70196010E94850ACA01B9016C5049
:100EA0007E4F8F4F9F4F82E892E00E947B0280919D
:100EB0009201882399F020ED37E0DE010E944D0B6E
:100EC000A70196010E94850ACA01B9016C507E4FA4
:100ED0008F4F9F4F8FE792E00E947B020E944D034D
:100EE0008FE591E00E943F0331E03093A201109220
:100EF000A1012FB7F8948091B5019091B601A0910E
:100F0000B701B091B8012FBF80939D0190939E01CE
:100F1000A0939F01B093A0018091A301882309F4BD
:100F200024C18091A201882309F41FC18091A101ED
:100F3000811138C02FB7F8948091B5019091B60116
:100F4000A091B701B091B8012FBF40919D01509180
:100F50009E0160919F017091A001841B950BA60BCF
:100F6000B70B89389341A105B105B8F031E0309352
:100F7000A1010E944D0388E893E1A0E0B0E08093D6
:100F8000990190939A01A0939B01B0939C011092B8
:100F9000980190E080E00E94F2008091A1018823F6
:100FA00009F454C20E940D0310E000E0D0E0C0E05C
:100FB00080910401882309F47FC080919901909168
:100FC0009A01A0919B01B0919C0184199509A609F1
:100FD000B7098093990190939A01A0939B01B093D4
:100FE0009C01181619061A061B06B4F0109204018B
:100FF0001092990110929A0110929B0110929C01FB
:101000008AE791E00E943F038091A101882321F0AB
:101010001092A2011092A1016091B0017091B101F2
:101020002091B2013091B301261B370B4091AC01E6
:101030005091AD018091AE019091AF01841B950B51
:10104000F90137FF04C0EE27FF27E21BF30B3297AD
:101050007CF0E1E0F0E01216130614F0F0E0E0E0BE
:10106000232F221F2227221FDF01A21BB1099D016E
:10107000FC0197FF04C0EE27FF27E81BF90B32970E
:101080007CF0E1E0F0E01816190614F0F0E0E0E082
:10109000892F881F8827881FDF01A81BB109CD0170
:1010A000260F371F3093B3012093B201840F951F91
:1010B0009093AF018093AE01A090AE01B090AF01CC
:1010C000A091B201B091B301AC0FBD1F20ED37E08C
:1010D0000E944D0BA70196010E94850ACA01B90121
:1010E0006C507E4F8F4F9F4F82E892E00E947B02B0
:1010F000809192018823A9F0D501A00FB11F20EDA6
:1011000037E00E944D0BA70196010E94850ACA0193
:10111000B9016C507E4F8F4F9F4F8FE792E00E9436
:101120007B020E9449012B013C0184E0882E912C16
:10113000A12CB12C0E9449016419750986099709EF
:10114000683E734081059105A8F3B1E08B1A9108C0
:10115000A108B10828EE420E23E0521E611C711C4A
:1011600081149104A104B10429F780E090E0892B57
:1011700009F408CE0E94D801882309F403CE0E9406
:10118000000000CE209190013091910182179307C9
:101190005CF020910201309103012817390724F0F7
:1011A0009093B3018093B2018DEB91E00E94CC014A
:1011B00003970CF4B1CE8DEB91E00E94AA01C82FE9
:1011C0008DEB91E00E94AA01D82F8DEB91E00E9457
:1011D000AA01382E212CC1018D2B2FB7F8944091F4
:1011E000B5015091B6016091B7017091B8012FBF60
:1011F00040939D0150939E0160939F017093A001C5
:10120000AC2FA150BB0BFD01529770F6E65FF64F75
:101210000C94470BC2081C09310940094A094D09C1
:10122000D408D408D408D408D408D408D408D408DE
:10123000D40850096109A90920918E0130918F01CC
:10124000821793070CF4B0CF209100013091010177
:10125000281739070CF4A8CF9093AF018093AE0103
:10126000A3CF8F3F910519F014F08FEF90E097FF17
:1012700002C090E080E0809398010E94F20094CF39
:101280009093060180930501B1E0B093070110929D
:1012900097018ACF0E944D0387CF1092040184CF1B
:1012A00085E691E00E9460038AE691E00E94600377
:1012B0008EE691E00E94600380E791E00E943F0388
:1012C00073CF86E791E00E94600380919001909136
:1012D00091010E94620388E791E00E94600380917F
:1012E0000201909103010E94620388E791E00E944D
:1012F000600380918E0190918F010E94620388E7C4
:1013000091E00E94600380910001909101010E9490
:10131000620388E791E00E9460038091940190E06D
:101320000E94620388E791E00E946003809193012C
:1013300090E00E94620388E791E00E946003809140
:10134000920190E00E9462038AE191E00E943203E0
:101350002BCF20918D01273088F4E22FF0E0ED545F
:10136000F64F0C94470BBA09C409C909CE09D30931
:10137000DA09E10990939101809390012F5F273062
:1013800038F520938D0110CF9093030180930201D3
:10139000F5CF90938F0180938E01F0CF9093010150
:1013A00080930001EBCF31E0892B09F430E03093DA
:1013B0009401E4CF31E0892B09F430E030939301BC
:1013C000DDCF31E0892B09F430E030939201D6CFA4
:1013D00010928D0160E971E088EC90E00E941404A5
:1013E00062E071E08AEC90E00E9414046EE871E023
:1013F0008CEC90E00E94140460E071E08EEC90E0D0
:101400000E94140464E971E080ED90E00E94FD0305
:1014100063E971E081ED90E00E94FD0362E971E013
:1014200082ED90E00E94FD03BFCE809193010027E2
:1014300011270C1B1D0B811101C08E01D0E0C0E0F3
:1014400033C01092960110929501B2CD80910701A0
:1014500010E000E0882391F3809197018F5F8093E3
:101460009701843010F010920701C0910501D091CE
:1014700006016091950170919601072E000C880B72
:10148000990B0E94D70A20E030E040E050E40E942F
:10149000120B181654F680919401882319F0D195F7
:1014A000C195D10910E000E0A0909501B09096019F
:1014B0009FEFA91AB90AB5010B2C000C880B990BE8
:1014C0000E94D70A20E030E040E850E40E94120B6E
:1014D00087FFB7CFB0929601A092950169CDF99997
:1014E000FECF92BD81BDF89A992780B50895262F29
:1014F000F999FECF1FBA92BD81BD20BD0FB6F894F9
:10150000FA9AF99A0FBE01960895052E97FB1EF4DC
:1015100000940E949C0A57FD07D00E94A40A07FC71
:1015200003D04EF40C949C0A50954095309521952B
:101530003F4F4F4F5F4F08959095809570956195FF
:101540007F4F8F4F9F4F0895A1E21A2EAA1BBB1BFE
:10155000FD010DC0AA1FBB1FEE1FFF1FA217B3077F
:10156000E407F50720F0A21BB30BE40BF50B661F95
:10157000771F881F991F1A9469F760957095809559
:1015800090959B01AC01BD01CF010895A29FB001D0
:10159000B39FC001A39F700D811D1124911DB29FA7
:1015A000700D811D1124911D0895E89409C097FBC9
:1015B0003EF490958095709561957F4F8F4F9F4F2A
:1015C0009923A9F0F92F96E9BB279395F69587956E
:1015D00077956795B795F111F8CFFAF4BB0F11F431
:1015E00060FF1BC06F5F7F4F8F4F9F4F16C08823D8
:1015F00011F096E911C0772321F09EE8872F762F0E
:1016000005C0662371F096E8862F70E060E02AF04E
:101610009A95660F771F881FDAF7880F969587953A
:1016200097F908950E94170B08F48FEF0895990F0A
:101630000008550FAA0BE0E8FEEF16161706E8079C
:10164000F907C0F012161306E407F50798F0621BBD
:10165000730B840B950B39F40A2661F0232B242B92
:10166000252B21F408950A2609F4A140A6958FEFB1
:10167000811D811D0895991B79E004C0991F96175B
:1016800008F0961B881F7A95C9F780950895EE0F8C
:10169000FF1F0590F491E02D09940E94C60AB7FF40
:0C16A0000895821B930B0895F894FFCF6F
:1016AC00B400B40001140001000000000E026E0131
:1016BC009B015B02CC01AA01BE010D0A00536C6FA9
:1016CC0077204D6F646520537461727465640057A4
:1016DC00616974696E6720666F722068616E6473ED
:1016EC0068616B652E2E2E2053656E64202748454D
:1016FC004C4C4F2720746F20626567696E2E005228
:10170C0045414459005645523A00424254002D007E
:10171C00312E302E300053000900536C6F77204D62
:0C172C006F64652053746F706565640085
:00000001FF
