:100000000C945D000C9485000C9485000C94850084
:100010000C9485000C9485000C9485000C9485004C
:100020000C9485000C9485000C9485000C94D904E4
:100030000C9485000C9485000C9485000C9485002C
:100040000C9437040C9485000C94A7040C94810440
:100050000C9485000C9485000C9485000C9485000C
:100060000C9485000C94850000000008000201003B
:100070000003040700000000000000000000000072
:10008000250028002B0000000000240027002A0083
:10009000040404040404040402020202020203032E
:1000A0000303030301020408102040800102040836
:1000B0001020010204081020950511241FBECFEF67
:1000C000D8E0DEBFCDBF11E0A0E0B1E0EAEDFDE198
:1000D00002C005900D92A836B107D9F722E0A8E634
:1000E000B1E001C01D92A337B207E1F710E0CDE502
:1000F000D0E004C02197FE010E94DE0ECC35D1076E
:10010000C9F70E940C060C94EB0E0C94000090E0D2
:10011000FC01EC55FF4F249180579F4FFC018491C7
:10012000882399F090E0880F991FFC01EA57FF4F50
:10013000A591B491FC01E458FF4F859194918FB73C
:10014000F894EC91E22BEC938FBF089590E0FC01C2
:10015000E859FF4F2491FC01EC55FF4F3491FC010D
:10016000E057FF4FE491EE23C9F0222339F023300A
:1001700001F1A8F4213019F1223029F1F0E0EE0F5D
:10018000FF1FE458FF4FA591B4918FB7F894EC91FD
:10019000611126C030953E233C938FBF08952730D0
:1001A000A9F02830C9F0243049F7809180008F7D74
:1001B00003C0809180008F7780938000DFCF84B56B
:1001C0008F7784BDDBCF84B58F7DFBCF8091B0006E
:1001D0008F778093B000D2CF8091B0008F7DF9CF20
:1001E0003E2BDACFCF93DF93EC0183E00E948700B0
:1001F000209731F460E083E0DF91CF910C94A6006A
:10020000CF3FD10511F461E0F6CFEBE6F0E0E491E9
:10021000E33029F140F4E130B1F0E230D9F0C038F8
:10022000D1058CF7E7CFE73021F1E83051F1E43028
:10023000B1F780918000806280938000D0938B0022
:10024000C0938A0004C084B5806884BDC7BDDF91B7
:10025000CF91089584B5806284BDC8BDF8CF8091E8
:100260008000806880938000D0938900C0938800CC
:10027000EECF8091B00080688093B000C093B3004F
:10028000E6CF8091B00080628093B000C093B4004C
:10029000DECF3FB7F8948091A7019091A801A0917B
:1002A000A901B091AA0126B5A89B05C02F3F19F05E
:1002B0000196A11DB11D3FBFBA2FA92F982F8827E6
:1002C000BC01CD01620F711D811D911D42E0660FC1
:1002D000771F881F991F4A95D1F70895AF92BF9253
:1002E000CF92DF92EF92FF920F931F93CF93DF9302
:1002F0006C017B018B01040F151FEB015E01AE1831
:10030000BF08C017D10759F06991D601ED91FC9152
:100310000190F081E02DC6010995892B79F7C5017F
:10032000DF91CF911F910F91FF90EF90DF90CF90D1
:10033000BF90AF900895FC01538D448D252F30E080
:10034000842F90E0821B930B541710F0CF960895E2
:1003500001970895FC01918D828D981761F0A28D0F
:10036000AE0FBF2FB11D5D968C91928D9F5F9F73D5
:10037000928F90E008958FEF9FEF0895FC01918D8B
:10038000828D981731F0828DE80FF11D858D90E0F8
:1003900008958FEF9FEF0895FC01918D228D892F95
:1003A00090E0805C9F4F821B91098F73992708957D
:1003B0008BEA91E00E94CC0121E0892B09F420E036
:1003C000822F089580E090E0892B29F00E94D801C7
:1003D00081110C9400000895FC01A48DA80FB92F81
:1003E000B11DA35ABF4F2C91848D90E001968F735D
:1003F0009927848FA689B7892C93A089B1898C917C
:10040000837080648C93938D848D981306C00288CA
:10041000F389E02D80818F7D80830895EF92FF9294
:100420000F931F93CF93DF93EC0181E0888F9B8D17
:100430008C8D98131AC0E889F989808185FF15C0D1
:100440009FB7F894EE89FF896083E889F9898081F4
:100450008370806480839FBF81E090E0DF91CF91C3
:100460001F910F91FF90EF900895F62E0B8D10E0E5
:100470000F5F1F4F0F731127E02E8C8D8E110CC054
:100480000FB607FCFACFE889F989808185FFF5CF9F
:10049000CE010E94EC01F1CFEB8DEC0FFD2FF11D91
:1004A000E35AFF4FF0829FB7F8940B8FEA89FB89DC
:1004B00080818062CFCFCF93DF93EC01888D88233A
:1004C000B9F0AA89BB89E889F9898C9185FD03C0B7
:1004D000808186FD0DC00FB607FCF7CF8C9185FF9C
:1004E000F2CF808185FFEDCFCE010E94EC01E9CFF4
:1004F000DF91CF910895DC01EC91EC3090F51196ED
:100500008C91119728E830E0281B310987FD33953D
:10051000220F331F220F331F6217730784F01296C6
:100520008C9128E532E0281B310987FD3395220F95
:10053000331F220F331F621773070CF49B012250E5
:100540003109220F331F4FB7F8948E2F90E0FC0132
:10055000EE0FFF1FE80FF91FE85BFD4F3283218389
:100560004FBF08951F93CF93DF93EC01162F88811F
:100570008C3008F04DC0862F0E9487008881282F7C
:1005800030E0F901EE0FFF1FE20FF31FE85BFD4FB4
:100590001F736081607C612B608319821A822CE05A
:1005A000622F0E94D20E829FB001112430E020E021
:1005B000AB01420F531FFA01EE0FFF1FE40FF51FAF
:1005C000E85BFD4F908196FD16C02F5F3F4F2C30AA
:1005D000310571F781110FC01092800082E0809385
:1005E00081001092850010928400B19A80916F0072
:1005F000826080936F00E8818E2F90E0FC01EE0F07
:10060000FF1FE80FF91FE85BFD4F80818064808346
:100610008881DF91CF911F910895109206018091FA
:1006200078016091020170910301811104C0609111
:100630006D0170916E01072E000C880B990B0E94C2
:10064000B00D609373017093740180937501909362
:100650007601809177016091000170910101811113
:1006600004C060916B0170916C01072E000C880B27
:10067000990B0E94B00D60936F017093700180938D
:100680007101909372010895FC0101900020E9F737
:100690003197AF01481B590BBC018BEA91E00C94D8
:1006A0006E01CF93DF930E944403EC018AE191E055
:1006B0000E9444038C0F9D1FDF91CF9108950C94ED
:1006C00044038F929F92AF92BF92CF92DF92EF92AC
:1006D000FF920F931F93CF93DF93CDB7DEB7A19710
:1006E0000FB6F894DEBF0FBECDBF6C01990FEE08B8
:1006F000FF08F7FE41C06DE28BEA91E00E940E0216
:100700008C0122273327A9012C193D094E095F09C5
:1007100019A2CE0181967C019AE0892E912CA12C00
:10072000B12CCA01B901A50194010E94630C605D5E
:10073000F70162937F01211531054105510589F7C4
:1007400090E080E0309719F0CF010E944403800FC1
:10075000911FA1960FB6F894DEBF0FBECDBFDF91FB
:10076000CF911F910F91FF90EF90DF90CF90BF90AE
:10077000AF909F908F900895A701960119A28E01C6
:100780000F5D1F4F8AE0C82ED12CE12CF12CCA013D
:10079000B901A70196010E94630C605DF8016293A4
:1007A0008F01211531054105510589F790E080E061
:1007B000309779F2CF010E944403CBCFCF93DF93E0
:1007C000EB010E942E0C8883CE01DF91CF9108951A
:1007D0000F931F93CF93DF938C01EB010E942E0C9C
:1007E0008883C80101960E942E0C8983CE01DF9177
:1007F000CF911F910F910895FF920F931F93CF9365
:10080000DF938C01EB01F8800E942E0CF81621F08A
:100810006F2DC8010E94360CCE01DF91CF911F9140
:100820000F91FF900895FF920F931F93CF93DF9343
:10083000EC018B01FB01F0800E942E0CF81621F0D8
:100840006F2DCE010E94360CF801F1802196CE0169
:100850000E942E0CF81621F06F2DCE010E94360C4E
:10086000C801DF91CF911F910F91FF9008951F92C2
:100870000F920FB60F9211242F933F938F939F9354
:10088000AF93BF938091A3019091A401A091A50182
:10089000B091A6013091A20123E0230F2D3758F526
:1008A0000196A11DB11D2093A2018093A3019093F5
:1008B000A401A093A501B093A6018091A7019091F6
:1008C000A801A091A901B091AA010196A11DB11D95
:1008D0008093A7019093A801A093A901B093AA01C6
:1008E000BF91AF919F918F913F912F910F900FBE2C
:1008F0000F901F90189526E8230F0296A11DB11D99
:10090000D2CF1F920F920FB60F9211242F933F93C5
:100910004F935F936F937F938F939F93AF93BF9307
:10092000EF93FF938BEA91E00E94EC01FF91EF912E
:10093000BF91AF919F918F917F916F915F914F91F7
:100940003F912F910F900FBE0F901F9018951F92FF
:100950000F920FB60F9211242F938F939F93EF93C3
:10096000FF93E091BB01F091BC018081E091C10156
:10097000F091C20182FD1BC090818091C4018F5F04
:100980008F732091C501821741F0E091C401F0E01E
:10099000E555FE4F958F8093C401FF91EF919F9194
:1009A0008F912F910F900FBE0F901F9018958081FF
:1009B000F4CF1F920F920FB60F9211242F933F93F3
:1009C0004F935F936F937F938F939F93AF93BF9357
:1009D000CF93DF93EF93FF9380916801C0916C02F6
:1009E000D0E087FF24C0109285001092840080918F
:1009F00068018F5F8093680180916801082E000C68
:100A0000990B8C179D0724F4809168018C30C4F1F8
:100A10008091840090918500049680349C4908F46C
:100A20007AC08091840090918500049676C0809170
:100A30006801082E000C990B8C179D07C4F6E091F5
:100A400068018E2FEE0F990BFC01EE0FFF1FE80FD0
:100A5000F91FE85BFD4F808186FFC9CFE0916801F7
:100A60008E2FEE0F990BFC01EE0FFF1FE80FF91F01
:100A7000E85BFD4F808160E08F730E94A600B7CFD6
:100A80002091840030918500E09168018E2FEE0F57
:100A9000990BFC01EE0FFF1FE80FF91FE85BFD4FFC
:100AA00081819281820F931F9093890080938800A7
:100AB000E09168018E2FEE0F990BFC01EE0FFF1FE6
:100AC000E80FF91FE85BFD4F808186FF11C0E091C0
:100AD00068018E2FEE0F990BFC01EE0FFF1FE80F40
:100AE000F91FE85BFD4F808161E08F730E94A600D3
:100AF000FF91EF91DF91CF91BF91AF919F918F9136
:100B00007F916F915F914F913F912F910F900FBE09
:100B10000F901F90189580E49CE990938900809332
:100B200088008FEF80936801E3CF1092AE0110929E
:100B3000AD0188EE93E0A0E0B0E08093AF01909328
:100B4000B001A093B101B093B2018CE091E0909319
:100B5000AC018093AB0185EC90E09093B801809359
:100B6000B70184EC90E09093BA018093B90180ECD6
:100B700090E09093BC018093BB0181EC90E0909356
:100B8000BE018093BD0182EC90E09093C001809300
:100B9000BF0186EC90E09093C2018093C101109256
:100BA000C4011092C5011092C6011092C701809134
:100BB0006C028C3048F591E0980F90936C02809312
:100BC000700290E0FC01EE0FFF1FE80FF91FE85BD9
:100BD000FD4F88EB9BE09283818380916C028C3087
:100BE000B8F491E0980F90936C0280936D0290E0BE
:100BF000FC01EE0FFF1FE80FF91FE85BFD4F88EBCC
:100C00009BE09283818308958FEF80937002E5CFFC
:100C10008FEF80936D020895CF93DF93CDB7DEB74A
:100C200028970FB6F894DEBF0FBECDBF789484B579
:100C3000826084BD84B5816084BD85B5826085BDD8
:100C400085B5816085BD80916E00816080936E0066
:100C50001092810080918100826080938100809158
:100C60008100816080938100809180008160809309
:100C700080008091B10084608093B1008091B000C9
:100C800081608093B00080917A00846080937A00C4
:100C900080917A00826080937A0080917A008160EE
:100CA00080937A0080917A00806880937A00109215
:100CB000C100E091BB01F091BC0182E08083E09132
:100CC000B701F091B8011082E091B901F091BA0139
:100CD0008FEC80831092C301E091BF01F091C001BD
:100CE00086E08083E091BD01F091BE01808180614A
:100CF0008083E091BD01F091BE0180818860808396
:100D0000E091BD01F091BE01808180688083E09117
:100D1000BD01F091BE0180818F7D808383E00E94C0
:100D2000870080917E0190E00E94F20060E08AE0FE
:100D30000E94A60060E089E00E94A6006DE671E0D6
:100D400088EC90E00E94E80362E071E08AEC90E0B9
:100D50000E94E8036BE671E08CEC90E00E94E803EF
:100D600060E071E08EEC90E00E94E80368E771E0DB
:100D700080ED90E00E94DE0367E771E081ED90E096
:100D80000E94DE036AE671E082ED90E00E94DE03DD
:100D90000E940D038DE191E00E94510344EB442E2B
:100DA000512C612C712C00E010E02FB7F894809149
:100DB000A3019091A401A091A501B091A6012FBF1C
:100DC00040919E0150919F016091A0017091A101FD
:100DD0006C017D01C41AD50AE60AF70AB701A6011B
:100DE00080939E0190939F01A093A001B093A101D5
:100DF00080919A0190919B01A0919C01B0919D01DD
:100E0000840F951FA61FB71F80939A0190939B0193
:100E1000A0939C01B0939D0180910701882359F113
:100E20008091960190919701A0919801B0919901BC
:100E3000841B950BA60BB70B80939601909397019B
:100E4000A0939801B0939901181619061A061B066B
:100E500094F010920701109296011092970110924F
:100E600098011092990180919501882321F01092A8
:100E70009501109294018BEA91E00E94CC010397B6
:100E80000CF09AC18BEA91E00E94CC0103970CF41C
:100E900037C28BEA91E00E94AA0189838BEA91E034
:100EA0000E94AA01F82E8BEA91E00E94AA01382E36
:100EB000212CB1016F292FB7F8948091A301909153
:100EC000A401A091A501B091A6012FBF80938F012D
:100ED00090939001A0939101B093920189818150E8
:100EE000990BFC01429770F6E858F84F0C94DE0E0F
:100EF0008A07A907C807D807E2071408420742076C
:100F000042074207420742074207420742071708C3
:100F10002808700880916D0190916E01681779071B
:100F20000CF4B0CF809102019091030186179707CE
:100F30000CF4A8CF072E000C880B990B0E94B00D63
:100F4000609373017093740180937501909376019F
:100F500099CF80916B0190916C01681779070CF41F
:100F600091CF8091000190910101861797070CF4B1
:100F700089CF072E000C880B990B0E94B00D60934F
:100F80006F017093700180937101909372017ACF19
:100F9000CB018F3F910519F014F08FEF90E097FF90
:100FA00002C090E080E080937E010E94F2006ACF50
:100FB000709305016093040191E0909306011092F3
:100FC0007D0160CFA1E0A093070180918B019091FA
:100FD0008C01A0918D01B0918E0180938701909337
:100FE0008801A0938901B0938A0180918301909137
:100FF0008401A0918501B091860180937F01909337
:101000008001A0938101B093820130EDC32E37E0BF
:10101000D32EE12CF12CC0929601D0929701E09250
:101020009801F09299012ECF109207012BCF8DE4F9
:1010300091E00E945F0382E591E00E945F0386E5F4
:1010400091E00E945F0388E591E00E9451031ACF6E
:101050008EE591E00E945F0380916D0190916E0199
:101060000E94610380E691E00E945F03809102018B
:10107000909103010E94610380E691E00E945F036A
:1010800080916B0190916C010E94610380E691E078
:101090000E945F0380910001909101010E94610311
:1010A00080E691E00E945F038091780190E00E94C9
:1010B000610380E691E00E945F038091770190E0F8
:1010C0000E94610380E691E00E945F0380916A01C3
:1010D00090E00E9461038AE191E00E944403D2CE35
:1010E00080916901873088F4E82FF0E0E658F74FE7
:1010F0000C94DE0E81088B08900895089A08A108C8
:10110000A80870936E0160936D018F5F873038F58A
:1011100080936901B7CE7093030160930201F5CF0C
:1011200070936C0160936B01F0CF70930101609339
:101130000001EBCF91E0672B09F490E090937801E8
:10114000E4CF91E0672B09F490E090937701DDCF35
:1011500091E0672B09F490E090936A01D6CF10924A
:1011600069016DE671E088EC90E00E94130462E092
:1011700071E08AEC90E00E9413046BE671E08CEC65
:1011800090E00E94130460E071E08EEC90E00E9419
:10119000130468E771E080ED90E00E94FC0367E7CC
:1011A00071E081ED90E00E94FC036AE671E082ED5F
:1011B00090E00E94FC0366CE8BEA91E00E94BE01A3
:1011C000811160CE8BEA91E00E94AA018BEA91E046
:1011D0000E94AA018BEA91E00E94AA0180919301EA
:1011E000811193C0DD24D394D09293016AE070E022
:1011F00080E792E00E94B20269E070E08DE692E042
:101200000E94B20280917801609102017091030105
:10121000811104C060916D0170916E01072E000C68
:10122000880B990B0E94B00D609373017093740149
:101230008093750190937601809177016091000110
:1012400070910101811104C060916B0170916C017A
:10125000072E000C880B990B0E94B00D60936F0154
:10126000709370018093710190937201C0906F012F
:10127000D0907001E0907101F09072016091730163
:101280007091740180917501909176010E94780DA2
:10129000DB0120ED37E00E94E40EA30192010E94E1
:1012A000440CCA01B9016C507E4F8F4F9F4F80E7AD
:1012B00092E00E947B0280916A018823B9F0C70105
:1012C000B6010E94780DDB0120ED37E00E94E40EAC
:1012D000A30192010E94440CCA01B9016C507E4FD7
:1012E0008F4F9F4F8DE692E00E947B0282E691E055
:1012F0000E945103EE24E394E09294011092950130
:1013000080919301882309F447C280919401882336
:1013100009F442C22FB7F8948091A3019091A401DF
:10132000A091A501B091A6012FBF40918F015091CE
:1013300090016091910170919201841B950BA60B15
:10134000B70B89389341A105B10508F43FC08091DE
:10135000950181113BC081E0809395018093070145
:1013600020EDC22E27E0D22EE12CF12CC092960166
:10137000D0929701E0929801F092990180918B01AF
:1013800090918C01A0918D01B0918E018093870185
:1013900090938801A0938901B0938A018091830181
:1013A00090918401A0918501B091860180937F0185
:1013B00090938001A0938101B09382010E940D035C
:1013C00010927E0190E080E00E94F20010928B016A
:1013D00010928C0110928D0110928E011092830157
:1013E00010928401109285011092860180919501DE
:1013F00081110DC1809106018823A9F180917D01A1
:101400008F5F80937D01843010F010920601E09090
:101410000401F090050120E030E040E050E46091EC
:10142000790170917A0180917B0190917C010E94F9
:10143000600E18160CF0C1C180917801882309F460
:10144000B7C1662777276E197F09072E000C880B16
:10145000990B0E94B00D60938B0170938C01809367
:101460008D0190938E012091730130917401409110
:1014700075015091760160918B0170918C01809182
:101480008D0190918E010E94950C69837A838B83E4
:101490009C8360938B0170938C0180938D0190935A
:1014A0008E0120916F013091700140917101509136
:1014B0007201609183017091840180918501909106
:1014C00086010E94950C6B017C01C0928301D09231
:1014D0008401E0928501F092860120E030E040E84E
:1014E0005FE36091790170917A0180917B01909125
:1014F0007C010E94950C4B015C0120E030E040E84B
:1015000050E40E94600E87FF74C18092790190922E
:101510007A01A0927B01B0927C01609102017091EE
:101520000301072E000C880B990B0E94B00D4B0194
:101530005C01AC019B0169817A818B819C810E9455
:10154000600E181644F480928B0190928C01A09248
:101550008D01B0928E0160916D0170916E01072E28
:10156000000C880B990B0E94B00D4B015C0120917F
:101570008B0130918C0140918D0150918E010E9420
:10158000600E181644F480928B0190928C01A09208
:101590008D01B0928E016091000170910101072EC2
:1015A000000C880B990B0E94B00D4B015C01AC0143
:1015B0009B01C701B6010E94600E181644F4809288
:1015C000830190928401A0928501B092860160917E
:1015D0006B0170916C01072E000C880B990B0E9417
:1015E000B00D6B017C012091830130918401409109
:1015F0008501509186010E94600E181644F4C09235
:101600008301D0928401E0928501F092860180915D
:101610000701882309F401C1609196017091970137
:1016200080919801909199010E94B00D20E030E0E6
:101630004AEF54E40E94060D6B017C018091870102
:1016400090918801A0918901B0918A018D839E8338
:10165000AF83B8878090730190907401A09075015A
:10166000B090760120E030E0A901C701B6010E94E8
:10167000010D87FDC7C020E030E040E85FE3C7010F
:10168000B6010E94600E18160CF4C0C080916F0164
:1016900090917001A0917101B091720189839A8338
:1016A000AB83BC83A50194016D817E818F81988578
:1016B0000E94940CA70196010E94650EA501940159
:1016C0000E94950C0E94780DDB0120ED37E00E940E
:1016D000E40EA30192010E94440C2C503E4F4F4F48
:1016E0005F4F590129813A814B815C8160917F0173
:1016F0007091800180918101909182010E94940CEF
:10170000A70196010E94650E29813A814B815C8177
:101710000E94950C0E94780DDB0120ED37E00E94BD
:10172000E40EA30192010E94440C2C503E4F4F4FF7
:101730005F4F7901B50180E792E00E947B028091C2
:101740006A01882329F0B7018DE692E00E947B02AE
:101750000E9449014B015C0184E0C82ED12CE12C90
:10176000F12C0E944901681979098A099B09683E90
:10177000734081059105A8F391E0C91AD108E108E9
:10178000F108A8EE8A0EA3E09A1EA11CB11CC11498
:10179000D104E104F10429F70115110509F405CB81
:1017A0000E94D801882309F400CB0E940000FDCAE2
:1017B000B701FF0C880B990B4CCE809177018823E1
:1017C00099F0662777276E197F09072E000C880B82
:1017D000990B0E94B00D60938301709384018093F4
:1017E0008501909386013FCEB701FF0C880B990BC2
:1017F000F0CF1092790110927A0110927B01109231
:101800007C018BCEC12CD12C760140CFC12CD12CA8
:1018100090E8E92E9FE3F92E39CF60918B0170910A
:101820008C0180918D0190918E010E94780DDB01D9
:1018300020ED37E00E94E40EA30192010E94440CC7
:101840002C503E4F4F4F5F4F590160918301709173
:10185000840180918501909186015CCFF999FECF3A
:1018600092BD81BDF89A992780B50895262FF999E0
:10187000FECF1FBA92BD81BD20BD0FB6F894FA9A73
:10188000F99A0FBE01960895052E97FB1EF4009459
:101890000E945B0C57FD07D00E94630C07FC03D02D
:1018A0004EF40C945B0C50954095309521953F4F2C
:1018B0004F4F5F4F089590958095709561957F4F3C
:1018C0008F4F9F4F0895A1E21A2EAA1BBB1BFD014B
:1018D0000DC0AA1FBB1FEE1FFF1FA217B307E4070F
:1018E000F50720F0A21BB30BE40BF50B661F771F67
:1018F000881F991F1A9469F7609570958095909547
:101900009B01AC01BD01CF010895A29FB001B39F1F
:10191000C001A39F700D811D1124911DB29F700DF8
:10192000811D1124911D08955058BB27AA270E949C
:10193000AC0C0C94260E0E94180E38F00E941F0E5C
:1019400020F039F49F3F19F426F40C94150E0EF490
:10195000E095E7FB0C940F0EE92F0E94370E58F329
:10196000BA17620773078407950720F079F4A6F584
:101970000C94590E0EF4E0950B2EBA2FA02D0B01EE
:10198000B90190010C01CA01A0011124FF27591BC4
:1019900099F0593F50F4503E68F11A16F040A22FCA
:1019A000232F342F4427585FF3CF4695379527953B
:1019B000A795F0405395C9F77EF41F16BA0B620B3A
:1019C000730B840BBAF09150A1F0FF0FBB1F661F81
:1019D000771F881FC2F70EC0BA0F621F731F841FC4
:1019E00048F4879577956795B795F7959E3F08F0EA
:1019F000B0CF9395880F08F09927EE0F97958795AC
:101A000008950E94EB0D08F481E008950E941A0DDC
:101A10000C94260E0E941F0E58F00E94180E40F0E3
:101A200029F45F3F29F00C940F0E51110C945A0EBB
:101A30000C94150E0E94370E68F39923B1F35523C9
:101A400091F3951B550BBB27AA27621773078407D1
:101A500038F09F5F5F4F220F331F441FAA1FA9F367
:101A600035D00E2E3AF0E0E832D091505040E69555
:101A7000001CCAF72BD0FE2F29D0660F771F881FB6
:101A8000BB1F261737074807AB07B0E809F0BB0BA9
:101A9000802DBF01FF2793585F4F3AF09E3F5105BD
:101AA00078F00C940F0E0C945A0E5F3FE4F3983EBE
:101AB000D4F3869577956795B795F7959F5FC9F7A6
:101AC000880F911D9695879597F90895E1E0660F27
:101AD000771F881FBB1F621773078407BA0720F0A0
:101AE000621B730B840BBA0BEE1F88F7E095089509
:101AF0000E947F0D6894B1110C945A0E08950E94B3
:101B00003F0E88F09F5798F0B92F9927B751B0F042
:101B1000E1F0660F771F881F991F1AF0BA95C9F771
:101B200014C0B13091F00E94590EB1E008950C94A8
:101B3000590E672F782F8827B85F39F0B93FCCF35B
:101B4000869577956795B395D9F73EF490958095EE
:101B5000709561957F4F8F4F9F4F0895E89409C00E
:101B600097FB3EF490958095709561957F4F8F4FD0
:101B70009F4F9923A9F0F92F96E9BB279395F695E6
:101B8000879577956795B795F111F8CFFAF4BB0F64
:101B900011F460FF1BC06F5F7F4F8F4F9F4F16C0C8
:101BA000882311F096E911C0772321F09EE8872F52
:101BB000762F05C0662371F096E8862F70E060E00E
:101BC0002AF09A95660F771F881FDAF7880F969587
:101BD000879597F90895990F0008550FAA0BE0E82B
:101BE000FEEF16161706E807F907C0F012161306DF
:101BF000E407F50798F0621B730B840B950B39F41F
:101C00000A2661F0232B242B252B21F408950A2684
:101C100009F4A140A6958FEF811D811D089597F9C4
:101C20009F6780E870E060E008959FEF80EC089582
:101C300000240A94161617061806090608950024AB
:101C40000A9412161306140605060895092E039425
:101C5000000C11F4882352F0BB0F40F4BF2B11F499
:101C600060FF04C06F5F7F4F8F4F9F4F089557FDF8
:101C70009058440F551F59F05F3F71F04795880FFA
:101C800097FB991F61F09F3F79F087950895121691
:101C900013061406551FF2CF4695F1DF08C016163D
:101CA00017061806991FF1CF8695710561050894EE
:101CB0000895E894BB2766277727CB0197F9089505
:101CC0000E94EB0D08F48FEF08950E94780E0C949B
:101CD000260E0E94180E38F00E941F0E20F0952349
:101CE00011F00C940F0E0C94150E11240C945A0E36
:101CF0000E94370E70F3959FC1F3950F50E0551F6A
:101D0000629FF001729FBB27F00DB11D639FAA2750
:101D1000F00DB11DAA1F649F6627B00DA11D661F9F
:101D2000829F2227B00DA11D621F739FB00DA11DC0
:101D3000621F839FA00D611D221F749F3327A00D7A
:101D4000611D231F849F600D211D822F762F6A2F16
:101D500011249F5750409AF0F1F088234AF0EE0F7B
:101D6000FF1FBB1F661F771F881F91505040A9F7A8
:101D70009E3F510580F00C940F0E0C945A0E5F3F5D
:101D8000E4F3983ED4F3869577956795B795F795E4
:101D9000E7959F5FC1F7FE2B880F911D969587955C
:101DA00097F90895991B79E004C0991F961708F0D8
:101DB000961B881F7A95C9F780950895EE0FFF1F2F
:101DC0000590F491E02D09940E94850CB7FF0895C9
:0A1DD000821B930B0895F894FFCFD7
:101DDA00B400B40014000101000000000E026E01FC
:101DEA009B015B02CC01AA01BE010D0A0057616981
:101DFA0074696E6720666F722068616E64736861C9
:101E0A006B652E2E2E2053656E64202748454C4C58
:101E1A004F2720746F20626567696E2E00564552FF
:101E2A003A00424254002D00312E302E3000530029
:081E3A00090052454144590022
:00000001FF
